:020000040800F2
:10000000885E002061020008714B00083744000838
:10001000FD490008FD030008695D000800000000BC
:10002000000000000000000000000000A101000826
:100030003907000800000000FD0100087D4F00089E
:100040007B0200087B0200087B0200087B0200089C
:100050007B0200087B0200087B0200087B0200088C
:100060007B0200087B0200087B0200087B0200087C
:100070004D0600087B020008590600087B020008B4
:10008000650600087B0200087B0200080D040008DA
:10009000010400087B0200087B0200083B070008FF
:1000A0007B0200087B0200087B0200087B0200083C
:1000B0007B0200088D5000087B0200087B020008CC
:1000C0007B0200087B0200087B0200087B0200081C
:1000D0007B020008AD5C0008B95C0008C55C000844
:1000E0007B0200087B0200087B0200087B020008FC
:1000F0007B0200087B0200087B0200087B020008EC
:100100007B0200087B020008995000087B0200086F
:100110007B0200087B020008A55000087B02000853
:100120007B0200087B020008710600087B020008C1
:100130007B0200087B0200087B0200087B020008AB
:100140007B0200087B0200087B0200087B0200089B
:100150007B0200087D060008890600087B02000873
:100160007B0200087B0200087B0200087B0200087B
:100170007B0200087B0200087B02000800000000F0
:100180007B0200087B020008DFF810D000F006F9BF
:1001900000F0D4F800480047C5640008885E0020DD
:1001A0002C4B19680868B0E8F04F80F30988BFF35A
:1001B0006F8F4FF0000080F311887047000000003F
:1001C00008480068006880F308884FF0000080F35A
:1001D000148862B661B6BFF34F8FBFF36F8F00DF35
:1001E00000BF00BF08ED00E0DFF80C00016841F43B
:1001F00070010160704700BF88ED00E0EFF30980F7
:10020000BFF36F8F134B1A681EF0100F08BF20ED5D
:10021000108A20E9F04F106009B44FF0500080F3CD
:100220001188BFF34F8FBFF36F8F07F029F94FF09D
:10023000000080F3118809BC19680868B0E8F04F25
:100240001EF0100F08BFB0EC108A80F30988BFF3CE
:100250006F8F704710000020EFF30580704700009B
:100260000648804706480047FEE7FEE7FEE7FEE750
:10027000FEE7FEE7FEE7FEE7FEE7FEE7395000088F
:10028000890100082DE9F05F0546002092469B4653
:1002900088460646814640241BE02846414647469C
:1002A000224600F06AF853465A46C01A914110D3CC
:1002B00011461846224600F051F82D1A67EB010846
:1002C0004F4622460120002100F048F817EB0009B4
:1002D0004E41201EA4F10104DFDC484631462A4687
:1002E0004346BDE8F09F40EA01039B0703D009E0C5
:1002F00008C9121F08C0042AFAD203E011F8013B12
:1003000000F8013B521EF9D27047D2B201E000F86A
:10031000012B491EFBD270470022F6E710B51346A9
:100320000A4604461946FFF7F0FF204610BD421C5E
:1003300010F8011B0029FBD1801A704770B5054CDD
:10034000054D03E0206820448047241DAC42F9D1CC
:1003500070BD00000489000808890008202A04DB19
:10036000203A00FA02F1002070479140C2F12003C8
:1003700020FA03F3194390407047202A04DB203A07
:1003800021FA02F00021704721FA02F3D040C2F1B5
:10039000200291400843194670470000064C074D63
:1003A00006E0E06840F0010394E807009847103445
:1003B000AC42F6D3FFF7ECFEE4880008048900089D
:1003C0000A480B4A0168914203DD40F6B832914277
:1003D00000DB02600748084A0168914203DD40F2F1
:1003E0004C42914200DB0260704700000C0100208B
:1003F00060F0FFFF10010020E0FCFFFFFEE70000BF
:10040000014800F02DBB0000803E0020014800F0B4
:1004100027BB0000803E002010B5002958D0826B19
:100420004FF4D873046803EB0113E45814F0040488
:1004300094600468E4584DD0E40854600468E358BC
:1004400003F00203D3604FF4DA73046803EB011383
:10045000E45804F00F04146111620468E358C3F314
:100460000723D3614FF4DC73046803EB0113E458F2
:1004700014750468E458240A54750468E458240C7C
:1004800094750468E3581B0ED3754FF4DE7304684B
:1004900003EB0113E45814760468E458240A5476F4
:1004A0000468E458240C94760468E3581B0ED37651
:1004B0000368202289B11A610268536923F050034E
:1004C000536190F83C20222A0DD0322A0BD00FE045
:1004D000426BA5E7640D1460B0E7DA600268536907
:1004E00023F00A03ECE70268536923F40F435361D6
:1004F00012220123002990F83C1006D0522915D071
:10050000622916D0722906D115E042290ED062293F
:1005100008D0722908D080F83C3000BF00F0A2FD5E
:10052000002010BD322107E0522105E080F83C2078
:10053000F4E7222100E0422180F83C10EEE70000C1
:1005400010B50A88C2F30A02A2F5806202804A78D6
:100550008B78D20842EA4312C2F30A02A2F5806203
:1005600042808A78CB78920942EA83020B7942EA88
:100570008322C2F30A02A2F5806282800A794B7953
:10058000520842EAC312C2F30A02A2F58062C28094
:100590004A79920902724A79C2F301124272CA88F8
:1005A00042810A8982814A89C2810A7B02744A7B1C
:1005B0004274C989418201F0E7FB044908604A6836
:1005C000821AB2F5FA7F00D9486010BD0001002000
:1005D00070B504F01FFC184CB4F9900100EE100A3D
:1005E0001648B8EEC00AD0ED000A1548F8EEE00A49
:1005F00006F030F8134DB5F9000000EE100AB4F91A
:100600000000F8EEC00A00EE100A0F48B8EEC00A6B
:1006100006F020F8B5F9020000EE100AB4F9640003
:10062000BDE87040F8EEC00A00EE100A0648B8EEC9
:10063000C00A6C3006F00EB85044002014010020AF
:10064000744A0020A8000020C4480020014800F09F
:10065000D9BE000040430020014800F0D3BE000096
:10066000A0430020014800F0CDBE0000E042002081
:10067000014800F0C7BE000020420020014800F001
:10068000C1BE000004400020014800F0BBBE0000D5
:100690008042002001681823CAB2103AB2FBF3F27C
:1006A000054B6FF30901032A9B5CC36500D9091D43
:1006B0008165084670470000B083000810B5014608
:1006C00000208B698A6A4FF0C07453B1B3F5005FA4
:1006D00015D072B1012A0CD0022A0AD0032A09D1FE
:1006E00004E01AB1012A06D0022A03D1C96AC9015D
:1006F00000D5012010BDC96AA142FAD010BD002A60
:10070000F7D0012AF2D0022AF3D0032AF3D010BD89
:1007100030B50468256825F4802525600468636089
:100720008368402B036803D099600068C26030BDC5
:100730009A600068C16030BD704710B54FF480709A
:1007400001F090F9BDE810404FF4007001F08AB953
:10075000FEE7000010B558B1084C491E0BD310F845
:10076000013B5340DBB234F8133083EA1222F4E742
:100770004FF6FF7010BD104610BD00000485000844
:100780002DE9F047FFF71CFE3148354D9FED311A3A
:10079000816805F50770DFED300A304CDFF8C49052
:1007A00047F2305205F5A27800F5A27600F1D8079D
:1007B00071B3012949D10A239FED2B0A0321384641
:1007C00004F0D8F9B4F9C80000EE100A2748B8EED2
:1007D000C00AD0ED010AF8EEE00A384605F03AFF0B
:1007E00094ED5E0AD9ED000A4046B8EEC00AF8EE74
:1007F000E00A05F02FFFB4F92C01D5ED600A00EEF8
:10080000100A3046BDE8F047B8EEC00A05F022BF36
:10081000B0EE000A0A230321384604F0ABF914486D
:1008200094ED450AD0ED000A0D48B8EEC00AF8EE86
:10083000E00AD83005F00EFFB4F9C800D5ED450A3E
:1008400000EE100AB8EEC00AC7E7BDE8F087000066
:1008500084460020000000009A99193F504400206F
:10086000A84600201001002000002A43BC00002000
:100870000C0100200B480D49D0F814210A48B2F5AC
:100880002F6F05DB6FF01D0242604FF4C87007E068
:1008900040F6AC53DA4204DC1E2242604FF42F7063
:1008A0000860704750440020BC0000201001002068
:1008B00010B548690C461B2804D940F26D1154A0AC
:1008C00005F097FDA06930B1012804D04FF4B7714D
:1008D0004FA005F08EFDE06930B1012804D040F250
:1008E0006F114BA005F085FD206930B1012804D0BF
:1008F0004FF4B87146A005F07CFD206A30B10128A4
:1009000004D040F2711142A005F073FD606A1C280A
:1009100004D94FF4B9713EA005F06BFD207D012193
:1009200081404948D0F8002242F00102C0F800227C
:10093000D0F8002222F47C52C0F80022D0F8002225
:10094000636A42EA0322C0F80022D0F81C228A43DC
:10095000C0F81C22E269B2B9D0F80C228A43C0F870
:100960000C22A389626863F31F42636900EBC3032F
:10097000C3F840222389226863F31F42636900EBB6
:10098000C303C3F84422E269012A16D1D0F80C222D
:100990000A43C0F80C222388626863F31F4263692C
:1009A00000EBC303C3F840222389E26863F31F42CC
:1009B000636900EBC303C3F84422A269002AD0F89C
:1009C000042206D052EA0102C0F80422226912B1C0
:1009D00006E08A43F8E7D0F814228A43C0F81422CC
:1009E0002269012A04D1D0F814220A43C0F8142243
:1009F000226A012A04D1D0F81C220A43C0F81C2222
:100A0000D0F8001221F00101C0F80012002010BD42
:100A10002E2E2F447269766572732F53544D3332E4
:100A2000463478785F48414C5F4472697665722F2E
:100A30005372632F73746D3332663478785F6861F4
:100A40006C5F63616E2E63000064004003480068C1
:100A5000416941F00201416170470000803E002081
:100A60002DE9F041044600680026C168C1F3001377
:100A70004169C1F3C002102113B10AB14E01C16036
:100A8000206802694369C2F30012C3F380131AB1EC
:100A900013B146F480660161216848694FF0010591
:100AA000C043C0074ED18A687648904323D00020C7
:100AB0008B68754A9A4320D000228F68734BBB43E2
:100AC0001DD00023104318433CD088688A68C0F3C7
:100AD00040008B68C2F34022C3F3404310431843E5
:100AE00029D04A69204622F001024A6194F83C105C
:100AF000122906D00AE00120DAE70122DDE701230E
:100B0000E0E701684A6922F40F424A6190F83C101C
:100B1000422908D0522908D0722908D080F83C50C8
:100B200000F016FC09E0222102E0322100E06221FF
:100B300080F83C10F4E746F4006620688168544A67
:100B4000114381602168C868496910F0030FC1F33F
:100B5000400104D019B100212046FFF75DFC216857
:100B60000869496910F0030FC1F3001104D019B1ED
:100B700001212046FFF750FC206C304320642068A0
:100B80008169426911F0010F4369C2F30022C3F386
:100B9000C03305D022B11BB1216C41F001012164A9
:100BA0008169C1F340034169C1F340224169C1F346
:100BB000C0312BB122B119B1216C41F00201216485
:100BC0008169C1F3800341694269C1F38021C2F3A5
:100BD000C0322BB121B11AB1216C41F00401216462
:100BE000816911F0700F08D000224169C1F3C02360
:100BF0004169C1F3C03112B121E00122F5E7F3B13F
:100C0000E9B1816901F0700140292FD006DC10297B
:100C100009D020290BD030290DD123E0502929D02B
:100C2000602908D12AE0216C41F0080102E0216C22
:100C300041F010012164816921F070018161206C13
:100C400000280DD021680420486084F83C502068BA
:100C5000416948F65B72914341612046FFF7F6FE19
:100C6000BDE8F081216C41F02001E3E7216C41F007
:100C70004001DFE7216C41F08001DBE7216C41F4AA
:100C80008071D7E703000004000300080000031090
:100C9000190501002DE9F041040077D0884920684A
:100CA000884206D08749884203D0B92186A005F042
:100CB000A0FBA06928B1012803D0BA2182A005F0C9
:100CC00098FBE06928B1012803D0BB217EA005F084
:100CD00090FB206A28B1012803D0BC217AA005F03E
:100CE00088FB606A28B1012803D0BD2176A005F0F9
:100CF00080FBA06A28B1012803D0BE2172A005F0B4
:100D000078FBE06A28B1012803D0BF216EA005F06E
:100D100070FBA06860B1B0F1804F09D0B0F1004F16
:100D200006D0B0F1404F03D0C02167A005F061FBB1
:100D3000E06860B1B0F1807F09D0B0F1007F06D0EB
:100D4000B0F1407F03D0C1215FA005F052FB2069C4
:100D5000B0F5702F03D9C2215BA005F04AFB606992
:100D6000B0F5E00F03D9C32157A005F042FB60683E
:100D7000401EB0F5806F03D3C42153A005F039FBAA
:100D800094F83C00002520B108E0FFE70120BDE811
:100D9000F08184F83D50204600F0B2F8022084F83B
:100DA0003C002068016821F00201016020680168B0
:100DB00041F00101016000F0E7FF0746032604E06F
:100DC00000F0E2FFC01B0A2863D820684068C00713
:100DD000F6D020684168C90768D0A1690129016877
:100DE0003FD021F080010160E0690128206801689E
:100DF0003AD021F040010160206A01282068016892
:100E000035D021F020010160606A01282068016866
:100E100030D021F010010160A06A0128206801682B
:100E20002BD021F008010160E06A012820680168E8
:100E300026D021F004010160D4E902010843D4E97D
:100E40000412114308436168491E08432168C861C0
:100E50002068016821F00101016000F095FF07465C
:100E60001CE041F08001BEE741F04001C3E741F0E2
:100E70002001C8E741F01001CDE741F00801D2E7B9
:100E800041F00401D7E700BF00F07EFFC01B0A2835
:100E900004D904F83C6F0320657078E72068406847
:100EA000C007F1D120684068C00703D0042084F84F
:100EB0003C006BE72564012084F83C00002066E7D5
:100EC00000640040006800402E2E2F447269766551
:100ED00072732F53544D3332463478785F48414C07
:100EE0005F4472697665722F5372632F73746D332A
:100EF00032663478785F68616C5F63616E2E630080
:100F000000B50068164987B0884227D115480021EE
:100F1000026842F000720260006800F00070059004
:100F20004FF4C05000900220CDE90101032003904E
:100F30000920049069460C4800F0A0FD002205211C
:100F4000132000F0D1FF132000F09CFF00220521A8
:100F5000142000F0C9FF142000F094FF07B000BD7A
:100F600000640040403802400000024070B50D00AF
:100F7000044610D0012D05D040F2F3312BA005F02E
:100F800038FA18E094F83C00322828D094F83C0055
:100F9000522824D007E094F83C0022281FD094F86F
:100FA0003C0042281BD094F83C00622817D094F8EB
:100FB0003C00722813D094F83D0001280FD0012086
:100FC00084F83D00622094F83C2072214DB1122A31
:100FD00011D0222A10D0422A11D032200CE0022057
:100FE00070BD122A05D0322A06D0522A07D02220FC
:100FF00002E0422000E0522084F83C0001E084F846
:101000003C100020206421684A6948F601731A43A5
:101010004A6184F83D002068416925B141F05001E2
:101020004161002070BD41F00A01F9E72E2E2F44E6
:101030007269766572732F53544D33324634787823
:101040005F48414C5F4472697665722F5372632F1B
:1010500073746D3332663478785F68616C5F636196
:101060006E2E630070B5214C05462068401C206040
:1010700000F08AFE6168401AB0F5FA7F02D900F0EC
:1010800083FE6060686B1A4A0068A0F2012008289D
:1010900021D2DFE800F0181B2020200C2704D2F812
:1010A0002811481CC2F828011148C83005E0D2F8C0
:1010B0008C11481CC2F88C010E483229294608D8E8
:1010C00005F0C1F907E02946094802E00848294629
:1010D000643005F08FF908480068416941F0020169
:1010E000416170BD034821686430E6E7A00000203C
:1010F000504400207C450020803E00202DE9F05F18
:101100000446006B0F46806830B1042804D04FF4C9
:101110000E717EA005F06DF9206BC06830B1022819
:1011200004D040F2392179A005F063F9206B006901
:10113000082804D940F23A2174A005F05AF9206831
:101140008168490105D48168090102D48168C90018
:101150007ED594F83D1001290DD04FF0010884F898
:101160003D8094F83C10222908D0322908D0622909
:101170000ED0122105E00220BDE8F09F422100E0E0
:10118000522184F83C108168490103D5002507E00D
:101190007221F6E78168090101D5012500E00225E9
:1011A0004FF4C07101EB0516815901F00101815125
:1011B000206B816800294FD04068B0F1005F04D3F4
:1011C0004FF41B7151A005F014F921688A59206B66
:1011D00083681A43C368406843EAC00002438A51E7
:1011E000206B017C01F00F0101614FF4C270216896
:1011F00000EB05100A5822F00F020A5021680A5825
:10120000236B1B691A430A50206B4FF4C47202EB24
:101210000512017DD0F8150041EA002021688850B0
:10122000206B4FF4C67202EB0512017ED0F8190054
:1012300041EA0021206881502068815941F0010174
:10124000815100F0A1FD81460026DFF8F8A000E002
:1012500057E0DFF8F4B02EE00068B0F5006F04D37B
:1012600040F2662129A005F0C4F820688259216B5C
:10127000CB6809881A4342EA41518151B0E7781C92
:1012800019D02FB100F080FDA0EB0900B84212D9AF
:10129000032084F83C004DB1012D09D04FF400002B
:1012A0002168886084F83D60032065E78020F7E7C7
:1012B0004FF40040F4E78DB12068012D816812D011
:1012C000224888430028DAD194F83C0042280DD007
:1012D00052280DD0722812D040460AE0206881685A
:1012E0002AEA0100EEE72BEA0100EBE7222000E00A
:1012F000322084F83C0084F83D6000203CE7622006
:10130000F7E7042084F83C00012035E72E2E2F4417
:101310007269766572732F53544D33324634787840
:101320005F48414C5F4472697665722F5372632F38
:1013300073746D3332663478785F68616C5F6361B3
:101340006E2E630003000004000300080000031079
:1013500070472DE9F0410446876D00F015FD064603
:1013600094F835000025022806D08020606584F8B6
:1013700034500120BDE8F0812068016821F0160199
:1013800001602068416921F080014161206C08B949
:10139000A06C20B12068016821F00801016020687C
:1013A000016821F0010101600BE000F0EDFC801B01
:1013B000052806D92020606504F8345F032060709A
:1013C000D8E720680068C007EFD194F85C103F2090
:1013D0008840B86004F8345F012060700020C9E7DD
:1013E00090F83510022903D0802141650120704713
:1013F000052180F835100068016821F001010160C5
:10140000002070472DE9F84304464FF00009CDF85D
:10141000009063484FF41651A56D0068B0FBF1F7DA
:101420002E6894F85C10082000FA01F131420FD0C8
:1014300021680A6852070BD50A6822F004020A6084
:1014400094F85C108840A860606D40F00100606511
:1014500094F85C104FF0010808FA01F0304208D00F
:1014600021684969090604D5A860606D40F0020052
:10147000606594F85C1004208840304208D02168F0
:101480000968890704D5A860606D40F004006065B4
:1014900094F85C1010208840304218D02168096808
:1014A000090714D5A86020680168490304D50068BD
:1014B000000308D5A16C07E00168C90503D40168E1
:1014C00021F008010160216C09B12046884794F899
:1014D0005C1020208840304231D021680968C9065C
:1014E0002DD5A86094F8350005282068016806D03D
:1014F000490347D5006800031DD4616C1CE021F04E
:10150000160101602068416921F080014161206C71
:1015100008B9A06C20B12068016821F008010160C1
:1015200094F85C103F208840A86084F8349084F8D8
:101530003580216D1FE0E16B09B120468847606D61
:1015400000282BD0606DC00714D0052084F835002A
:101550002068016821F0010101600098401C0090A2
:10156000B84203D820680068C007F6D184F83490E8
:1015700084F83580E16C002910D001B02046BDE828
:10158000F04308470168C905D5D4016821F010016E
:10159000016084F8349084F83580CCE7BDE8F883A6
:1015A0000C0000202DE9F041044600F0EDFB05465B
:1015B000002C7CD0A249206888423ED0A049183136
:1015C00088423AD09E493031884236D09C494831D1
:1015D000884232D09A49603188422ED09849783179
:1015E00088422AD096499031884226D09449A83121
:1015F000884222D0934988421FD0924918318842AC
:101600001BD090493031884217D08E4948318842EA
:1016100013D08C49603188420FD08A497831884292
:101620000BD088499031884207D08649A83188423A
:1016300003D0B82184A004F0DCFE6068C0B1B0F132
:10164000007F15D0B0F1806F12D0B0F1C06F0FD015
:10165000B0F1006F0CD0B0F1206F09D0B0F1406F45
:1016600006D0B0F1606F03D0B92177A004F0C1FEBD
:10167000A06838B1402805D0802803D0BA2172A0D4
:1016800004F0B7FEE068B0F5007F04D018B1BB21CC
:101690006DA004F0AEFE2069B0F5806F04D018B1E3
:1016A000BC2169A004F0A5FE606958B100E071E0BA
:1016B000B0F5006F06D0B0F5805F03D0BD2162A009
:1016C00004F097FEA06948B1B0F5005F06D0B0F510
:1016D000804F03D0BE215CA004F08BFEE06940B1D6
:1016E000B0F5807F05D0202803D0BF2156A004F09C
:1016F00080FE206A60B1B0F5803F09D0B0F5003FB0
:1017000006D0B0F5403F03D0C0214FA004F071FED9
:10171000606A002832D0042806D0C1214AA004F013
:1017200068FE606A002829D0A06A48B1012807D065
:10173000022805D0032803D0C62143A004F059FE97
:10174000E06A60B1B0F5000F09D0B0F1807F06D03B
:10175000B0F1C07F03D0C7213BA004F04AFE206B4C
:1017600060B1B0F5001F09D0B0F5800F06D0B0F51C
:10177000C00F03D0C82134A004F03BFE002684F83B
:101780003460022084F835002068016821F00101EE
:1017900001600EE00120BDE8F08100BF00F0F4FA26
:1017A000401B052805D920206065032084F83500FA
:1017B000F1E720680068C007F0D12268116830485E
:1017C0000140D4E901031843D4E903352B431843FE
:1017D00063691843A3691843E3691843236A1843EC
:1017E0000843616A042903D1D4E90B131943084360
:1017F000106020684069656A20F0070128460D43A3
:10180000012704280CD1A06A0543E06A40B12046B4
:10181000FEF754FF20B14020606584F83570B9E7C9
:10182000206845612046FEF735FF94F85C203F2193
:1018300091408160666584F835700020ABE7000058
:1018400010600240106402402E2E2F4472697665AB
:1018500072732F53544D3332463478785F48414C7D
:101860005F4472697665722F5372632F73746D33A0
:1018700032663478785F68616C5F646D612E6300F6
:101880003F8010F02DE9F041884604460025581E9F
:101890004FF6FF711E461746884204D340F29D1151
:1018A00013A004F0A6FD94F8340001280DD0012007
:1018B00084F8340094F835100020012907D084F80A
:1018C000340002252846BDE8F0810220FBE7022112
:1018D00084F83510606533463A4641462046FEF7A7
:1018E00017FF2068016841F001010160EAE700008C
:1018F0002E2E2F447269766572732F53544D3332F6
:10190000463478785F48414C5F4472697665722F3F
:101910005372632F73746D3332663478785F686105
:101920006C5F646D612E63002DE9F04789460446C3
:10193000876D0025581E4FF6FF711E46904688425F
:1019400004D34FF4E6711EA004F053FD94F8340064
:1019500001280DD0012084F8340094F835100020BF
:10196000012907D084F8340002252846BDE8F08715
:101970000220FBE7022184F83510606533464246B9
:1019800049462046FEF7C4FE94F85C103F2088408C
:10199000B8602068016841F0160101602068416963
:1019A00041F080014161206C20B12068016841F064
:1019B000080101602068016841F001010160D4E77D
:1019C0002E2E2F447269766572732F53544D333225
:1019D000463478785F48414C5F4472697665722F6F
:1019E0005372632F73746D3332663478785F686135
:1019F0006C5F646D612E63002DE9F041B0F5807F6E
:101A000002D0B0F5007F1FD1114C12480127124DB2
:101A1000002627618660B5F9000040F2CE7200F220
:101A2000E73191420BD96169012908D10B496661FF
:101A300008600B49B5F90200086003F041F9B5F9F7
:101A40000000002802DDE760BDE8F081E660FBE70A
:101A50008446002084000020A8000020B40000205C
:101A6000B8000020044910B50A68024202D008609C
:101A7000FFF7C2FF10BD0000143C01402DE9F84FF4
:101A80000446A0480D4684421BD09F48844218D08B
:101A90009E48844215D09E48844212D09D4884427C
:101AA0000FD09D4884420CD09C48844209D09C4869
:101AB000844206D09B48844203D0B3219AA004F00C
:101AC00098FC28680104090C01D0000C03D0B42153
:101AD00095A004F08EFC6868F8B101281DD011288B
:101AE0001BD0022819D0122817D09E49884214D042
:101AF0009D49884211D09D4988420ED09C49884218
:101B00000BD09C49884208D09B49884205D00328C5
:101B100003D0B52184A004F06CFCA86838B101287A
:101B200005D0022803D0B6217FA004F062FC002675
:101B30004FF0010B0BFA06F02F688246074057451D
:101B40007ED16868022801D012282ED12869F8B108
:101B500009281DD001281BD0022819D0032817D02E
:101B6000042815D0052813D0062811D007280FD037
:101B700008280DD00A280BD00B2809D00C2807D034
:101B80000D2805D00F2803D0C72167A004F031FC31
:101B9000F00804EB8002106A7107CB0E0F21994008
:101BA000884329699940014311622068720003212A
:101BB00001FA02F82979914601F0030120EA0800B0
:101BC00001FA09F1014321606868012805D0022863
:101BD00003D0112801D012281CD1E86848B101288F
:101BE00007D0022805D0032803D0DA214EA004F044
:101BF00000FCA068E96820EA080001FA09F1014345
:101C0000A1606068297920EA0A00C1F30011B1409F
:101C100001436160E068A96820EA080001FA09F15F
:101C20000143E1606868C00065D55448016841F42B
:101C300080410160006826F0030100F4804000E06C
:101C400059E000904E480A18D2F80808B1070B0F67
:101C50000F21994088432B498C4201D1002123E078
:101C600029498C4201D101211EE028498C4201D131
:101C7000022119E026498C4201D1032114E02549B3
:101C80008C4201D104210FE023498C4201D105216E
:101C90000AE022498C4201D1062105E020498C420C
:101CA00001D1072100E0082199400143C2F808183A
:101CB000344908686A68B843D20300D538430860DD
:101CC0003049091D08686A68B843920300D5384353
:101CD00008602C49083108686A68B843D20200D508
:101CE0003843086027490C3108686A68B843920293
:101CF00000D538430860761C102EFFF41BAFBDE8FA
:101D0000F88F00000000024000040240000802407A
:101D1000000C024000100240001402400018024073
:101D2000001C0240002002402E2E2F44726976656E
:101D300072732F53544D3332463478785F48414C98
:101D40005F4472697665722F5372632F73746D33BB
:101D500032663478785F68616C5F6770696F2E6394
:101D600000000000000011100000211000003110E0
:101D7000000012100000221000003210443802400F
:101D800000300140003C014001488068704700007D
:101D90000000002002488168027811448160704789
:101DA000000000200B4810B5016841F4007101608B
:101DB000016841F480610160016841F48071016053
:101DC000032000F0E1F8002000F006F800F03EF8F3
:101DD000002010BD003C024010B5014688B0002232
:101DE000362000F081F8362000F04CF8134800242B
:101DF000016841F010010160006805A900F01000C1
:101E00000690684600F024FA00F042FA0C494000BF
:101E1000B0FBF1F10C480B4A491E026040F2E73278
:101E2000C0E90324C0E9011400F03EFD10B1012017
:101E300008B010BD044800F0A1FEF9E740380240A8
:101E400040420F0000100040104400200C4882B0B7
:101E5000016841F480410160006800F48040009016
:101E60000748001F016841F08051016000680022AE
:101E700000F0805000900F21901E02B000F034B8A6
:101E80004438024010B5040003D5BE2107A004F079
:101E9000B0FA002C09DB04F01F0101208840610921
:101EA000890001F1E021C1F8000110BD2E2E2F4460
:101EB0007269766572732F53544D33324634787895
:101EC0005F48414C5F4472697665722F5372632F8D
:101ED00073746D3332663478785F68616C5F636FFA
:101EE000727465782E63000070B515460C46064680
:101EF000102A03D3AA2114A004F07BFA102C03D3D8
:101F0000AB2111A004F075FA1E480068C0F302234B
:101F1000C3F107022046042A00D90422191D07290B
:101F200001D2002300E0DB1E012404FA02F1491E65
:101F3000014099409C40641E2C4021433046BDE83E
:101F4000704004F093B900002E2E2F44726976651C
:101F500072732F53544D3332463478785F48414C76
:101F60005F4472697665722F5372632F73746D3399
:101F700032663478785F68616C5F636F727465781D
:101F80002E6300000CED00E010B5044607280BD0CE
:101F9000062C09D0052C07D0042C05D0032C03D027
:101FA000922108A004F025FA154904F007020868F8
:101FB0004FF6FF03184040EA0220124A104308601F
:101FC00010BD00002E2E2F447269766572732F5358
:101FD000544D3332463478785F48414C5F447269DF
:101FE0007665722F5372632F73746D333266347853
:101FF000785F68616C5F636F727465782E63000050
:102000000CED00E00000FA052DE9F0470E46040053
:102010007DD02068401E0E2804D94FF410717AA09C
:1020200004F0E7F996B1012E10D0022E0ED0032E47
:102030000CD0042E0AD0052E08D0062E06D0072E6E
:1020400004D040F2412170A004F0D3F9DFF8F08110
:10205000D8F80000F7B200F00F00B04207D288F8BD
:102060000070D8F8000000F00F00B0424FD1206897
:10207000744D810729D5400703D5286840F4E05006
:1020800028602078000703D5286840F46040286065
:10209000A068A0B1802812D0902810D0A0280ED01F
:1020A000B0280CD0C0280AD0D02808D0E02806D00C
:1020B000F02804D04FF4197153A004F09AF928685D
:1020C000A16820F0F000084328602078C00743D0C2
:1020D000DFF870916068A9F1080988B1012822D061
:1020E000022824D0032822D040F26B2146A004F01D
:1020F00080F96068012816D0022818D0032816D06D
:10210000D9F800008007002833DA286800E030E0C2
:10211000616820F0030008432860FFF735FE814620
:1021200041F2883A11E0D9F800008003EBE7D9F8D2
:1021300000008001E7E700BFFFF726FEA0EB0901E2
:10214000514502D90320BDE8F0872868616800F096
:102150000C00B0EB810FEFD1D8F80010404601F031
:102160000F01B14207D90770006800F00F00B042BC
:1021700001D00120E7E720784FF4805640074FF464
:10218000A0574FF4C0584FF4E05914D5E06860B13F
:10219000B0420AD0B84208D0404506D0484504D0E5
:1021A00040F2A92118A004F024F92868E16820F47D
:1021B000E050084328602078000715D5206960B1F9
:1021C000B0420AD0B84208D0404506D0484504D0B5
:1021D0004FF42C710CA004F00CF92868216920F44C
:1021E000604040EAC100286000F072F82968164A91
:1021F000C1F30311515CC840144908600020FFF787
:10220000EBFD00209FE700002E2E2F4472697665BB
:1022100072732F53544D3332463478785F48414CB3
:102220005F4472697665722F5372632F73746D33D6
:1022300032663478785F68616C5F7263632E630026
:10224000003C024008380240B88300080C0000201F
:102250000F2202600C4A136803F003034360136803
:1022600003F0F0038360136803F4E053C360126863
:102270004FF4E05303EAD20202610448006800F020
:102280000F0008607047000008380240003C024020
:102290000448054900680968044AC1F38221515C79
:1022A000C84070470C00002008380240C88300086E
:1022B0000448054900680968044AC1F34231515C89
:1022C000C84070470C00002008380240C88300084E
:1022D000154810B5006810F00C02144813D04110D6
:1022E000042A0FD0082A0ED10F4C241F226823681D
:1022F00002F03F025B0207D52068C0F38810A0FB04
:10230000010106E0084610BD2168C1F38811A1FB58
:1023100000010023FDF7B6FF2168C1F30141491C0C
:102320004900B0FBF1F010BD083802400024F40071
:102330002DE9F84F04007DD020680F2803D9E8214B
:10234000F2A004F056F82078DFF8F8B3FE4DC0078D
:1023500056D060684FF480364FF4A02738B1B042B1
:1023600005D0B84203D0ED21E8A004F042F8DBF834
:1023700000105846C1F38101012909D00068C0F35B
:10238000810002280BD1EF48001F0068400206D5EB
:102390002868800334D560680028CCD030E06068BD
:1023A000B04203D1286840F480300CE0B84228687D
:1023B00003D140F480202860F4E720F480302860C6
:1023C000286820F480202860606860B1FFF7DCFC9A
:1023D000064604E0FFF7D8FC801B64287ED82868F6
:1023E0008003F7D50CE0FFF7CFFC064605E000BF01
:1023F000FFF7CAFC801B6428F0D828688003F7D454
:102400002078DFF8488380074FF0000956D5E06850
:1024100030B1012804D040F21F11BCA003F0E9FF45
:1024200020691F2804D94FF49071B8A003F0E1FF90
:10243000584600E092E0DBF8001011F00C0F09D0D4
:102440000068C0F38100022811D1BE48001F006857
:1024500040020CD42868800702D5E06801287DD1AD
:102460002868216920F0F80040EAC10016E0E06821
:10247000B0B10120C8F80000FFF786FC064604E072
:10248000FFF782FC801B0228A8D828688007F7D5B0
:10249000286820F0F801206941EAC00028600DE0BA
:1024A000C8F80090FFF770FC064604E0FFF76CFCEC
:1024B000801B022892D828688007F7D4207800076C
:1024C0002ED5A04EA24F60696C36D0B1012808D03D
:1024D0004FF4B0718DA003F08CFF00E04DE1606916
:1024E00078B101203860FFF74FFC074605E000BFD8
:1024F000FFF74AFCC01B0228C6D830688007F7D512
:102500000EE0C7F80090FFF73FFC074605E000BF6C
:10251000FFF73AFCC01B0228B6D830688007F7D412
:102520002078400776D5A068002740B1012806D062
:10253000052804D04FF4C67174A003F05AFFDFF8E9
:1025400004A20AF1380ADAF80000C0000DD4DAF863
:10255000001041F08051CAF8001000E0D4E0DAF831
:102560000000012700F0805000907A4E3068C005CE
:1025700011D4306840F480703060FFF705FC0090A3
:1025800006E000BFFFF700FC0099401A022891D82E
:102590003068C005F6D56B4EA068683601280FD0AC
:1025A0000528306810D020F001003060306820F03D
:1025B00004003060A068B8B1FFF7E6FB00900FE0C0
:1025C000306840F00100F4E740F004003060F7E7C5
:1025D000FFF7DAFB0099411A41F2883081428BD82B
:1025E00030688007F4D50EE0FFF7CEFB009007E0DF
:1025F000FFF7CAFB0099411A41F2883081428BD81B
:1026000030688007F4D42FB1DAF8001021F080513F
:10261000CAF80010A069002875D0012809D0022846
:1026200007D040F2CF1139A003F0E3FEA0690028E3
:10263000F2D0DBF80000C0F38100022864D0A0696A
:10264000022805D0C8F86090FFF79EFB044697E08B
:10265000E06938B1B0F5800F04D04FF4EC712BA0D5
:1026600003F0C7FE206A3F2804D940F2D91127A001
:1026700003F0BFFE606A3238B0F5BF7F04D94FF473
:10268000ED7122A003F0B5FEA06A02280AD004284A
:1026900008D0062806D0082804D040F2DB111BA081
:1026A00003F0A7FEE06A801E0D2804D94FF4EE71F6
:1026B00016A003F09EFE4746C8F86090FFF764FB43
:1026C000064604E0FFF760FB801B022855D8286807
:1026D0008001F7D4D4E907010843A16A1E4A4908DA
:1026E00002EB0141626A41EA8211084394F82C101E
:1026F00040EA01611348001F016001203866FFF7BE
:1027000043FB04462FE03EE03FE000002E2E2F4426
:102710007269766572732F53544D3332463478782C
:102720005F48414C5F4472697665722F5372632F24
:1027300073746D3332663478785F68616C5F72638E
:10274000632E630008380240003802400000474210
:10275000800E4742007000400000FFFFFFF714FBAF
:10276000001B022809D828688001F7D50BE000BFBC
:10277000FFF70AFB001B022802D90320BDE8F88FEF
:1027800028688001F4D40020F8E70120F6E77047BC
:102790007047000070B50D46044600682C49884219
:1027A00019D0B0F1804F16D02A49884213D02A4957
:1027B000884210D0294988420DD0294988420AD040
:1027C0002849884207D02849884204D040F26161F4
:1027D00026A003F00EFE286890B1102810D0202803
:1027E0000ED030280CD040280AD0502808D06028BD
:1027F00006D0702804D040F262611CA003F0F9FDFD
:102800006868802805D020B140F2636117A003F00A
:10281000F0FD94F83C00012818D0012304F83C3F57
:102820000220607054F83C1C48688A6820F07006EA
:102830002868304322F080066A684860324354F8C2
:102840003C0C826063700020207070BD022070BD5F
:10285000000001400004004000080040000C00405F
:102860000010004000140040000401402E2E2F44B0
:102870007269766572732F53544D333246347878CB
:102880005F48414C5F4472697665722F5372632FC3
:1028900073746D3332663478785F68616C5F746925
:1028A0006D5F65782E63000010B5040058D036487F
:1028B000226882422BD0B2F1804F28D03348824226
:1028C00025D03348824222D0324882421FD032483B
:1028D00082421CD03148824219D03148824216D0FF
:1028E0003048824213D03048824210D02F48824272
:1028F0000DD02F4882420AD02E48824207D02E485F
:10290000824204D04FF485712CA003F072FDA068C0
:1029100060B110280AD0202808D0402806D06028AE
:1029200004D040F20B1125A003F063FD206950B1E3
:10293000B0F5807F07D0B0F5007F04D04FF48671EA
:102940001EA003F056FDA06930B1802804D040F2EB
:102950000D111AA003F04DFD94F83D0010B107E0F1
:10296000012010BD002084F83C00204600F042F811
:10297000022084F83D00211D206802F099FB01200F
:1029800084F83D00002010BD00000140000400401C
:1029900000080040000C00400010004000140040FF
:1029A0000004014000400140004401400048014053
:1029B00000180040001C0040002000402E2E2F4434
:1029C0007269766572732F53544D3332463478787A
:1029D0005F48414C5F4472697665722F5372632F72
:1029E00073746D3332663478785F68616C5F7469D4
:1029F0006D2E630008B501681F48B1F1804F11D0FA
:102A00001E4A914216D1016841F00201016000683E
:102A1000002200F00200009005211D20FFF764FA5B
:102A20001D2024E0016841F001010160006800F010
:102A3000010009E0124A914208D1016841F0040105
:102A40000160006800F00400009008BD0D4A91424A
:102A5000FBD1016841F0080101600068002200F02C
:102A60000800009005213220FFF73EFA3220BDE831
:102A70000840FFF707BA0000403802400004004059
:102A800000080040000C004010B5044601682048D2
:102A900081422BD0B1F1804F28D01E48814225D0F1
:102AA0001D48814222D01D4881421FD01C488142CE
:102AB0001CD01C48814219D01B48814216D01B48AB
:102AC000814213D01A48814210D01A4881420DD059
:102AD000194881420AD01948814207D018488142DA
:102AE00004D040F27D1117A003F083FC022084F88B
:102AF0003D002068816801F00701062903D00168C4
:102B000041F001010160012084F83D00002010BD6A
:102B1000000001400004004000080040000C00409C
:102B2000001000400014004000040140004001403B
:102B3000004401400048014000180040001C0040D3
:102B4000002000402E2E2F447269766572732F5339
:102B5000544D3332463478785F48414C5F44726953
:102B60007665722F5372632F73746D3332663478C7
:102B7000785F68616C5F74696D2E630010B5044600
:102B80000168204881422BD0B1F1804F28D01E48E7
:102B9000814225D01D48814222D01D4881421FD04C
:102BA0001C4881421CD01C48814219D01B488142DC
:102BB00016D01B48814213D01A48814210D01A48BF
:102BC00081420DD0194881420AD01948814207D06C
:102BD0001848814204D040F2B11117A003F009FC5B
:102BE0002068C16841F00101C1602068816801F07E
:102BF0000701062903D0016841F0010101600020AE
:102C000010BD00000000014000040040000800402A
:102C1000000C00400010004000140040000401407F
:102C200000400140004401400048014000180040BD
:102C3000001C0040002000402E2E2F447269766553
:102C400072732F53544D3332463478785F48414C79
:102C50005F4472697665722F5372632F73746D339C
:102C600032663478785F68616C5F74696D2E6300DA
:102C70002DE9F05F054690F83C000C46012841D054
:102C8000012085F83C00022085F83D0020684FF4C3
:102C9000805B584516D0B0F5005F13D090B1102876
:102CA00010D020280ED030280CD040280AD0502830
:102CB00008D0602806D0702804D041F27711D1A046
:102CC00003F097FB2868816821F0770121F47F41A8
:102CD00081602068D949DA4ADA4BDB4EDB4FDFF8F6
:102CE00070C3DFF870834FF080494FF4004A5028DA
:102CF0007ED00FDC202804D007DC0028FBD0102871
:102D000052D165E10220BDE8F09F3028F9D040287B
:102D1000F6D12AE160286CD0702873D0584544D091
:102D20004FF400584045EBD1286888420ED0484502
:102D30000CD090420AD0984208D0B04206D0B84297
:102D400004D041F2A211AFA003F053FBA06858B128
:102D5000584509D0404507D0B0F5405F04D041F256
:102D6000A511A8A003F045FB6068504509D040B10B
:102D7000022806D00A2804D041F2A611A1A003F02F
:102D800038FBE0680F2804D941F2A7119DA003F099
:102D900030FBD4E90121E368286802F067FA28686B
:102DA000816841F480418160D8E028688842FBD086
:102DB0004845F9D09042F7D09842F5D0B042F3D0D0
:102DC000A5498842F0D0A5498842EDD0B842EBD061
:102DD0006045E9D0A2498842E6D0A2498842E3D0C2
:102DE0004045E1D0A0498842DED0A049884202E0B7
:102DF0004DE07FE006E0D7D041F2831181A003F0DF
:102E0000F8FAABE02868884212D0484510D09042CA
:102E10000ED098420CD0B0420AD0B84208D06045DB
:102E200006D0404504D041F28A1176A003F0E1FAC1
:102E3000A06860B158450AD0B0F5005F07D0B0F582
:102E4000405F04D041F28D116EA003F0D2FA6068A9
:102E5000504509D040B1022806D00A2804D041F2DA
:102E60008E1168A003F0C5FAE0680F2804D941F27A
:102E70008F1164A003F0BDFAD4E90121E36828684A
:102E800002F0F4F92868816841F077018BE728683F
:102E9000884212D0484510D090420ED098420CD0B3
:102EA000B0420AD0B84208D0604506D0404504D0B0
:102EB00041F2B61153A003F09CFA6068504509D066
:102EC00040B1022806D00A2804D041F2B9114DA021
:102ED00003F08FFAE0680F2804D941F2BA1149A033
:102EE00003F087FAE2686168286802F081FB5021EC
:102EF000286831E02868884212D0484510D09042B6
:102F00000ED098420CD0B0420AD0B84208D06045EA
:102F100006D0404504D041F2C6113AA003F069FA48
:102F20006068504509D040B1022806D00A2804D074
:102F300041F2C91133A003F05CFAE0680F2804D90C
:102F400041F2CA112FA003F054FAE26861682868C0
:102F500002F0A0FB6021286802F092F9012085F8B8
:102F60003D00002085F83C00CDE62868884212D05C
:102F7000484510D090420ED098420CD0B0420AD0B2
:102F8000B84208D0604506D0404504D041F2D61181
:102F90001CA003F02EFA6068504509D040B1022809
:102FA00006D00A2804D041F2D91116A003F021FA64
:102FB000E0680F2804D941F2DA1112A003F019FADF
:102FC000E2686168286802F013FB40212868C3E7C3
:102FD0002868884212D0484510D090420ED09842BE
:102FE0000CD0B0420AD0B84208D0604506D0404567
:102FF00004D041F2E91103A003F0FBF9216828682D
:10300000AAE700002E2E2F447269766572732F5343
:10301000544D3332463478785F48414C5F4472698E
:103020007665722F5372632F73746D333266347802
:10303000785F68616C5F74696D2E63000000014009
:103040000004004000080040000C00400004014063
:1030500000400140001800400010004000140040F3
:103060000044014000480140001C00400020004096
:10307000704700002DE9F05F04460068924FDFF8CA
:103080004C82DFF84C92DFF84CA2DFF84CB21646C7
:103090000D46B84221D0B0F1804F1ED040451CD023
:1030A00048451AD0504518D0584516D08B4988420B
:1030B00013D08B49884210D08A4988420DD08A4962
:1030C00088420AD08949884207D08949884204D079
:1030D0004FF4586187A003F08CF9286840B10228AA
:1030E00006D00A2804D040F6815182A003F081F96D
:1030F0006868012808D0022806D0032804D040F6CA
:1031000082517CA003F075F9A86850B1042808D05A
:10311000082806D00C2804D040F6835175A003F08F
:1031200068F9E8680F2804D940F6845171A003F0CB
:1031300060F994F83C00012850D0012084F83C004C
:10314000022084F83D00EEB3042E59D02068082EEA
:103150007ED0B8420FD0B0F1804F0CD040450AD09D
:10316000484508D0504506D0584504D040F6BC51DB
:1031700060A003F03EF92068D5E90023E968066AFB
:1031800026F480560662C669076A26F4407646EA47
:1031900003234FF6FF7606EA013123F47043194307
:1031A0004FF4204627F4204306EA02321A43C16155
:1031B00002622068C16921F44061C1612068C1696F
:1031C000AA6800E00CE041EA0221C161012084F814
:1031D0003D00002084F83C00BDE8F09F0220FBE7A2
:1031E000D5E90012EB68206802F014FA20688169C2
:1031F00021F00C01816120688169AA6811432AE0ED
:103200002068B84215D0B0F1804F12D0404510D0A0
:1032100048450ED050450CD058450AD02F49884219
:1032200007D03149884204D040F69C5131A003F0C8
:10323000E0F8D5E90012EB68206802F03DFA20685A
:10324000816921F44061816120688169AA6800E098
:1032500003E041EA02218161B8E7B8420FD0B0F142
:10326000804F0CD040450AD0484508D0504506D084
:10327000584504D040F6AC511EA003F0BAF82068BF
:10328000D5E900272E7B016A21F480710162C169B2
:10329000036A21F00301394321F0F00731074FF4AD
:1032A000206647EA116123F4206306EA02221A43EA
:1032B000C16102622068C16921F00C01C16120680E
:1032C000C169AA68114380E7000001400004004082
:1032D00000080040000C0040000401400040014094
:1032E000004401400048014000180040001C00401C
:1032F000002000402E2E2F447269766572732F5382
:10330000544D3332463478785F48414C5F4472699B
:103310007665722F5372632F73746D33326634780F
:10332000785F68616C5F74696D2E630010B504008E
:1033300058D03648226882422BD0B2F1804F28D034
:103340003348824225D03348824222D032488242DA
:103350001FD0324882421CD03148824219D03148B5
:10336000824216D03048824213D03048824210D078
:103370002F4882420DD02F4882420AD02E488242E6
:1033800007D02E48824204D040F2D1612CA003F035
:1033900030F8A06860B110280AD0202808D0402852
:1033A00006D0602804D040F2D26125A003F021F8B5
:1033B000206950B1B0F5807F07D0B0F5007F04D010
:1033C00040F2D3611EA003F014F8A06930B1802848
:1033D00004D040F2D4611AA003F00BF894F83D0039
:1033E00010B107E0012010BD002084F83C00204609
:1033F00000F042F8022084F83D00211D206801F011
:1034000057FE012084F83D00002010BD000001405F
:103410000004004000080040000C00400010004084
:1034200000140040000401400040014000440140FD
:103430000048014000180040001C004000200040EF
:103440002E2E2F447269766572732F53544D33328A
:10345000463478785F48414C5F4472697665722FD4
:103460005372632F73746D3332663478785F68619A
:103470006C5F74696D2E630070B586B005461421CB
:103480006846FCF749FF20492868884239D11F481F
:103490000026016841F001010160006800F00100B0
:1034A00005901A481438016841F010010160006865
:1034B000694600F0100005904FF420500090022063
:1034C000CDE901060120CDE903601148FEF7D6FAE7
:1034D000114C1048C4E900060015A660C4E9036059
:1034E000400060618000C4E90606266220466662EC
:1034F000FEF758F808B1FDF72BF96C62AC62EC628C
:10350000A56306B070BD00000000014044380240D1
:1035100000100240A06402400440002070B5044640
:10352000006801694FF00005C943890715D4C168D7
:10353000C943890711D4E91E016101202077206861
:1035400080698007204602D0FFF792FD04E000F07A
:10355000C3F8204600F0A7FA257720680169C9431F
:10356000490717D4C168C943490713D46FF0040150
:103570000161022020772068806910F4407F204696
:1035800002D0FFF775FD04E000F0A6F8204600F039
:103590008AFA257720680169C943090716D4C168EA
:1035A000C943090712D46FF0080101610420207794
:1035B0002068C0698007204602D0FFF759FD04E06B
:1035C00000F08AF8204600F06EFA2577206801693D
:1035D000C943C90617D4C168C943C90613D46FF0DB
:1035E00010010161082020772068C06910F4407F35
:1035F000204602D0FFF73CFD04E000F06DF82046C5
:1036000000F051FA257720680169C943C90708D13C
:10361000C168C943C90704D1891E0161204600F071
:10362000F9FA20680169C943090609D4C168C94388
:10363000090605D46FF0800101612046FFF7A7F865
:1036400020680169C943490609D4C168C9434906CC
:1036500005D46FF040010161204600F039FB20687D
:103660000169C94389060BD4C168C943890607D4D7
:103670006FF0200101612046BDE87040FFF788B877
:1036800070BD000010B586B0044614216846FCF7F2
:1036900043FE0E492068884215D10D48002102687A
:1036A00042F008020260006800F0080005904FF444
:1036B000805000900220CDE90101CDE90310694658
:1036C0000448FEF7DBF906B010BD0000000800401A
:1036D00030380240000C0240704700002DE9F05FD6
:1036E0005FEA020A0D46044610D0BAF1040F0DD06D
:1036F000BAF1080F0AD0BAF10C0F07D0BAF13C0F9B
:1037000004D040F6E3517BA002F073FE28686028E5
:1037100006D0702804D040F6E45176A002F069FE8D
:10372000A86830B1022804D040F6E55171A002F03B
:1037300060FE286930B1042804D040F6E6516DA03F
:1037400002F057FE94F83C0001281ED04FF0010B08
:1037500084F83CB0022084F83D007449744B754EE7
:10376000754FDFF8D8C1DFF8D891764A4FF080481E
:10377000BAF1000F0CD0BAF1040F3ED0BAF1080F25
:1037800066D0BAF10C0F62D187E00220BDE8F09F4D
:10379000206888421ED040451CD098421AD0B042C2
:1037A00018D0B84216D0604514D0484512D06649AA
:1037B00088420FD0654988420CD090420AD06449B3
:1037C000884207D06349884204D040F6F25149A0AC
:1037D00002F00FFE2946206801F05AFD2068816939
:1037E00041F0080181612068816921F00401816153
:1037F000206881692A69114328E02068884212D034
:10380000404510D098420ED0B0420CD0B8420AD0F9
:10381000604508D0484506D0904204D040F6036188
:1038200034A002F0E6FD2946206801F0A3FD2068DF
:10383000816941F4006181612068816921F48061BE
:103840008161206881692A6941EA022181614AE037
:10385000206888420ED040450CD098420AD0B04231
:1038600008D0B84206D0604504D040F6146121A0CB
:1038700002F0BFFD2946206801F0F2FD2068C16911
:1038800041F00801C1612068C16921F00401C161F2
:103890002068C1692A69114324E0206888420ED05B
:1038A00040450CD098420AD0B04208D0B84206D069
:1038B000604504D040F625610EA002F09AFD29462D
:1038C000206801F043FE2068C16941F40061C161D4
:1038D0002068C16921F48061C1612068C1692A69D9
:1038E00041EA0221C16184F83DB0002084F83C0027
:1038F0004CE700002E2E2F447269766572732F53A9
:10390000544D3332463478785F48414C5F44726995
:103910007665722F5372632F73746D333266347809
:10392000785F68616C5F74696D2E63000000014010
:103930000004004000080040000C0040000401406A
:103940000040014000180040004401400048014090
:10395000001C00400020004010B5040058D036483C
:10396000226882422BD0B2F1804F28D03348824265
:1039700025D03348824222D0324882421FD032487A
:1039800082421CD03148824219D03148824216D03E
:103990003048824213D03048824210D02F488242B1
:1039A0000DD02F4882420AD02E48824207D02E489E
:1039B000824204D040F293412CA002F01AFDA0688C
:1039C00060B110280AD0202808D0402806D06028EE
:1039D00004D040F2944125A002F00BFD206950B1C3
:1039E000B0F5807F07D0B0F5007F04D040F295415C
:1039F0001EA002F0FEFCA06930B1802804D040F285
:103A000096411AA002F0F5FC94F83D0010B107E0D1
:103A1000012010BD002084F83C00204600F042F850
:103A2000022084F83D00211D206801F041FB0120A7
:103A300084F83D00002010BD00000140000400405B
:103A400000080040000C004000100040001400403E
:103A50000004014000400140004401400048014092
:103A600000180040001C0040002000402E2E2F4473
:103A70007269766572732F53544D333246347878B9
:103A80005F48414C5F4472697665722F5372632FB1
:103A900073746D3332663478785F68616C5F746913
:103AA0006D2E6300704770472DE9F04105460068B0
:103AB0003F4E404F0C46B04207D1002C53D0042C4F
:103AC00051D0082C4FD00C2C4DD0B0F1804F65D088
:103AD0003949884207D1002C45D0042C43D0082C0A
:103AE00041D00C2C3FD03549884206D1BCB3042CC0
:103AF00039D0082C37D00C2C35D03149884206D12A
:103B00006CB3042C2FD0082C2DD00C2C2BD0B84209
:103B100006D124B3042C26D0082C24D00C2C22D07F
:103B20002849884202D1D4B1042C1CD026498842AD
:103B300000D1A4B12549884200D184B124498842EA
:103B400002D164B1042C0ED02249884200D134B194
:103B50002149884200D114B140F20B5100E002E04B
:103B60001EA002F046FC01222146286801F004FB59
:103B70002868B04201D0B84203D1416C41F4004101
:103B800041642868816801F00701062903D00168B3
:103B900041F0010101600020BDE8F081002CE2D07D
:103BA000042CE0D0082CDED00C2CDCD0D4E70000B4
:103BB00000000140000401400004004000080040F3
:103BC000000C00400040014000440140004801401A
:103BD00000180040001C0040002000402E2E2F4402
:103BE0007269766572732F53544D33324634787848
:103BF0005F48414C5F4472697665722F5372632F40
:103C000073746D3332663478785F68616C5F7469A1
:103C10006D2E63002DE9F04707460068244988426D
:103C200001D1FEF7B7F823493868884235D1224CD4
:103C30000026224D2068401C20606068401C6060A7
:103C4000A068401CA0600D2822D1DFF874804FF0DE
:103C50000109A660C5F81090B8F9000040F2CE72D4
:103C600000F2E73191420BD96969012908D1154A5F
:103C70006E6115491060B8F90200086001F020F883
:103C8000B8F90000002802DDC5F80C9000E0EE60F5
:103C900020680A2801D126602E600C4938688842C5
:103CA00003D1BDE8F047FCF76BBDBDE8F08700002D
:103CB00000100040000400408400002084460020E2
:103CC000A8000020B4000020B8000020000C004034
:103CD000704710B504460068416994F83920C1F373
:103CE000C011212A0BD151B1416921F080014161FC
:103CF000206B08B1FDF72DFB204601F072FD206816
:103D0000416994F83A20C1F38011222A0BD151B1B4
:103D1000416921F040014161606B08B1FDF719FB79
:103D2000204601F050FD002010BD704730B40168FE
:103D30000A68D2065ED50A684968416B304A09684C
:103D400091420AD02F4A914207D02D4A60329142C7
:103D500003D02C4A6032914201D1202222E0284B2C
:103D60001833DA1499421DD0264B1833994219D0D2
:103D7000234B7833994215D0224B7833994211D096
:103D80001F4B9202303399420CD01E4B3033994274
:103D900008D01B4B9033994204D01A4B9033994270
:103DA00000D092010B6823F001030B60416B154BAF
:103DB00009684833994202D91249091F05E0104B9E
:103DC000A833994203D90F4908390A6008E00C4C1E
:103DD0000B4B4834103BA14201D9DA6000E09A60F5
:103DE000426B818D12685160416B09680A6842F02C
:103DF00001020A60816A30BC0348FCF7A1BB0000E5
:103E00001060024010640240E04A002070B5026871
:103E100004461068D168536910F00F0F51D003F0B9
:103E2000010501F4907635435DD0C20705D0CA057F
:103E300003D5E26B42F00102E263420705D5DA07DF
:103E400003D0E26B42F00202E263820705D5DA0793
:103E500003D0E26B42F00402E263020705D5DA0701
:103E600003D0E26B42F00802E263E26B002A34D036
:103E7000800604D5880602D5204601F0F7FC2068AC
:103E80004069E16BC0F3801001F008010143204656
:103E900024D001F098FC2068416949061AD541698F
:103EA00021F040014161606BA0B11B490165606B6D
:103EB000FDF796FA002810D0606B016DBDE87040E8
:103EC000084783060FD58B060DD52046BDE8704008
:103ED00001F0CCBC2046FFF728FF70BDFFF725FF9F
:103EE0000020E06370BD030606D50B0604D520460E
:103EF000BDE8704001F0A8BE4006F3D54806F1D5F4
:103F0000D168204621F04001D160202184F8391089
:103F100000F08AFA70BD0000EF56000870B504008A
:103F200023D0A0693B4900283B4A3C4B3C4D2068CC
:103F30001DD088420CD090420AD0984208D0A842A6
:103F400006D040F2491137A002F053FAA06908B335
:103F5000A069B0F5807F1DD0B0F5007F1AD0B0F514
:103F6000407F17D04FF4A57111E0012070BD884249
:103F700010D090420ED098420CD03949884209D0D6
:103F80003849884206D0A84204D04FF4A77125A032
:103F900002F02FFAA06838B1B0F5805F04D04FF47A
:103FA000A87120A002F025FAE06938B1B0F5004F01
:103FB00004D040F251111BA002F01BFA94F8390012
:103FC000002520B984F83850204600F04DF8242010
:103FD00084F839002068C16821F40051C16020468E
:103FE00001F090FC2068016921F490410161206892
:103FF000416921F02A0141612068C16841F4005102
:10400000C160E563202084F8390084F83A0000207C
:1040100070BD000000100140004400400048004016
:10402000001401402E2E2F447269766572732F534F
:10403000544D3332463478785F48414C5F4472695E
:104040007665722F5372632F73746D3332663478D2
:10405000785F68616C5F756172742E6300000000A8
:10406000004C0040005000402DE9F04F87B005465D
:1040700014216846FCF750F99348DFF84882022182
:10408000D5F800C001220323DFF840E200248E06A9
:1040900007154FF00709C44561D1DFF82CC2A246CD
:1040A0000CF1140CDCF8008048F01008CCF800800B
:1040B000DCF800C00CF0100CCDF814C0D0F800C033
:1040C0004CF0010CC0F800C0006800F00100059041
:1040D00058028DE80F0269467046FDF7CFFCDFF805
:1040E000F4817B494046C8F80010C0E90164C0E98A
:1040F0000347C8F81440C8F81840C8F81C40C8F86E
:104100002040C8F82440FDF74DFA08B1FCF720FB29
:10411000704C6F48C5F8348060347830C8F8385037
:10412000C4E900064020A060C4E903A7C4F814A0B5
:10413000C4F818A0C4F81CA0C4F820A02046C4F8F5
:1041400024A0FDF72FFA08B1FCF702FB2C63002234
:1041500005212520A563FDF7C7FE252049E0DFF8EE
:104160007881DFF864B1C4450BF1100B46D1DBF860
:10417000008048F40038CBF80080DBF800C00CF475
:10418000003CCDF814C0D0F800C04CF0010CC0F8D1
:1041900000C0006800F0010005900C208DE80F02BF
:1041A00069467046FDF76AFCDFF828814B4908F143
:1041B000C0084046C8F80010C0E90164C0E90347E0
:1041C000C8F81440C8F81840C8F81C40C8F8204087
:1041D000C8F82440FDF7E6F908B1FCF7B9FAC5F8CC
:1041E0003480002205212620C8F83850FDF77CFED7
:1041F0002620FDF747FE07B0BDE8F08FDFF8E0802E
:10420000C445F8D1DBF80080A24648F48028CBF8FA
:104210000080DBF800C00CF4802CCDF814C0D0F87E
:1042200000C04CF0020CC0F800C0006800F00200B2
:1042300005904FF440608DE80F0269462948FDF76C
:104240001DFC2649DFF8A08060394046C8F8001000
:10425000C0E90164C0E90347C8F81440C8F8184031
:10426000C8F81C40C8F82040C8F82440FDF79AF967
:1042700008B1FCF76DFA1C4C1848C5F8348060345E
:104280003038C8F83850C4E900064020A060C4E9BE
:1042900003A7C4F814A0C4F818A0C4F81CA0C4F85C
:1042A00020A02046C4F824A0FDF77CF908B1FCF753
:1042B0004FFA2C63002205212720A563FDF714FE89
:1042C000272096E7001001403038024000000240ED
:1042D00040640240204200200044004088600240C8
:1042E000004800400004024040430020F8B5044666
:1042F00090F83A0020283CD1C1B3BAB394F8380002
:10430000012836D0012084F83800A162A28500255A
:10431000E563222084F83A00636B1748D863636B27
:1043200016481864636B1648D864606B13460565BD
:104330000846666B216802463046091DFDF7F4FA0F
:10434000206801684168009184F83850C16841F4E0
:104350008071C1602068416941F0010141612068BC
:10436000416941F0400141610020F8BDFFE70120B3
:10437000FBE70220F9E700004957000885570008CD
:10438000FF56000830B40368DC6844F01004DC60B9
:1043900030BC01F02FBA0000014801F059BD000007
:1043A000F84A00207047000070B5044690F83900C4
:1043B000202830D169B362B394F8380001282AD09C
:1043C000012084F838002162A284E2840025E5639C
:1043D000212084F83900236B1048D863236B1048E0
:1043E0001864236B0F48D864206B13460565266854
:1043F000206B321DFDF798FA21686FF040000860CD
:1044000084F838502068416941F080014161002002
:1044100070BD012070BD022070BD00008F570008E4
:10442000BD570008FF560008014801F019BD000003
:10443000F84A00207047FEE710B50A4C20780128A2
:104440000FD1962208490948FFF7AEFF084900201E
:1044500008702070BDE81040962203490348FFF71A
:1044600045BF10BD9900002064400020E0410020BD
:1044700098000020104810B50E49016003214160EA
:1044800000214FF400228160C0E903124FF4401272
:10449000C0E905210122C0E9072141628162C162B0
:1044A000FCF7F8FB002803D0BDE81040FCF750B93A
:1044B00010BD000000640040803E0020214808B587
:1044C000016841F400110160016801F400110091DC
:1044D000016841F4800101600068002200F480005E
:1044E000009005210C20FDF7FFFC0C20FDF7CAFC15
:1044F000002205210E20FDF7F7FC0E20FDF7C2FC7F
:10450000002205211020FDF7EFFC1020FDF7BAFC7A
:10451000002205213A20FDF7E7FC3A20FDF7B2FC26
:10452000002205214520FDF7DFFC4520FDF7AAFC10
:10453000002205214620FDF7D7FCBDE808404620B3
:10454000FDF7A0BC3038024010B50C4886B0002200
:1045500000680590012105A802F03CF8084C0749C5
:1045600014226060091D6846FBF7BDFE0021684605
:1045700002F019F8206006B010BD0000D0830008DA
:1045800090000020F0B587B014216846FBF7C4FE08
:1045900049480024016841F010010160016801F000
:1045A00010010591016841F004010160016801F00A
:1045B00004010591016841F020010160016801F0EA
:1045C00020010591016841F080010160016801F05E
:1045D00080010591016841F001010160016801F06D
:1045E00001010591016841F002010160016801F0DB
:1045F00002010591016841F040010160016801F08C
:1046000040010591016841F008010160006803253F
:1046100000F0080005904DF2FF70CDE900056946F5
:1046200002942648FDF72AFA4FF6FF760096CDE968
:10463000015469462248FDF721FA4FF6FF40CDE9C3
:104640000005204F694602943846FDF717FA280204
:1046500000901D48CDE9010469463846FDF70EFA81
:1046600048F2F310CDE90005694602941748FDF7BA
:1046700005FA4FF2FF30CDE900056946029414486F
:10468000FDF7FCF90096CDE9015469461148FDF7A4
:10469000F5F94EF6FF70CDE90005694602940E4823
:1046A000FDF7ECF9002205211720FDF71DFC17206E
:1046B000FDF7E8FB07B0F0BD3038024000100240C3
:1046C00000080240001402400000211000000240D7
:1046D0000004024000180240000C024030B587B0D0
:1046E00000242648059404940094019402942249DD
:1046F000039401600921C0E9011442F20F71C0E97D
:10470000031444618461FEF711FE08B1FCF720F840
:10471000049404A919480594FEF73CF808B1FCF785
:1047200017F80225CDE90045029400226946134896
:104730000394FEF79FFC08B1FCF70AF801200190F2
:10474000042269460D48FEF795FC08B1FCF700F815
:10475000082269460948FEF78DFC08B1FBF7F8FF0F
:104760000C22694605480195FEF784FC002801D01B
:10477000FBF7EEFF07B030BD00000140C43E002053
:1047800010B586B000241648009401940294039456
:1047900004944FF080410594016044F29F11C0E9F8
:1047A0000114A11EC0E903148461FEF77DF808B16D
:1047B000FBF7CEFF4FF48050009069460848FEF7A3
:1047C00057FA08B1FBF7C4FF049404A90448059400
:1047D000FDF7E0FF002801D0FBF7BAFF06B010BDDF
:1047E000043F002010B586B00024174800940194BF
:1047F00002940394049413490594016042F2CF019A
:10480000C0E9011440F69F71C0E903148461FEF70A
:104810004BF808B1FBF79CFF4FF4805000906946BD
:104820000948FEF725FA08B1FBF792FF049404A9A2
:1048300005480594FDF7AEFF002801D0FBF788FF7F
:1048400006B010BD00040040443F002010B58EB0FB
:1048500000240794089409940A940B941C21684638
:104860000C94FBF759FD1E481C4901605321C0E917
:10487000011440F69F71C0E903148461FEF714F837
:1048800008B1FBF765FF4FF48050079007A9144863
:10489000FEF7EEF908B1FBF75BFF1148FFF75CF894
:1048A00008B1FBF755FF0B940BA90D480C94FDF7CD
:1048B00071FF08B1FBF74CFF6020CDE900040294C2
:1048C0000022694606480494FEF708FF08B1FBF78A
:1048D0003FFF0348FEF7D6FE0EB010BD00080040B3
:1048E000843F002010B586B000241748009401943E
:1048F0000294039404941349059401605321C0E980
:10490000011440F2E731C0E903148461FDF7CCFFE4
:1049100008B1FBF71DFF4FF48050009069460A482C
:10492000FEF7A6F908B1FBF713FF049404A90648A3
:104930000594FDF72FFF002801D0FBF709FF06B013
:1049400010BD0000000C0040C43F00200C4810B512
:104950000A4901604FF4E1314160002181600C227D
:10496000C160C0E904128161C161FFF7D7FA002874
:1049700003D0BDE81040FBF7EBBE10BD00100140B6
:10498000604100200D4810B50B4901600C494160A1
:1049900000214FF480628160C0E903120C22C0E95B
:1049A0000521C161FFF7BAFA002803D0BDE8104025
:1049B000FBF7CEBE10BD000000440040A041002027
:1049C000A08601000C4810B50A4901604FF4E1319E
:1049D0004160002181600C22C160C0E90412816144
:1049E000C161FFF79BFA002803D0BDE81040FBF738
:1049F000AFBE10BD00480040E0410020FEE70000CF
:104A0000104810B5007A012805D00F48016829B177
:104A1000012909D00DE000F063F80AE0C06901281F
:104A200007D100F033F804E08069012801D100F0DB
:104A30000DF8FBF7CDFDFFF7FFFCBDE81040FBF7DD
:104A400019BF0000E04A0020844600200D480021E4
:104A50000122C0E9061201610B480146B0F900309D
:104A60004A6802EBD271524202EBD27241F34F011B
:104A700042F34F02002B02DD01804280704702802A
:104A80004180704784460020A80000200F48002184
:104A90000F4A01604FF4C87010600E4A1E2010606B
:104AA0000D4801228260C0E906210C480146B0F998
:104AB000003089880AB2494209B2002B02DD028027
:104AC0004180704701804280704700000C01002047
:104AD00010010020C000002084460020A800002013
:104AE00070B51D491D4D00201D4C08602861607A7D
:104AF000012803D14FF47A7001F018FD607A022882
:104B000004D11848008980B201F010FDB4F9040006
:104B1000C11700EB91711448026802EBA10101601A
:104B200060884FF6242110FB01F14FF4257091FBB2
:104B3000F0F10E4A1160218840F6B83211FB02F202
:104B400092FBF0F192FBF0F04B4206490B8048805B
:104B50000120286070BD0000C000002084460020B5
:104B6000E04A0020A80000200C01002014010020D1
:104B70007047000030B4034C4466034C846630BC7C
:104B800001F04ABE1968000827680008094840F685
:104B9000B831416040F27E41816007480121002226
:104BA0000160C0E906218160C0E904210262416020
:104BB00070470000A80000208446002070B5384DE2
:104BC00000242DED028B4FF4FA569FED368A00BF7C
:104BD00004EBC400F0EE480A00EB400005EB800057
:104BE000B0EE601AB1EE0E0A002332460321FFF741
:104BF000C1FF641C022CEBDB4FF4FA64B0EE481AE0
:104C0000F0EE480AB3EE060A0023224603212648A6
:104C1000FFF7B0FF224847F23055B0EE481ADFEDFB
:104C2000230AB0EE000A0A232A460321D830FFF7F0
:104C3000A1FF1D48B0EE481AF0EE480AB2EE000A95
:104C40000023224603216C30FFF794FFB0EE481A90
:104C5000F7EE000A9FED160A64232A460321154841
:104C6000FFF788FF0E48B0EE481ADFED130AB3EEE7
:104C7000040A0A23621003216C38FFF77BFFB0EEB1
:104C8000481ABDEC028B3246BDE87040094800234B
:104C90000321DFED0A0AB2EE000A6C30FFF76ABFAB
:104CA000C448002000000000804700209A99193F66
:104CB00033333340084A00200AD7233CCDCCCC3DC7
:104CC00010B5084C0848214602F0C4F906482146B0
:104CD000143002F0BFF921460348BDE810402830E7
:104CE00002F0B8B980380100C400002070B5274C2C
:104CF000251D284601F0ACF82868FDF7C5FE002008
:104D0000C4F8EC0CC4F8F00CC4F8F80C214601F51A
:104D10005862C4F8F40C00BF01EB8003D3F8243CC4
:104D20007BB1401C1928F7DB184A002002F65C51C1
:104D300002EB8003D3F8883C5BB1401C1928F7DBF9
:104D40000DE001EB80037D30C3F8242CC2E90201A1
:104D5000EAE702EB80026430C2F8881C48600C4D20
:104D60000A4C00BF94F8000D30B1BDE87040074810
:104D700008A2012103F008B9FDF706F82968884266
:104D8000F3D8024803F086F9ECE70000F44A00206B
:104D900008010020536B79677561726420436F6E60
:104DA0006E65637465642100AFF3008038B5174CFD
:104DB000002194ED450ABDEEC00A10EE100A00B2C3
:104DC000009094ED7B0ABDEEC00A10EE100A94ED3F
:104DD000600A03B2BDEEC00A10EE100A02B20C481F
:104DE00002F072F994ED2A0ABDEEC00A10EE100A24
:104DF00094ED0F0ABDE83840BDEEC00A02B210EED5
:104E0000100A01B2024802F085B90000C44800202F
:104E1000803E00202DE9F041414E3069012858D1F3
:104E2000404F414D414CF06818B3012847D14048EC
:104E300002F0F4F8D5ED000AB8EEE01AF8EEE00A58
:104E400000EEC01ABDEEC10A10EE100A20803848EC
:104E500002F0E4F8386800EE900A404201EE100AD1
:104E6000F8EEE00AB8EEC11A41EE000ABDEEE00A23
:104E700022E02F48143002F0D1F8286800EE900AA2
:104E8000404201EE100AF8EEE00AB8EEC11A41EE17
:104E9000000ABDEEE00A10EE100A2080244814300B
:104EA00002F0BCF8D7ED000AB8EEE01AF8EEE00A1E
:104EB00000EEC01ABDEEC10A10EE100A6080B4F90F
:104EC000000008B9618831B12968C84201D10020C9
:104ED0003061BDE8F08101207061F06860B10128A7
:104EE000F7D11348283002F099F8D5ED000AF8EE12
:104EF000E00A20EE600A0BE00D48283002F08EF840
:104F00002868404200EE900AF8EEE00A20EE200AFF
:104F1000BDEEC00A10EE100A208040426080D8E743
:104F200084460020B8000020B4000020A800002023
:104F3000C40000200D4801F00FFB00210B48FCF7D6
:104F400015F864220A490B48FFF71CFAFFF736FEF2
:104F5000FFF7B6FE08480121406801F04DFB00BF95
:104F600001F0AAFAFFF74CFDFAE70000803E0020AE
:104F7000FA400020A04100209000002010B55020F1
:104F800080F31188BFF34F8FBFF36F8F02F0ACFD3A
:104F900018B104494FF080500860002080F3118858
:104FA00010BD000004ED00E030B593B0302168463C
:104FB000FBF7B2F914210CA8FBF7AEF91C48002549
:104FC000016841F080510160006800F0805011904C
:104FD0001848016841F4804101600068022400F42F
:104FE0008040119001200090000401908001CDE9E3
:104FF000064008AA0420A82182E813000B90684606
:10500000FDF796F900B1FEE70CA90F2081E8310009
:105010004FF4A0500F904FF48050109005210CA831
:10502000FCF7F2FF002800D0FEE713B030BD00000F
:1050300040380240007000401048016841F470019F
:1050400001600F48016841F0010101600C4A002134
:105050000832116002680B4B1A400260031D0A4AB5
:105060001A60026822F48022026005480C30016058
:1050700002495806803908607047000088ED00E05A
:1050800000380240FFFFF6FE103000240148FEF712
:1050900045BA0000443F00200148FEF73FBA000037
:1050A000C43F00200148FEF739BA00001044002038
:1050B000F0B50268254C264D264E274F274B4FF062
:1050C000804CA04209D0604507D0A84205D0B0422C
:1050D00003D0B84201D0984204D122F0700E4A6841
:1050E00042EA0E02A0421BD0604519D0A84217D058
:1050F000B04215D0B84213D0984211D0184DA842F2
:105100000ED0184DA8420BD0174DA84208D0174D0D
:10511000A84205D0164DA84202D0164DA84203D190
:1051200022F44075CA682A434D6922F080022A435E
:1051300002608A68C2620A688262A04201D0984214
:1051400001D10969016301214161F0BD0000014005
:105150000004004000080040000C00400004014032
:105160000040014000440140004801400018004058
:10517000001C00400020004070B50446224816463E
:105180000D46844225D0B4F1804F22D01F4884427E
:105190001FD01F4884421CD01E48844219D01E488C
:1051A000844216D01D48844213D01D48844210D03A
:1051B0001C4884420DD01C4884420AD01B488442BB
:1051C00007D01B48844204D041F6B71119A001F062
:1051D00010F965B1042D0AD0082D08D00C2D06D089
:1051E0003C2D04D041F6B81112A001F002F905F0EF
:1051F0001F010120226A884082432262206A8E4079
:105200003043206270BD00000000014000040040F7
:1052100000080040000C0040000401400040014034
:10522000004401400048014000180040001C0040BC
:10523000002000402E2E2F447269766572732F5322
:10524000544D3332463478785F48414C5F4472693C
:105250007665722F5372632F73746D3332663478B0
:10526000785F68616C5F74696D2E630010B5846847
:1052700042EA032224F47F440A432243826010BDA1
:10528000826822F070020A4342F007018160704791
:105290002DE9F0470446006A0D4620F00100206227
:1052A000206A6768A169AE6821F07302296820F05E
:1052B0000200DFF880900643DFF87CA041EA020894
:1052C0004C4501D054450ED1E86830B1082804D0CF
:1052D00041F2ED6119A001F08CF8E86826F00801B0
:1052E000084320F004064C4501D0544519D1A86963
:1052F000B0F5007F05D020B141F2FA610FA001F0B6
:1053000078F86869B0F5807F05D020B141F2FB6183
:105310000AA001F06EF827F440716869AF6908438C
:1053200007436760C4F81880686860632662BDE858
:10533000F087000000000140000401402E2E2F44A1
:105340007269766572732F53544D333246347878D0
:105350005F48414C5F4472697665722F5372632FC8
:1053600073746D3332663478785F68616C5F74692A
:105370006D2E63002DE9F0470446006A0D4620F0CB
:1053800010002062206A6768A1692A6821F4E6415A
:1053900041EA0228A968DFF8889020F02000DFF8B1
:1053A00084A040EA01164C4501D054450FD1E8686D
:1053B00030B1082804D041F238711BA001F019F86F
:1053C000E96826F0800040EA011020F040064C45D4
:1053D00001D054451BD1A869B0F5007F05D020B19C
:1053E00041F2467110A001F004F86869B0F5807FC1
:1053F00005D020B141F247710BA000F0FAFF6969B6
:1054000027F4406040EA8100A96940EA81076760AB
:10541000C4F818806868A0632662BDE8F0870000C1
:1054200000000140000401402E2E2F447269766571
:1054300072732F53544D3332463478785F48414C61
:105440005F4472697665722F5372632F73746D3384
:1054500032663478785F68616C5F74696D2E6300C2
:105460002DE9F0470446006A0D4620F48070206262
:10547000206A6768E169DFF8949021F07302296877
:1054800020F4007041EA0208A968DFF884A040EA2D
:1054900001264C4501D054450FD1E86830B10828A9
:1054A00004D041F283711BA000F0A3FFE96826F449
:1054B000006040EA012020F480664C4501D054454C
:1054C0001BD1A869B0F5007F05D020B141F29071E1
:1054D00010A000F08EFF6869B0F5807F05D020B184
:1054E00041F291710BA000F084FF696927F44050EC
:1054F00040EA0110A96940EA01176760C4F81C80FE
:105500006868E0632662BDE8F087000000000140A3
:10551000000401402E2E2F447269766572732F535A
:10552000544D3332463478785F48414C5F44726959
:105530007665722F5372632F73746D3332663478CD
:10554000785F68616C5F74696D2E63002DE9F041CE
:105550000446006A0D4620F480502062206A666886
:10556000E1692A6821F4E64141EA0228A96820F4A9
:10557000005040EA01370E48844202D00D48844270
:105580000ED16869B0F5807F05D020B141F2CF71AE
:1055900009A000F02EFF696926F4804040EA8116D8
:1055A0006660C4F81C80686820642762BDE8F081EA
:1055B00000000140000401402E2E2F4472697665E0
:1055C00072732F53544D3332463478785F48414CD0
:1055D0005F4472697665722F5372632F73746D33F3
:1055E00032663478785F68616C5F74696D2E630031
:1055F00010B5036A046A24F001040462846924F08B
:10560000F00444EA021423F00A020A4384610262AD
:1056100010BD000070B5046A24F0010404628469BE
:10562000056A154EB04214D0B0F1804F11D0134E20
:10563000B0420ED0124EB0420BD0124EB04208D043
:10564000114EB04205D0114EB04202D0104EB042C1
:1056500003D124F00304144301E044F001041A07C9
:1056600024F0F00444EA126225F00A0301F00A0172
:1056700019438261016270BD0000014000040040D6
:1056800000080040000C00400004014000400140C0
:105690000018004010B5036A23F010030362836909
:1056A000046A23F4704343EA023224F0A00343EA7D
:1056B00001118261016210BD30B5046A24F010044A
:1056C00004628469056A24F4407444EA022222F4E4
:1056D00070444FF6FF7202EA03322243A02425F001
:1056E000A00304EA011119438261016230BD10B5C3
:1056F000806B0021C185C184FEF717FB10BD70B51A
:10570000846B2068406994F83910C0F3C0100025FC
:10571000212904D118B1E584204600F062F8206800
:10572000406994F83A10C0F38010222904D118B1CE
:10573000E585204600F047F8E06B40F01000E0639C
:105740002046FEF7F2FA70BD10B50146806B09687D
:105750000968C90513D40021C1850168CA6822F40B
:105760008072CA6001684A6922F001024A610168D8
:105770004A6922F040024A61202180F83A10FEF77F
:105780000BFE10BD10B5806BFEF70CFE10BD10B502
:105790000146806B09680968C9050CD40021C184E1
:1057A00001684A6922F080024A610068C16841F0DC
:1057B0004001C16010BDFEF737FE10BD10B5806B13
:1057C000FEF738FE10BD0168CA6822F49072CA6004
:1057D00001684A6922F001024A61202180F83A10EA
:1057E00070470168CA6822F0C002CA60202180F8B0
:1057F00039107047F8B5044690F83A00202833D1A4
:1058000079B372B394F8380001282DD0012084F8C0
:105810003800A162A2850025E563222084F83A00C1
:10582000606B134605650846666B21680246304684
:10583000091DFCF727F8206801684168009184F889
:105840003850C16841F48071C1602068416941F0FD
:10585000010141612068416941F04001416100203E
:10586000F8BDFFE70120FBE70220F9E710B590F84B
:105870003A10222901D0022010BD8168B1F5805F65
:1058800011D00169002901681FD0496801F07F0328
:10589000816A4A1C82620B70C18D491E0904090C81
:1058A000C18518D02BE00269816A002A026852681B
:1058B00005D0D2B20A80816A491C8162ECE7C2F34A
:1058C00008020A80816A891CF7E74A68816A4B1CD2
:1058D00083620A70E0E70168CA6822F02002CA60A9
:1058E0000168CA6822F48072CA6001684A6922F0BD
:1058F00001024A61202180F83A10FEF74DFD002098
:1059000010BD00002DE9F04104464068BC498842C2
:1059100004D940F6E531BBA000F06BFDE06838B17A
:10592000B0F5005F04D040F6E631B6A000F061FDAE
:10593000206950B1B0F5806F07D0B0F5C06F04D0CA
:1059400040F6E731AFA000F054FD60694FF6F37107
:10595000084200D120B940F6E831AAA000F049FD84
:1059600020680169E26821F4405111430161216915
:10597000A068E26908436169114308432168CA6865
:1059800049F20C639A430243CA6020684169A269E4
:1059900021F4407111434161E2696425B2F5004F81
:1059A000A748A84922684FF032083FD08A4201D068
:1059B00082427CD1FCF77CFC00EBC00101EB0010C3
:1059C00061688900B0FBF1F6FCF772FC00EBC001E6
:1059D00001EB001061688900B0FBF1F0B0FBF5F05D
:1059E0006FF01801484306EB800108EB0110B0FB93
:1059F000F5F000F0F006FCF75BFC00EBC00101EBFA
:105A0000001061688900B0FBF1F0B0FBF5F006EB27
:105A10000016FCF74DFC00EBC00101EB00106168C3
:105A20008900B0FBF1F7FCF743FCD2E08A4201D0D9
:105A300082423DD1FCF73CFC00EBC00101EB0010C1
:105A400061684900B0FBF1F0B0FBF5F00601FCF72E
:105A50002FFC00EBC00101EB001061684900B0FBB6
:105A6000F1F7FCF725FC00EBC00101EB00106168C9
:105A70004900B0FBF1F0B0FBF5F06FF018014843BE
:105A800007EB800108EBC100B0FBF5F000F0F80077
:105A900006EB4006FCF70CFC00EBC00101EB00102C
:105AA00061684900B0FBF1F7FCF702FC3CE055E00F
:105AB000FCF7EEFB00EBC00101EB00106168490050
:105AC000B0FBF1F0B0FBF5F00601FCF7E1FB00EBF9
:105AD000C00101EB001061684900B0FBF1F7FCF771
