:020000040800F2
:1000000020080020010100084F230008F12000080B
:100010004D23000885060008252B0008000000007D
:100020000000000000000000000000007323000832
:10003000E306000800000000712300087523000893
:100040001B0100081B0100081B0100081B01000820
:100050001B0100081B0100081B0100081B01000810
:100060001B0100081B0100081B0100081B01000800
:100070001B0100081B0100088906000895060008FE
:10008000A1060008AD0600081B0100081B010008BE
:100090001B0100081B0100081B0100081B010008D0
:1000A0001B0100081B0100081B0100081B010008C0
:1000B000212400081B0100081B0100081B01000887
:1000C0001B0100081B0100081B0100081B010008A0
:1000D0001B01000875280008D12900081B01000831
:1000E0001B0100081B0100081B010008DFF80CD0F1
:1000F00000F048FA00480047852B0008200800203F
:100100000648804706480047FEE7FEE7FEE7FEE7B1
:10011000FEE7FEE7FEE7FEE7FEE7FEE7D92300087D
:10012000ED000008202A04DB203A21FA02F0002129
:10013000704721FA02F3D040C2F1200291400843F7
:1001400019467047D2B201E000F8012B491EFBD2DC
:1001500070470022F6E710B513460A4604461946D2
:10016000FFF7F0FF204610BDF0B480EA0102D40F83
:100170004200B2EB410F02D20246084611464A0045
:1001800042D0C30DDDB2C1F3C752AD1A202D35DA0E
:10019000C1F3160141F4000204B15242C5F1200638
:1001A00002FA06F12A411044B3EBD05F23D0C4B168
:1001B000012DA0EBC35009DCF0BC4FF0004202EA75
:1001C000C352DBB200F5000000F051B9400000F16D
:1001D000807000EBC350A0F1807040EAD1704900FC
:1001E00009E0490841EAC071A0EBC35000F50000E6
:1001F000400800EBC350F0BC00F030B9614201226E
:1002000002EB4101001BF6E7F0BC704781F00041B2
:10021000AAE780F00040A7E780EA010210B502F0EB
:100220000043400022D04A001FD0010E01EB1261B2
:10023000C0F35600C2F3560240F4000042F400023C
:10024000A0FB022000047F39140400D0401C50EAB7
:10025000124001D44000491EC2B20C0604EBD0107B
:10026000401C4008802A02D003E0002010BD20F08E
:100270000100002900DA0020184310BD30B480EAE4
:10028000010202F0004530F0004221F0004013D09E
:1002900090B1C30DD40DC2F31601C0F31600E41AD9
:1002A00041F4000140F400027D34914201D3641C0A
:1002B00000E04900002C02DA30BC002070474FF407
:1002C00000000023914201D3891A034340084FEAFA
:1002D0004101F7D151B1914202D14FF0004105E007
:1002E00002D24FF0010101E06FF0010103EBC450B5
:1002F000284430BC00F0B2B8420005D0C0F3C75269
:100300005242914201DC0020704700EBC15070471F
:100310002DE9FE4F81EA030404F0004421F000417E
:1003200000944FF0000B23F0004350EA01045ED02C
:1003300052EA03045BD0C3F30A54C1F30A552C44B8
:10034000A4F2F3340194A0FB0254C1F3130141F46D
:100350008011C3F3130343F4801301FB024400FB39
:10036000034E840A970A44EA815447EA8357A4FB60
:10037000076802958D0A05FB07854FEA932C04FB5D
:100380000C542705029D4FEA065847EA1637B5EB8D
:1003900008056EEB070C870E920E47EA811742EABA
:1003A0008312A7FB0201B6EB0B0164EB00042B0DDB
:1003B00043EA0C335E1844EB1C50DA465146E7FB27
:1003C0000201C5F313044FEA0B3343EA14534FEA17
:1003D0000432019C43EA0603A4F10C040294009C3D
:1003E000CDE900B400F080F803B0BDE8F08F002044
:1003F0000146F9E796230022114600F038B800F0D4
:10040000004230F000400AD0C10D01F56071C0F328
:10041000160042EA0151C20840071143704700200C
:100420000146704701F0004330B421F0004150EA2A
:10043000010206D00A0DA2F56072C1F31301002A71
:1004400002DC30BC00207047440F44EAC104C10004
:10045000E01830BC00EBC250AFF300800029A8BF09
:100460007047401C490008BF20F00100704710B4DD
:10047000B0FA80FC00FA0CF050EA010404BF10BC92
:10048000704749B1CCF1200421FA04F411FA0CF1BF
:1004900018BF012121430843A3EB0C01CB1D4FEAF8
:1004A00000614FEA102042BF002010BC704700EBF3
:1004B000C35010440029A4BF10BC7047401C490021
:1004C00008BF20F0010010BC704710B5141E73F176
:1004D000000408DA401C41F1000192185B411A4304
:1004E00001D120F0010010BD2DE9F04D92469B4650
:1004F00011B1B1FA81F202E0B0FA80F220329046F6
:1005000000F052F804460F4640EA0A0041EA0B01A7
:1005100053465A46084313D0114653EA010019D0F6
:10052000C8F140025046FFF7FDFD05460E46504615
:100530005946424600F038F8084305D0012004E04F
:1005400020463946BDE8F08D0020054346EAE076B6
:100550002C4337430A986305E40AA0EB0800002205
:10056000FD0A44EA47540A3002D500200146E9E773
:10057000010510196941DDE9084500196941BDE827
:10058000F04DA2E7064C074D06E0E06840F001039D
:1005900094E8070098471034AC42F6D3FFF7AAFD61
:1005A000D82F0008F82F0008202A04DB203A00FA90
:1005B00002F1002070479140C2F1200320FA03F3BA
:1005C000194390407047000070B504460068816888
:1005D000C943C9071CD1816821F00101816000F085
:1005E0006BFD05460FE000BF00F066FD401B0228D2
:1005F00009D9A06A40F01000A062E06A40F0010052
:10060000E062012070BD20688068C043C007EBD065
:10061000002070BDF8B50026044600960068816889
:10062000C943C90728D0816841F00101816013489E
:1006300013490068B0FBF1F000E0401E0090002874
:10064000FBD100F039FD054611E000BF00F034FD9C
:10065000401B02280BD9A06A40F01000A062E06A9B
:1006600040F00100E06284F824600120F8BD2068B9
:100670008068C043C007E9D10020F8BD2C000020ED
:1006800040420F00FEE70000014800F00FBB0000F1
:10069000D0010020014800F009BB00008C010020BF
:1006A000014800F003BB000014020020014800F0E4
:1006B000FDBA00005802002030B590F840500124E7
:1006C000AC40C56B6C60046863604368102B0368C2
:1006D00003D099600068C26030BD9A600068C16054
:1006E00030BD7047704703788B54114443784B708A
:1006F00082788A70C078C870704700000C4910B5C5
:100700000860012048600020886001F10C0000F0C2
:1007100035F807480C3000F005FA05480A210C307E
:1007200000F068F902480C3000F0A6F880B210BD65
:100730005000002010B558B1084C491E0BD310F8DA
:10074000013B5340DBB234F8133083EA1222F4E762
:100750004FF6FF7010BD104610BD0000C02D000800
:1007600010B5054C04E000BF10F8013B5340E25CBB
:10077000491EF9D2104610BDC02C0008F8B500245F
:10078000009490F824202546012A12D0012280F8F6
:1007900024204A681F23072A0DD20668776B521E51
:1007A00002EB820293409F430B6893401F437763A1
:1007B00019E00220F8BD06680D2A0AD2376BD21F55
:1007C00002EB820293409F430B6893401F433763C1
:1007D00009E0F76A0D3A02EB820293409F430B68EF
:1007E00093401F43F7620A68072306680A2A0AD360
:1007F000F7680A3A02EB420293409F438B689340AA
:100800001F43F76008E0376902EB420293409F43C1
:100810008B6893401F4337610A68102A01D0112A60
:1008200020D1124B02689A4217D193681B0219D447
:10083000936843F4000393600968102912D10C49AE
:100840000C4A0968B1FBF2F101EB8101490000E0BB
:10085000491E00910029FBD104E0816A41F020018A
:100860008162012480F824502046F8BD0024014014
:100870002C00002040420F000068C06C7047000050
:100880002DE9F0414FF0000704003D467ED0A06AFC
:10089000002628B9E66284F82460204600F07EF83D
:1008A0002046FFF791FEA16A01F01001014304D038
:1008B000A06A40F01000A06268E0A16A21F48851AB
:1008C00041F00201A1626268E169E3680A4347EA14
:1008D00043010A43A1684FF48077B94208D0012947
:1008E00006D00021D4F814C0BCF1010F02D00AE0F8
:1008F0003946F7E7F3B1A36A43F02003A362E36A42
:1009000043F00103E3622368D3F804C02CF4694C7C
:100910004CEA010CC3F804C023689968DFF870C082
:1009200001EA0C0111439960A168B9420BD0012979
:1009300009D00CE0DFF85CC0A3690CEB43330B4338
:1009400043F40061DFE7218A0D05A5F580152168D4
:10095000CB6A23F470032B43CB62216889680E4B6A
:100960001940914208D1E662A16A21F0020141F0EA
:100970000101A162BDE8F081A06A20F0020040F010
:100980001000A062E06A40F00100E0620120F1E79F
:10099000FDF7E1FF00E0FFFFFE0E1FFF00B585B091
:1009A0000021009101910291039100680E49884253
:1009B00018D10E48816941F400718161816901F4A7
:1009C00000710491816941F0040181618069694687
:1009D00000F004000490802000900320019004485F
:1009E00000F086FA05B000BD00240140001002406E
:1009F000000801402DE9F84300260D460446009604
:100A000000F05AFB804620688168C90508D5A06AB5
:100A100040F02000A06284F824600120BDE8F88343
:100A20004168C90503D4C06A10F4700F26D00220B3
:100A300000F0DEFB38490968B1FBF0F72068036974
:100A400036490B424FEA61014FEAA1121BD1C3683C
:100A50004FEA611C13EA0C0F15D103690B4221D137
:100A6000C06810421ED114201FE0681C06D045B398
:100A700000F022FBA0EB0800A84222D82068006802
:100A80008007F2D52AE003690B4202D1C168114206
:100A900006D0026922490A4206D1C068084203D141
:100AA000542002E0292000E0FC204743009813E096
:100AB000681C0ED02DB100F0FFFAA0EB0800A84290
:100AC00007D9A06A40F00400A06284F824600320E3
:100AD000A4E70098401C0090B842E9D321686FF069
:100AE00012000860A06A40F40070A062206880686C
:100AF000C0F3424007280CD1E06850B9A06A20F446
:100B00008070A062A06AC00403D4A06A40F0010013
:100B1000A062002082E700002C00002024499224DB
:100B20004992240070B5044690F8240001280DD0A5
:100B3000012084F824002046FFF76CFD02004FF0EE
:100B4000000005D084F82400104670BD022070BD5E
:100B5000A16A40F20123994341F48071A1621F4DC3
:100B600023681F49AB4218D10E6816F4702F14D0B9
:100B7000A66A46F48016A6620E68760505D5A66AB2
:100B800026F4005646F48056A662A66AF6040AD5F4
:100B9000E66A26F00606E66206E0A66A26F48016F5
:100BA000A6625E68E9E7E06284F824006FF0020064
:100BB000186020688368C3F34243072B05D1A8421D
:100BC00008D1096811F4702F04D0816841F48011B4
:100BD0008160B9E7816841F4A001F9E7002801408C
:100BE0000424014001680A6822F00E020A600168CC
:100BF0000A6822F001020A6090F84020C36B0121CC
:100C000001FA02F25A6080F82110002180F82010C9
:100C10000846704710B590F821100024022903D02F
:100C20000421816301243DE001680A6822F00E027C
:100C30000A6001680A6822F001020A601A4A016823
:100C4000914201D1012121E0174A1432914201D190
:100C500010211BE0144A2832914201D1891515E078
:100C6000114A3C32914201D189140FE00E4A5032B0
:100C7000914202D14FF4803108E00B4A6432914234
:100C800002D14FF4801101E04FF08071064A083A1A
:100C90005160012180F82110002180F82010416B63
:100CA00001B18847204610BD080002402DE9F05FE1
:100CB000C16B0C6801680B68D0F840C0042202FACE
:100CC0000CF2494DDFF824A1494E4A4FDFF828B114
:100CD000DFF828E122422CD05A072AD50A6892066A
:100CE00003D40A6822F004020A600168A94201D113
:100CF000042219E0514501D1402215E0B14202D150
:100D00004FF4806210E0B94202D14FF480420BE010
:100D1000594502D14FF4802206E0714502D14FF4CB
:100D2000800201E04FF080622F4908394A60C16AB1
:100D30003BE04FF0020808FA0CF818EA040F4FF0F5
:100D400000094FF0010235D05FEA837832D50B6895
:100D50009B0605D40B6823F00A030B6080F8212062
:100D60000168A94201D1022219E0514501D1202296
:100D700015E0B14202D14FF4007210E0B94202D145
:100D80004FF400520BE0594502D14FF4003206E017
:100D9000714502D14FF4001201E04FF00072124988
:100DA00008394A6080F82090816A00291AD0BDE88D
:100DB000F05F0847082505FA0CF5254212D01B07FD
:100DC00010D50B6823F00E030B6090F84010C36B36
:100DD00002FA01F15960826380F8212080F82090A6
:100DE000016BE2E7BDE8F09F080002401C000240F2
:100DF0003000024044000240580002406C000240B3
:100E000030B528B308C8134914221944B1FBF2F1D4
:100E10008900C16310498163022141771A6843F652
:100E2000F0718A43D0E900142143D0E902452C43F4
:100E300021430469214344692143846921431143C7
:100E4000196000214163012242770177084630BDD5
:100E5000012030BDF8FFFDBF0000024070B5044620
:100E600090F82000002501280CD0012084F82000F3
:100E700094F821600020012E06D084F8200002257D
:100E8000284670BD022070BD022684F82160A06350
:100E90002068066826F0010606602046FFF70CFC75
:100EA000E06A00282068016802D041F00E0106E0E7
:100EB00021F0040101602068016841F00A0101602D
:100EC0002068016841F001010160D9E770B504466E
:100ED00000F0F2F80546601C02D004480078044493
:100EE00000F0EAF8401BA042FAD370BD20000020B9
:100EF0002DE9F84FDFF890A100220AF1040B144607
:100F000001274FF00F090BF1040E00BF0B6807FA21
:100F100004F52B40AB4274D1DFF870C14E68A6EBEC
:100F20000C0866452BD00DDC032E34D005DC36B31F
:100F3000012E19D0022E2FD11BE0112E16D0122E09
:100F40002AD119E0B8F5881F19D006DCB8F5803F22
:100F500015D0B8F5801F1FD111E0B8F5001F0ED0D5
:100F6000B8F5041F18D10AE0CA6815E0CA68121D56
:100F700012E0CA6808320FE0CA680C320CE08A68D6
:100F80002AB1012A4FF0080203D0456104E004228F
:100F900002E0056100E00022FF2B01D8064601E0D7
:100FA00000F104064FEA840501D9A5F12005D6F821
:100FB00000C009FA05F82CEA080C02FA05F54CEA1B
:100FC000050CC6F800C04D68ED0057D5304DAE6930
:100FD00046F00106AE61AD6924F0030605F0010597
:100FE00000952C4D06EB050CDCF80850A6074FEADF
:100FF000167809FA08F6B543274EB04202D100260A
:1010000010E03BE0254EB04201D101260AE0244E1B
:10101000B04201D1022605E0224EB04201D10326A2
:1010200000E0042606FA08F62E43CCF808604D6866
:10103000DAF80060ED03554601D51E4300E09E43FB
:101040002E604D68DBF80060AD035D4601D51E43A0
:1010500000E09E432E604D68DEF80060ED027546AC
:1010600001D51E4300E09E432E604D68AD020E4D3B
:101070002E6801D51E4300E09E432E60641C102C98
:10108000FFF444AFBDE8F88F0004014000001110E8
:10109000001002400000014000080140000C014027
:1010A00000100140001401400C0401400AB101612C
:1010B00070470904FBE700000148806870470000A2
:1010C0002000002002488168027811448160704746
:1010D00020000020074810B5016841F010010160B0
:1010E000032000F073F8002000F006F800F024F868
:1010F000002010BD0020024070B50D4D04464FF495
:101100007A712878B1FBF0F00A490968B1FBF0F078
:1011100000F0D6FB48B9102C07D200222146501E01
:1011200000F034F800206C6070BD012070BD00003C
:10113000200000202C0000200C4808B5816941F0F7
:1011400001018161816901F001010091C16941F0F2
:101150008051C161C06900F080500090044841682E
:1011600021F0E06141F00071416008BD00100240D3
:101170000000014000F01F02012191404009800061
:1011800000F1E020C0F8001170470000F0B40E4BF1
:101190001B680C46C3F30223C3F10705042D00D9D5
:1011A0000425191D072901D2002300E0DB1E0126BA
:1011B00006FA05F1491E214099409E40761E1640D0
:1011C0003143F0BC01F0C4B80CED00E0064900F07A
:1011D000070208684FF6FF03184040EA0220034A5E
:1011E00010430860704700000CED00E00000FA05B5
:1011F00010B529A401461DCC86B08DE81D002AA09B
:101200002A4C006804900020012923D002293AD0FA
:1012100010291DD161682268D20119D5C1F383421A
:10122000C9031DF8020009D5616804AAC1F3404151
:10123000515C1F4AB2FBF1F1484301E01D494843AC
:101240006168490204D440005FF00301B0FBF1F093
:1012500006B010BD226AC2F30121012903D1920711
:1012600001D5C803F4E7022905D1626A920702D5C5
:1012700049F64040ECE70329EAD121688903E7D524
:101280004FF22440E4E700F053F96168C1F3813183
:10129000491C4900DAE700000203040506070809B3
:1012A0000A0B0C0D0E0F101001020000001002407E
:1012B00000127A0000093D002DE9F8430546007848
:1012C000354CC00754D0E0690026C00008D4E0695E
:1012D00040F08050E061E069012600F0805000900D
:1012E0002E480168C90512D40168804641F4807116
:1012F0000160FFF7E1FE074605E000BFFFF7DCFEF7
:10130000C01B642823D8D8F80000C005F6D5206A91
:1013100010F4407021D0A98801F4407181421CD0A2
:10132000206A1F49012220F440700A6000220A60EE
:101330002062C00711D0FFF7BFFE074641F2883890
:1013400008E000BFFFF7B8FEC11B414502D90320EA
:10135000BDE8F883206A8007F4D5206A696820F424
:101360004070084320621EB1E06920F08050E061C7
:101370002878800705D56068A96820F440400843B4
:1013800060602878C00605D56068E96820F48000B0
:10139000084360600020DBE700100240007000405E
:1013A000400442422DE9F047DFF8548105460E46DD
:1013B000D8F8000000F00700B0420CD2D8F80010B6
:1013C00021F007013143C8F80010D8F8000000F000
:1013D0000700B0426FD128684A4C810712D54007F8
:1013E00003D5606840F4E06060602878000703D5AA
:1013F000606840F4605060606068A96820F0F000A8
:10140000084360602878C00744D06868012816D077
:101410002168022816D0890700294CDA616821F07A
:10142000030101436160FFF747FE6968074641F227
:10143000883001290ED00229814618D026E0216883
:101440008903E9E78901E7E7FFF736FEC11B494554
:1014500001D918E081466068C0F381000128F3D10A
:1014600018E000BFFFF728FEC11B49450BD8606894
:10147000C0F381000228F5D10CE000BFFFF71CFE8D
:10148000C11B494502D90320BDE8F087606810F010
:101490000C0FF3D1D8F80010404601F00701B1421B
:1014A0000BD9016821F0070131430160006800F0A9
:1014B0000700B04201D00120E6E72878400705D5B3
:1014C0006068E96820F4E0600843606028780007FD
:1014D00006D56068296920F4605040EAC100606068
:1014E00000F036F86168084AC1F30311515CC84046
:1014F000064908600020FFF7FFFD0020C4E7000058
:101500000020024000100240C02F00082C000020E4
:101510000448054900684968044AC1F30221515C46
:10152000C84070472C00002000100240D02F000857
:101530000448054900684968044AC1F3C221515C66
:10154000C84070472C00002000100240D02F000837
:1015500012A185B00FC98DE80F0014A0144A0068CD
:1015600004905168134801F00C03042B10D0082B91
:101570000ED1C1F38343C9031DF803000AD5516896
:1015800004AAC1F34041515C0A4A5043B0FBF1F058
:1015900005B0704708494843FAE700000203040514
:1015A000060708090A0B0C0D0E0F101001020000AF
:1015B0000010024000127A0000093D002DE9F84FAA
:1015C00004460078B94DC00748D06868C0F3810070
:1015D000012807D06868C0F38100022809D1686833
:1015E000C00306D52868800338D5606800286FD00E
:1015F00034E06068B0F5803F0BD010B1B0F5A02F9B
:1016000011D0286820F480302860286820F48020D9
:1016100002E0286840F480302860606888B1FFF7F5
:101620004BFD064609E0286840F480202860F0E77A
:10163000FFF742FD801B642875D828688003F7D522
:101640000CE0FFF739FD064605E000BFFFF734FD6B
:10165000801B6428F0D828688003F7D42078944E43
:1016600080074FF001094FF000083BD5686810F083
:101670000C0F07D06868C0F38100022809D16868A0
:10168000C00306D42868800714D5206901281FD11B
:1016900010E02069B0B1C6F80090FFF70DFD0746D5
:1016A00005E000BFFFF708FDC01B0228C4D828686A
:1016B0008007F7D52868616920F0F80040EAC1008A
:1016C00028600FE0C6F80080FFF7F6FC074606E04A
:1016D000E9E000BFFFF7F0FCC01B022823D8286810
:1016E0008007F7D4207800072CD57248A169D9B1BA
:1016F000C0F80090FFF7E0FC074604E0FFF7DCFCD1
:10170000C01B02280FD8686A8007F7D56A484FF4D3
:10171000FA510068B0FBF1F0009000BF0098411E44
:101720000091FAD20EE080E0C0F80080FFF7C4FC20
:10173000074604E0FFF7C0FCC01B022875D8686AA2
:101740008007F7D42078400760D5E8690027C000FB
:1017500008D4E86940F08050E861E869012700F0AA
:101760008050009055480168C90513D4016883462C
:1017700041F480710160FFF79FFC824606E000BFE4
:10178000FFF79AFCA0EB0A0064284ED8DBF80000B3
:10179000C005F5D5E06801280AD008B1052813D0A6
:1017A000286A20F001002862286A20F0040002E084
:1017B000286A40F001002862E06841F2883B98B155
:1017C000FFF77AFC82460BE0286A40F004002862AA
:1017D000EEE700BFFFF770FCA0EB0A0159455AD8AD
:1017E000286A8007F6D50CE0FFF766FC824605E024
:1017F000FFF762FCA0EB0A0159454CD8286A800724
:10180000F6D41FB1E86920F08050E861E06988B340
:101810006968C1F38101022945D00228C6F86080B9
:1018200004D0FFF749FC044638E034E0FFF744FCFD
:10183000074604E0FFF740FCC01B02282BD82868AD
:101840008001F7D4206AB0F5803F05D16868A168AF
:1018500020F4003008436860D4E90801084369684F
:1018600021F4741108436860C6F86090FFF724FC07
:10187000044606E015E000BFFFF71EFC001B02282F
:1018800009D828688001F7D50BE000BFFFF714FCEA
:10189000001B022802D90320BDE8F88F28688001C8
:1018A000F4D40020F8E70120F6E700000010024021
:1018B00000004242800442422C00002000700040A0
:1018C00010B5401EB0F1807F01D3012010BD4FF054
:1018D000E02460610F21601700F03AFD0020A06154
:1018E00007202061002010BD7047704730B590F888
:1018F0003C20012A20D0012280F83C20022380F8DD
:101900003D3003685C6824F070045C6003685C68C8
:101910000D682C435C6003689C6824F080049C6024
:1019200003689C6849680C439C6080F83D20002156
:1019300080F83C10084630BD022030BD10B50400D0
:1019400003D094F83D0010B107E0012010BD002045
:1019500084F83C00204600F00DF8022084F83D0099
:10196000211D206800F062FD012084F83D00002068
:1019700010BD000008B5114A01681148914208D114
:10198000816941F400618161806900F40060009028
:1019900008BDB1F1804FFBD1C16941F00101C161C6
:1019A000C069002200F00100009011461C20FFF7E2
:1019B000EDFBBDE808401C20FFF7DCBB002C01401C
:1019C000001002400168CA6842F00102CA60006863
:1019D000016841F0010101600020704770B50446C4
:1019E00090F83C00012817D0012584F83C500220D3
:1019F00084F83D002068826822F0770222F47F425A
:101A000082600868502837D00DDC202859D005DCCA
:101A100088B3102841D151E0022070BD302853D046
:101A200040283AD13FE060282ED070280BD0B0F586
:101A3000805F03D0B0F5005F2FD110E0206881688F
:101A400021F0070115E0CB68D1E90121206800F001
:101A500023FD2168886840F0770088601DE0CB682E
:101A6000D1E90121206800F017FD2068816841F468
:101A70008041816011E01EE0CA684968206800F07A
:101A80001DFD5021206806E0CA684968206800F002
:101A900026FD6021206800F009FD84F83D500020FB
:101AA00084F83C0070BDCA684968206800F006FDF3
:101AB00040212068EFE700212068ECE71021206832
:101AC000E9E720212068E6E730212068E3E7704756
:101AD00070B50446006801694FF00005C9438907E5
:101AE00015D4C168C943890711D4E91E01610120D9
:101AF0002077206880698007204602D0FFF7E7FF43
:101B000004E000F098F8204600F096F82577206869
:101B10000169C943490717D4C168C943490713D4A8
:101B20006FF004010161022020772068806910F4C1
:101B3000407F204602D0FFF7CAFF04E000F07BF8A8
:101B4000204600F079F8257720680169C943090724
:101B500016D4C168C943090712D46FF008010161A6
:101B6000042020772068C0698007204602D0FFF754
:101B7000AEFF04E000F05FF8204600F05DF8257746
:101B800020680169C943C90617D4C168C943C90699
:101B900013D46FF010010161082020772068C0691C
:101BA00010F4407F204602D0FFF791FF04E000F0E0
:101BB00042F8204600F040F8257720680169C943C3
:101BC000C90708D1C168C943C90704D1891E016189
:101BD000204600F033F820680169C943090609D49A
:101BE000C168C943090605D46FF080010161204630
:101BF000FFF77AFE20680169C943490609D4C16824
:101C0000C943490605D46FF040010161204600F048
:101C100027F820680169C94389060BD4C168C94304
:101C2000890607D46FF0200101612046BDE87040AD
:101C3000FFF75BBE70BD7047704700000549006844
:101C40000968884204D11C220349044800F00EBAF6
:101C500070470000CC000020320300204C0100201F
:101C6000704710B504460068416994F83920C1F303
:101C7000C011212A0BD151B1416921F0800141618C
:101C8000206B08B1FEF7AEFF204600F0B4FC2068E0
:101C9000416994F83A20C1F38011222A0BD151B145
:101CA000416921F040014161606B08B1FEF79AFF84
:101CB000204600F092FC002010BD704770B502680D
:101CC00004461068D168536910F00F0F51D003F02B
:101CD000010501F4907635435DD0C20705D0CA05F1
:101CE00003D5E26B42F00102E263420705D5DA0751
:101CF00003D0E26B42F00202E263820705D5DA0705
:101D000003D0E26B42F00402E263020705D5DA0772
:101D100003D0E26B42F00802E263E26B002A34D0A7
:101D2000800604D5880602D5204600F06DFC2068A8
:101D30004069E16BC0F3801001F0080101432046C7
:101D400024D000F04AFC2068416949061AD541694F
:101D500021F040014161606BA0B11B494163606BA0
:101D6000FEF758FF002810D0606B416BBDE8704053
:101D7000084783060FD58B060DD52046BDE8704079
:101D800000F042BC2046FFF798FF70BDFFF795FFBB
:101D90000020E06370BD030606D50B0604D520467F
:101DA000BDE8704000F034BD4006F3D54806F1D5DB
:101DB000D168204621F04001D160202184F83910FB
:101DC00000F094F970BD00000325000870B5040010
:101DD00004D094F83900002510B106E0012070BD50
:101DE00084F83850204600F023F8242084F8390085
:101DF0002068C16821F40051C160204600F050FC09
:101E00002068016921F4904101612068416921F055
:101E10002A0141612068C16841F40051C160E56355
:101E2000202084F8390084F83A00002070BD0000BA
:101E30002DE9F04385B000250095019502950395A5
:101E400004465B4E03685B480221032280274FF063
:101E50001009B34255D1836943F480438361836998
:101E600003F480430493836943F00803836180692A
:101E7000514E00F0080004904020CDE9000103928B
:101E800069463046FFF734F8CDE9007569463046BB
:101E90000295FFF72DF84949486840F0E06040F0AE
:101EA00004004860474E46484FF48058C6E9000594
:101EB000C6E9025735617561C6E906583046FEF736
:101EC0009FFF08B1FEF70EFC666374623D4E3C480E
:101ED00044361438C6E9025735617561C6E9000910
:101EE000C6E906583046FEF78BFF08B1FEF7FAFB4D
:101EF00026630022114625207462FFF747F925204A
:101F000051E0314EB34250D1C36943F40033C36151
:101F1000C36903F400330493836943F004038361CA
:101F200080692A4E00F0040004900420CDE90001ED
:101F3000039269463046FEF7DBFF0820CDE9000535
:101F4000694630460295FEF7D3FF1E4E1C48883680
:101F50001430C6E90005C6E9025735617561B561FF
:101F60003046F561FEF74CFF08B1FEF7BBFB666338
:101F70007462144E1248CC362830C6E902573561D7
:101F80007561B561F561C6E900093046FEF738FFB5
:101F900008B1FEF7A7FB26630022114626207462D3
:101FA000FFF7F4F82620FFF7E5F805B0BDE8F08369
:101FB0000038014000100240000C014000000140C8
:101FC000580002408C0100200044004000080140FD
:101FD000F8B5044690F83A0020283CD1C1B3BAB312
:101FE00094F83800012836D0012084F83800A16226
:101FF000A2850025E563222084F83A00636B174828
:102000009862636B1648D862636B16481863606BFE
:10201000134645630846666B216802463046091D33
:10202000FEF71CFF206801684168009184F8385071
:10203000C16841F48071C1602068416941F00101CB
:1020400041612068416941F0400141610020F8BDD3
:10205000FFE70120FBE70220F9E700005D2500080B
:1020600099250008132500087047704770B504468D
:1020700090F83900202830D169B362B394F8380061
:1020800001282AD0012084F838002162A284E28449
:102090000025E563212084F83900236B10489862FD
:1020A000236B1048D862236B0F481863206B1346CC
:1020B00045632668206B321DFEF7D0FE21686FF065
:1020C0004000086084F838502068416941F0800180
:1020D0004161002070BD012070BD022070BD000074
:1020E000A3250008D1250008132500087047704774
:1020F000FEE700003EB500241148009401940294CC
:102100008460C4600D4944610160012505614FF49C
:1021100060214460C161FEF7B3FB08B1FEF7E2FA4B
:102120000720CDE90005694602940548FEF726FB25
:10213000002801D0FEF7D6FA3EBD00000024014081
:102140005C000020154808B5416941F0010141617A
:102150004069002200F00100009011460E20FFF7B8
:1021600015F80E20FFF706F8002211460F20FFF7A2
:102170000DF80F20FEF7FEFF002211461020FFF79A
:1021800005F81020FEF7F6FF002211461120FEF799
:10219000FDFFBDE808401120FEF7ECBF0010024033
:1021A00070B586B0002418480094019402940394FA
:1021B000816941F020018161816901F02001049170
:1021C000816941F004018161816901F00401049198
:1021D000816941F00801816180690C4E00F00800BE
:1021E0004FF480750490002229463046FEF75EFFCA
:1021F00001200095CDE90104032003906946304693
:10220000FEF776FE06B070BD0010024000080140E7
:1022100010B586B0002416480094019402940394EB
:10222000049412490594C0E900148460C4600461F8
:1022300044618461FFF782FB08B1FEF753FA4FF463
:102240008050009069460A48FFF7C8FB08B1FEF7C6
:1022500049FA049404A906480594FFF747FB0028AF
:1022600001D0FEF73FFA06B010BD0000002C01407F
:102270008C00002010B586B000241748009401940B
:102280000294039404944FF080410594016041F658
:102290001F41C0E9011440F2E731C0E90314846131
:1022A000FFF74CFB08B1FEF71DFA4FF48050009089
:1022B00069460948FFF792FB08B1FEF713FA049448
:1022C00004A905480594FFF711FB002801D0FEF78B
:1022D00009FA06B010BD0000CC0000200C4810B573
:1022E0000A4901604FF4E1314160002181600C2214
:1022F000C160C0E904128161C161FFF767FD002878
:1023000003D0BDE81040FEF7EDB910BD0038014024
:102310000C0100200C4810B50A4901604FF4E1316E
:102320004160002181600C22C160C0E9041281611A
:10233000C161FFF74BFD002803D0BDE81040FEF758
:10234000D1B910BD004400404C010020FEE77047A9
:102350000907090E002806DA00F00F0000F1E0205E
:1023600080F8141D704700F1E02080F800147047D9
:1023700070477047FEF7A6BE30B593B02821684677
:10238000FDF7E7FE14210AA8FDF7E3FE0024012073
:102390000F9410941194010412948DE8130004908A
:1023A0004FF4E010CDE90810022507956846FFF7C5
:1023B00005F90F20CDE90A056802CDE90C4002219C
:1023C0000AA80E94FEF7EEFF0FA80F951194FEF7E2
:1023D00073FF13B030BD00000D48016841F00101EA
:1023E000016041680B4A1140416001680A4A11408E
:1023F0000160016821F480210160416821F4FE013F
:1024000041604FF41F0181600449C00308607047B8
:10241000001002400000FFF8FFFFF6FE08ED00E0AC
:102420000148FFF755BB0000CC000020F0B5026862
:10243000164B174C174D4FF08047984205D0B842C5
:1024400003D0A04201D0A84203D122F070064A680E
:102450003243984205D0B84203D0A04201D0A842EE
:1024600003D122F44074CA68224322F080044A69EE
:10247000224302608A68C2620A688262984201D17D
:102480000969016301214161F0BD0000002C014098
:10249000000400400008004010B5846842EA0322AE
:1024A00024F47F440A432243826010BD826822F0F4
:1024B00070020A4342F007018160704710B5036A59
:1024C000046A24F001040462846924F0F00444EAFC
:1024D000021423F00A020A438461026210BD10B59F
:1024E000036A23F0100303628369046A23F47043D0
:1024F00043EA023224F0A00343EA0111826101623F
:1025000010BD10B5406A0021C185C184FFF7D5FB1D
:1025100010BD70B5446A2068406994F83910C0F362
:10252000C0100025212904D118B1E584204600F00F
:1025300062F82068406994F83A10C0F380102229AC
:1025400004D118B1E585204600F047F8E06B40F073
:102550001000E0632046FFF7B0FB70BD10B50146E8
:10256000406A09680968890613D40021C185016899
:10257000CA6822F48072CA6001684A6922F00102C6
:102580004A6101684A6922F040024A61202180F8CC
:102590003A10FFF769FD10BD10B5406AFFF765FD01
:1025A00010BD10B50146406A0968096889060CD457
:1025B0000021C18401684A6922F080024A610068F2
:1025C000C16841F04001C16010BDFFF78FFD10BD33
:1025D00010B5406AFFF78BFD10BD0168CA6822F490
:1025E0009072CA6001684A6922F001024A612021A2
:1025F00080F83A1070470168CA6822F0C002CA60C9
:10260000202180F83910704710B590F83A1022292F
:1026100001D0022010BD8168B1F5805F11D0016941
:10262000002901681FD0496801F07F03816A4A1CB4
:1026300082620B70C18D491E0904090CC18518D036
:102640002BE00269816A002A0268526805D0D2B282
:102650000A80816A491C8162ECE7C2F308020A80A1
:10266000816A891CF7E74A68816A4B1C83620A7099
:10267000E0E70168CA6822F02002CA600168CA68FF
:1026800022F48072CA6001684A6922F001024A613C
:10269000202180F83A10FFF7E7FC002010BD000071
:1026A0002DE9F041044600680169E26821F44051D7
:1026B000114301612169A0680843616908432168E9
:1026C000CA6841F20C639A430243CA6020684169B8
:1026D000A26921F44071114341614C49206864258D
:1026E000322688423CD1FEF723FF00EBC00101EB0C
:1026F000001061688900B0FBF1F7FEF719FF00EBED
:10270000C00101EB00106168B0468900B0FBF1F038
:10271000B0FBF5F06FF01801484307EB800106EBC2
:102720000110B0FBF5F000F0F006FEF701FF00EB42
:10273000C00101EB001061688900B0FBF1F0B0FB53
:10274000F5F006EB0016FEF7F3FE00EBC00101EB1F
:10275000001061688900B0FBF1F7FEF7E9FE3BE08D
:10276000FEF7D6FE00EBC00101EB001061688900A6
:10277000B0FBF1F7FEF7CCFE00EBC00101EB00105F
:102780006168B0468900B0FBF1F0B0FBF5F06FF086
:102790001801484307EB800106EB0110B0FBF5F090
:1027A00000F0F006FEF7B4FE00EBC00101EB0010F4
:1027B00061688900B0FBF1F0B0FBF5F006EB0016A4
:1027C000FEF7A6FE00EBC00101EB00106168890076
:1027D000B0FBF1F7FEF79CFE00EBC00101EB00102F
:1027E00061688900B0FBF1F0B0FBF5F06FF0180103
:1027F000484307EB800108EB0110B0FBF5F02168BE
:1028000000F00F0030448860BDE8F08100380140DE
:1028100090F83910212901D0022070478168B1F564
:10282000805F016A0BD04A1C02620268097851601D
:10283000C18C491E0904090CC1840ED017E0098817
:102840000268C1F30801516001690029016A02D0E0
:10285000491C0162ECE7891CFBE70168CA6822F0A9
:102860008002CA600068C16841F04001C160002078
:10287000704700002DE9F84F4FF6FF774F48FFF7FC
:102880001DFA4E4800680168C1F3001100297DD08F
:1028900001684FF0000941680091016840684748AD
:1028A000FFF7DFF94648006846684FF001087A2EC6
:1028B0007BD1444C04F1C2056079012828D1A0796C
:1028C000032825D11C21204600F02EF900B33E48F4
:1028D000217CC170E17B8170A17B4170617B0170C3
:1028E00001682960217DC170E17C8170A17C41700B
:1028F000617C017001686960217EC170E17D817039
:10290000A17D4170617D01700068A860607E2873C0
:102910002E482C4CFF22B23400682060686860604A
:10292000A868A060287B20730421A4F1CE00FDF7E5
:1029300017FF82463A461A21A4F1CE00FDF7FAFEAF
:102940000746A4F1CE05A52028701320687085F8ED
:10295000029085F8038085F804A085F8058003219E
:10296000A9718021E971D12129720E21697285F83E
:102970000A901421E97285F80C800D222946204620
:10298000FDF7B1FE11222946201D01E014E00CE004
:10299000FDF7A9FE2946152201F1D600FDF7A3FE99
:1029A000207B6876AF76380AE8760748C6F196014C
:1029B0000838818080F80180BDE8F88F0C01002084
:1029C0008C0100204E0300201C000020100000207D
:1029D0002DE9F84F4FF6FF7B4948FFF76FF948485C
:1029E00000680168474EDFF82081C1F300114FF005
:1029F000000A4FF00109E9B30168416800910168DC
:102A000040683F48FFF72DF9404800684768662F47
:102A100001D04E2F35D13E4C3E4D6079022817D162
:102A2000A079022814D11721204600F07DF878B152
:102A3000A07BE870607BA870207B6870E07A2870CB
:102A400028687060A07C6870607C2870288870811D
:102A500094F83500012814D194F83600022810D1DA
:102A60002B481821303000F05FF850B194F8400046
:102A7000687000E00CE094F83F0028702888A8F8FF
:102A800008002448C7F196010838418080F800907A
:102A9000214D7068FF2228607089A880B8F808006E
:102AA000E88004211D48FDF75BFE06465A460F21CB
:102AB0001A48FDF73FFE194C0746A5202070132049
:102AC000607084F802A084F803902671022060717F
:102AD000A071072221462846FDF705FEA888E0726E
:102AE000000A2073E8886073000AA073380AE7734D
:102AF00020742146BDE8F84F11220948FFF7B6BA05
:102B00004C01002040000020300000201402002072
:102B10009C0200201C00002004000020E403002090
:102B20000C010020FEE7000030B50C46050014D073
:102B3000022C12D90A48A11E02882846FDF7FAFD88
:102B40002919C2B211F8023C9A4206D111F8011CAF
:102B5000B1EB102F01D1012030BD002030BD0000AD
:102B60000000002002E008C8121F08C1002AFAD1A4
:102B700070477047002001E001C1121F002AFBD1FD
:102B800070470000FEF7A6FAFFF7F6FBFFF708FB19
:102B9000FFF7D8FAFFF7A2FBFFF76CFBFFF738FB54
:102BA000FFF7B8FBFFF7A6FA3548FEF70BFF3548ED
:102BB0000068C16841F01001C16033480068C16815
:102BC00041F01001C160962230492E48FFF700FA0B
:102BD00096222F492C48FFF7FBF94FF4FA70FEF7C5
:102BE00075F9012211022B48FEF760FADFF8A8A060
:102BF0002A4DDFF8ACB02B4E2B4F6FF00B084FF087
:102C0000663900240720FDF779FDFDF7F3FB414607
:102C1000FDF772FBFDF7F3FB4A465346FDF778FBE1
:102C2000FDF700FCFDF7EBFB5A46204BFDF770FB70
:102C3000FDF7F8FB4FF082412860FDF7E7FA1C49E9
:102C4000FDF71CFB1B49FDF7E7FA686030780128A7
:102C500007D1194896220D49048034700948FFF7BE
:102C6000B7F93878012807D114489622084904801A
:102C70003C700548FFF7ACF90120FEF727F9C1E7E2
:102C8000CC0000204C0100200C0100209C02002000
:102C90004E0300200008014066660A400C00002038
:102CA000B81E85EB14000020150000205138264086
:102CB000000078410000C8421600002018000020E3
:102CC000005EBCE2613FDD83C29C7E20A3FD1F410C
:102CD0009DC3217FFCA2401E5F01E3BD3E6082DCFC
:102CE000237D9FC1421CFEA0E1BF5D0380DE3C62EC
:102CF000BEE0025CDF81633D7C22C09E1D43A1FFDC
:102D00004618FAA427799BC584DA3866E5BB5907CB
:102D1000DB856739BAE406581947A5FB7826C49ABB
:102D2000653BD987045AB8E6A7F91B45C6987A24AB
:102D3000F8A6441A99C7257B3A6486D85B05E7B99B
:102D40008CD2306EEDB3510F4E10F2AC2F7193CD8B
:102D5000114FADF3702ECC92D38D6F31B2EC0E507B
:102D6000AFF1134DCE90722C6D33D18F0C52B0EE6B
:102D7000326C8ED0530DEFB1F0AE4C1291CF2D735B
:102D8000CA947628ABF517490856B4EA6937D58B4B
:102D90005709EBB536688AD495CB2977F4AA48163B
:102DA000E9B7550B88D6346A2B7597C94A14F6A82B
:102DB000742AC896154BA9F7B6E80A54D7896B351B
:102DC0000000891112239B322446AD573665BF742B
:102DD000488CC19D5AAFD3BE6CCAE5DB7EE9F7F8DB
:102DE0008110080193331A22A5562C47B7753E640B
:102DF000C99C408DDBBF52AEEDDA64CBFFF976E8BB
:102E000002218B30100299132667AF763444BD55EA
:102E10004AADC3BC588ED19F6EEBE7FA7CC8F5D99A
:102E200083310A2091121803A7772E66B5543C45CA
:102E3000CBBD42ACD99E508FEFFB66EAFDD874C97A
:102E400004428D5316619F702004A9153227BB36AA
:102E50004CCEC5DF5EEDD7FC6888E1997AABF3BA5A
:102E600085520C4397711E60A1142805B3373A268A
:102E7000CDDE44CFDFFD56ECE9986089FBBB72AA3A
:102E800006638F7214409D512225AB343006B9176A
:102E90004EEFC7FE5CCCD5DD6AA9E3B8788AF19B1A
:102EA00087730E6295501C41A3352A24B11638074A
:102EB000CFFF46EEDDDC54CDEBB962A8F99A708BFA
:102EC000088481951AA793B62CC2A5D33EE1B7F02A
:102ED0004008C919522BDB3A644EED5F766DFF7CDA
:102EE000899400859BB712A6ADD224C3BFF136E00A
:102EF000C1184809D33B5A2AE55E6C4FF77D7E6CBA
:102F00000AA583B4188691972EE3A7F23CC0B5D1E9
:102F10004229CB38500AD91B666FEF7E744CFD5D99
:102F20008BB502A499961087AFF326E2BDD034C1C9
:102F3000C3394A28D11A580BE77F6E6EF55C7C4D79
:102F40000CC685D71EE597F42880A1913AA3B3B2A9
:102F5000444ACD5B5669DF78600CE91D722FFB3E59
:102F60008DD604C79FF516E4A9902081BBB332A289
:102F7000C55A4C4BD7795E68E11C680DF33F7A2E39
:102F80000EE787F61CC495D52AA1A3B03882B19369
:102F9000466BCF7A5448DD59622DEB3C700EF91F19
:102FA0008FF706E69DD414C5ABB122A0B992308349
:102FB000C77B4E6AD5585C49E33D6A2CF11E780FF9
:102FC00000000000000000000102030406070809D9
:102FD0000000000001020304F82F00080000002098
:102FE00030000000642B000828300008300000206A
:102FF000F0070000742B0008FFFF00000000000035
:1030000000000000000000000000000000000000C0
:10301000000000000000000001000000100000009F
:083020000000000000A24A04B8
:04000005080000ED02
:00000001FF
