:020000040800F2
:10000000284D002059020008E56200088B580008BE
:10001000E16200082B090008BD7300080000000021
:100020000000000000000000000000009D0100082A
:10003000570D000800000000F101000819660008D3
:1000400073020008730200087302000873020008BC
:1000500073020008730200087302000873020008AC
:10006000730200087302000873020008730200089C
:10007000730200087302000873020008730200088C
:100080003D0C0008730200087302000841090008D3
:1000900031090008730200087302000873020008A7
:1000A000730200087302000873020008730200085C
:1000B0007302000869670008796700087302000886
:1000C000730200087302000873020008730200083C
:1000D000730200088D7300089D730008AD7300085B
:1000E000730200087302000873020008730200081C
:1000F000730200087302000873020008730200080C
:100100007302000873020008896700087302000880
:100110007302000873020008996700087302000860
:1001200073020008730200087302000873020008DB
:1001300073020008730200087302000873020008CB
:1001400073020008730200087302000873020008BB
:1001500073020008730200087302000873020008AB
:10016000730200087302000873020008730200089B
:100170007302000873020008730200080000000008
:100180007302000873020008DFF80CD000F090FB47
:100190000048004709A50008284D00202B4B19688E
:1001A0000868B0E8F04F80F30988BFF36F8F4FF015
:1001B000000080F3118870470000000006480068C6
:1001C000006880F3088862B661B6BFF34F8FBFF353
:1001D0006F8F00DF00BF00BF08ED00E0DFF80C000C
:1001E000016841F470010160704700BF88ED00E0D4
:1001F000EFF30980BFF36F8F144B1A681EF0100FD6
:1002000008BF20ED108A20E9F04F106008B44FF0CD
:10021000500080F31188BFF34F8FBFF36F8F0CF046
:10022000FDFD4FF0000080F3118808BC19680868D4
:10023000B0E8F04F1EF0100F08BFB0EC108A80F34A
:100240000988BFF36F8F704700BF00BFC000002058
:10025000EFF30580704700000648804706480047D6
:10026000FEE7FEE7FEE7FEE7FEE7FEE7FEE7FEE766
:10027000FEE7FEE705670008890100082DE9F05F49
:100280000546002092469B46884606468146402405
:100290001BE0284641464746224600F05AFA53469C
:1002A0005A46C01A914110D311461846224600F012
:1002B00041FA2D1A67EB01084F4622460120002122
:1002C00000F038FA17EB00094E41201EA4F101049A
:1002D000DFDC484631462A464346BDE8F09F2DE91B
:1002E000F0410024061B254671F1000605DA0124C1
:1002F0000027D0EB070067EB0101161E73F1000623
:1003000005DA0027D2EB0702012567EB0303FFF7AD
:10031000B5FF86460E4617469C46AC4204D00025E3
:10032000D0EB050E65EB010624B10020D2EB0007EF
:1003300060EB030C704631463A466346BDE8F081F7
:1003400040EA01039B0703D009E008C9121F08C057
:10035000042AFAD203E011F8013B00F8013B521ED7
:10036000F9D27047D2B201E000F8012B491EFBD24E
:1003700070470022F6E710B513460A4604461946B0
:10038000FFF7F0FF204610BD30B5044600200346BD
:1003900000E05B1C934203D2E05CCD5C401BF8D0D4
:1003A00030BD2DE9FE4F804681EA0300C00F0C46A8
:1003B000009021F0004123F00045B8EB0200A94174
:1003C00005D24046214690461C460B46024623F085
:1003D0000040104347D0270DC7F30A00C3F30A516A
:1003E0000290401A019040286BDAC3F3130040F4E6
:1003F000801B0098924620B10023D2EB030A63EBE6
:100400000B0B01985946C0F14002504600F092F99A
:1004100006460D4650465946019A00F0AAF910EBDF
:1004200008006141002487EA115284EAE7731A4305
:1004300040D0009A62B3019A012A4FEA075215DCB4
:10044000001B61EB02014FF0004202EA0752CDE9C6
:100450000042001C41F5801132462B4600F0AAF9FB
:1004600003B0BDE8F08F40462146F9E7001B61EB81
:100470000201001C41F5801300185B412018A2F511
:10048000001747EB030140EAD570B6196D4111E042
:100490006D084FEA360645EAC0754FEA0752001B61
:1004A00061EB0201001C41F5801149084FEA300060
:1004B0000019514132462B4603B0BDE8F04F00F021
:1004C0006AB90098012240000023D0EB020263EBDE
:1004D000E073009821464FEAE074B8EB000061EB4E
:1004E0000401E9E783F000435BE781F0004158E74E
:1004F0002DE9FE4F81EA030404F0004421F000419D
:1005000000944FF0000B23F0004350EA01045ED04A
:1005100052EA03045BD0C3F30A54C1F30A552C44D6
:10052000A4F2F3340194A0FB0254C1F3130141F48B
:100530008011C3F3130343F4801301FB024400FB57
:10054000034E840A970A44EA815447EA8357A4FB7E
:10055000076802958D0A05FB07854FEA932C04FB7B
:100560000C542705029D4FEA065847EA1637B5EBAB
:1005700008056EEB070C870E920E47EA811742EAD8
:100580008312A7FB0201B6EB0B0164EB00042B0DF9
:1005900043EA0C335E1844EB1C50DA465146E7FB45
:1005A0000201C5F313044FEA0B3343EA14534FEA35
:1005B0000432019C43EA0603A4F10C040294009C5B
:1005C000CDE900B400F0F6F803B0BDE8F08F0020EC
:1005D0000146F9E72DE9F04D81EA030404F0004BF0
:1005E00021F0004514464FF0000A23F0004150EA84
:1005F000050220D054EA01021DD0C5F30A57024675
:10060000C5F31303C1F31300C1F30A5640F4801578
:1006100043F48013A7EB0608101BD64608F2FD38FA
:1006200073EB050002D308F1010801E092185B4169
:10063000B8F1000F03DA00200146BDE8F08D00207C
:100640004FF48011064684460EE0171B73EB050736
:1006500005D3121B63EB050306434CEA010C490862
:100660004FEA300092185B4150EA0107EDD152EA9F
:10067000030012D082EA040083EA0501084305D092
:10068000101BAB4106D20122002306E000224FF0EE
:10069000004302E06FF0010253101AEB06004CEB2E
:1006A000085110EB0A0041EB0B01BDE8F04D00F0E2
:1006B00072B800F0004230F000400AD0C10D01F5E0
:1006C0006071C0F3160042EA0151C20840071143AD
:1006D000704700200146704730B5041E71F10004D8
:1006E00004DB4FF00044404264EB0101141E73F13F
:1006F000000405DB1C464FF00043524263EB040349
:100700008B4208BF824230BD30B50B460146002007
:100710002022012409E021FA02F59D4205D303FAC3
:1007200002F5491B04FA02F52844151EA2F1010244
:10073000F1DC30BD202A04DB203A00FA02F100206F
:1007400070479140C2F1200320FA03F3194390400F
:100750007047202A04DB203A21FA02F0002170477A
:1007600021FA02F3D040C2F1200291400843194619
:100770007047202A06DBCB17203A41FA02F043EA01
:10078000E07306E041FA02F3D040C2F1200291404A
:1007900008431946704710B5141E73F1000408DAB7
:1007A000401C41F1000192185B411A4301D120F035
:1007B000010010BD2DE9F04D92469B4611B1B1FAF2
:1007C00081F202E0B0FA80F220329046FFF7B2FFE9
:1007D00004460F4640EA0A0041EA0B0153465A46D6
:1007E000084313D0114653EA010019D0C8F1400262
:1007F0005046FFF7AEFF05460E4650465946424664
:10080000FFF798FF084305D0012004E02046394651
:10081000BDE8F08D0020054346EAE0762C433743DF
:100820000A986305E40AA0EB08000022FD0A44EAE6
:1008300047540A3002D500200146E9E701051019A6
:100840006941DDE9084500196941BDE8F04DA2E7BD
:10085000C1F30A52C1F3130140F2FF3341F4801196
:100860009A4202DA00200146704740F233439A422E
:10087000A2F2334202DC5242FFF76BBFFFF75ABFCE
:1008800030B5041E71F1000404DB4FF00044404217
:1008900064EB0101141E73F1000405DB1C464FF0EC
:1008A0000043524263EB0403994208BF904230BDBB
:1008B000064C074D06E0E06840F0010394E80700AD
:1008C00098471034AC42F6D3FFF762FC78EA000890
:1008D00098EA000870B58C1810F8015B15F0070352
:1008E00001D110F8013B2A1106D110F8012B03E0C9
:1008F00010F8016B01F8016B5B1EF9D12B0705D4D1
:100900000023521E0DD401F8013BFAE710F8013B19
:10091000CB1A921C03E013F8015B01F8015B521E35
:10092000F9D5A142D8D3002070BD00BFFEE700007A
:1009300010B5024800F07EFC10BD0000C008002089
:1009400010B5024800F076FC10BD0000C008002081
:100950002DE9F04104460D46002700260DB9666BCF
:1009600000E0A66B206800F5D87000EB0510006869
:1009700000F00400B060B06858B9206800F5D87085
:1009800000EB0510006840F2FF7101EA5050306042
:100990000AE0206800F5D87000EB051000686FF0E1
:1009A000604101EAD0007060206800F5D87000EB6B
:1009B0000510006800F00200F060206800F5D870B3
:1009C00000EB0510406800F00F00306135622068D0
:1009D00000F5D87000EB05104068C0F30720F06107
:1009E000206800F5D87000EB05108068307520682D
:1009F00000F5D87000EB05108068010A7175206859
:100A000000F5D87000EB05108068010CB175206806
:100A100000F5D87000EB05108068000EF0752068B6
:100A200000F5D87000EB0510C0683076206800F53E
:100A3000D87000EB0510C068010A7176206800F5D7
:100A4000D87000EB0510C068010CB176206800F585
:100A5000D87000EB0510C068000EF0764DB920206C
:100A60002168C8602068406920F00A002168486158
:100A700008E02020216808612068406920F05000CB
:100A80002168486194F83C70222F01D0322F05D1A3
:100A90002068406920F40F4021684861CDB994F87E
:100AA0003C00422804D0622806D072280CD107E00E
:100AB000122084F83C000BE0322084F83C0007E070
:100AC000522084F83C0003E0012084F83C0000BF81
:100AD00019E094F83C00522804D0622806D072280D
:100AE0000CD107E0122084F83C000BE0222084F8AF
:100AF0003C0007E0422084F83C0003E0012084F839
:100B00003C0000BF00BF204600F04AFF0020BDE8C7
:100B1000F08110B504462068406920F0010021688A
:100B2000486194F83C00122805D12068406920F4FF
:100B30000F402168486194F83C00422804D05228B4
:100B400006D072280CD107E0222084F83C000BE08C
:100B5000322084F83C0007E0622084F83C0003E087
:100B6000012084F83C0000BF00BF204601F044F99A
:100B7000002010BD70B505460C462078617840EA2B
:100B80000120C0F30A0028806078C010A17840EAF4
:100B90004110C0F30A006880A0788011E17840EA33
:100BA0008100217940EA8120C0F30A00A8802079E1
:100BB0004010617940EAC110C0F30A00E880607912
:100BC0000011800828726079C0F301106872A07962
:100BD000E17940EA012000B26881207A617A40EA36
:100BE000012001B2A981A07AE17A40EA012001B294
:100BF000E981217B2974617B6974A07BE17B40EAF8
:100C00000120688201F0A2FE0749086008460068DA
:100C100006490968401AB0F5FA7F03D9024800680E
:100C20000249086070BD00005C00002060000020E8
:100C300010B5044600F098F810BD000010B5024849
:100C400001F0F0F810BD0000300B002001460878DC
:100C500010381823B0FBF3F20848805CC865032AFB
:100C600005D908686FF30900001D886503E008686E
:100C70006FF309008865886D7047000034EA00084A
:100C8000014600208A6A8B69CBB932B1012A0DD0A6
:100C9000022A03D0032A10D10EE000BFCB6A03F072
:100CA0008073B3F1807F00D1012007E0CB6AB3F1FC
:100CB000C07F00D1012001E000E000BF34E08B697B
:100CC000B3F5005F1AD132B1012A07D0022A03D04E
:100CD000032A11D10AE000BF01200EE0CB6A03F025
:100CE0008073B3F1807F00D1012006E0CB6AB3F1BD
:100CF000C07F00D1012000E000BF15E032B1012A21
:100D000005D0022A04D0032A0CD103E000BF00BFA3
:100D1000012008E0CB6A03F08073B3F1807F00D13B
:100D2000012000E000BF00BF704730B504682468B0
:100D300024F4802405682C60046863608468402C77
:100D400004D10468A2600468E16003E00468A16063
:100D50000468E26030BD7047704700000148007AC7
:100D600070470000AC08002010B51B48007801282F
:100D700002D0022827D10AE01848B0F90430B0F9AF
:100D80000220B0F90010164805F0F0FB22E01548EB
:100D900090ED120ABDEEC00A10EE100A03B212481E
:100DA00090ED120ABDEEC00A10EE100A02B20F4812
:100DB00090ED120ABDEEC00A10EE100A01B208480A
:100DC00005F0D4FB06E000231A461946044805F056
:100DD000CDFB00BF00BF10BD56000020500000201A
:100DE000C0080020A4070020A80600205406002008
:100DF0004A6B527D4B6B1B7D42EA03220260026804
:100E00008280026812B282818269521C8261026809
:100E100000EE102AB8EEC00ADFED050A20EE200A27
:100E2000DFED040A80EE201A80ED081A70470000FA
:100E30000000B44300000046828812B282814A6BEF
:100E4000527D4B6B1B7D42EA032282804A6B927D6E
:100E500002F0800272B14A6BD37D927D43EA022296
:100E60004FF6FF739A1AD243132392FBF3F212B296
:100E7000C28009E04A6BD37D927D43EA02221323AC
:100E800092FBF3F212B2C2804A6B537E127E43EAA7
:100E9000022212B202814A6B927E82728288B0F97B
:100EA0000C30D21A02610269174B9A4203DA426986
:100EB000521C426107E0026941F64C539A4202DD3E
:100EC0004269521E42618388426903EB4232C26129
:100ED00082880368D21A00EE102AB8EEC00ADFED4D
:100EE0000B0A20EE200A9FED0A1AC0EE010A4269A1
:100EF0004FF4B4735A4300EE102AB8EEC00A30EE35
:100F0000800A80ED090A7047B4E2FFFF0000B44395
:100F100000000046828812B282814A6B527D4B6B80
:100F20001B7D42EA032282804A6B927D02F080029E
:100F300072B14A6BD37D927D43EA02224FF6FF7372
:100F40009A1AD243132392FBF3F212B2C28009E041
:100F50004A6BD37D927D43EA0222132392FBF3F284
:100F600012B2C2804A6B537E127E43EA022212B250
:100F700002814A6B927E827270470000828812B2B0
:100F800082814A6B527D4B6B1B7D42EA0322828039
:100F90004A6B927D02F080025AB14A6BD37D927DFA
:100FA00043EA02224FF6FF739A1AD24312B2C2806A
:100FB00006E04A6BD37D927D43EA022212B2C280E0
:100FC0004A6B537E127E43EA022212B202814A6BBE
:100FD000927E82728288B0F90C30D21A0261026964
:100FE000174B9A4203DA4269521C426107E00269D8
:100FF00041F64C539A4202DD4269521E4261838897
:10100000426903EB4232C26182880368D21A00EE61
:10101000102AB8EEC00ADFED0B0A20EE200A9FED81
:101020000A1AC0EE010A42694FF4B4735A4300EE43
:10103000102AB8EEC00A30EE800A80ED090A704727
:10104000B4E2FFFF0000B4430000004602484088BD
:10105000A0F5806000B27047AC0800202DE9F04197
:1010600007460C46002660691B2800D804E040F2C1
:101070006D115BA007F004F9A06910B1A069012807
:1010800000D104E04FF4B77155A007F0F9F8E0691A
:1010900010B1E069012800D104E040F26F1150A0C6
:1010A00007F0EEF8206910B12069012800D104E0B2
:1010B0004FF4B8714AA007F0E3F8206A10B1206A33
:1010C000012800D104E040F2711145A007F0D8F8E2
:1010D000606A1C2800D804E04FF4B97140A007F002
:1010E000CFF8217D012000FA01F64B4D05F5007582
:1010F000286840F001002860286820F47C502860AF
:101100002868616A40EA01202860E869B043E86124
:10111000A5F50075E069C8B9D5F80C02B043C5F86B
:101120000C02A08880B2A18940EA014105F5107047
:10113000626940F83210208880B2218940EA01417A
:1011400005F51070626900EBC2004160E06901289A
:1011500019D1D5F80C023043C5F80C02A08880B232
:10116000218840EA014105F51070626940F83210AB
:10117000A08980B2218940EA014105F510706269B9
:1011800000EBC2004160A06928B9D5F80402B04361
:10119000C5F8040204E0D5F804023043C5F804029F
:1011A000206920B9D5F81402B043C5F814022069AB
:1011B000012804D1D5F814023043C5F81402206A7E
:1011C000012804D1D5F81C023043C5F81C02D5F81B
:1011D000000220F00100C5F800020020BDE8F08107
:1011E0002E2E2F447269766572732F53544D33320D
:1011F000463478785F48414C5F4472697665722F57
:101200005372632F73746D3332663478785F68611C
:101210006C5F63616E2E63000064004004490968DE
:10122000496941F00201024A1268516170470000A9
:10123000C00800202DE9F0410446002500260027C3
:10124000A8462068C068C0F3001520684069C0F354
:10125000C0062DB126B148F4007810202168C8607E
:1012600020680069C0F3001520684069C0F380164B
:101270002DB126B148F480681020216808612068EB
:10128000406900F0010000283BD0206880687A495E
:101290000840884201D1012000E000200546206876
:1012A000806876490840884201D1012000E0002092
:1012B00006462068806872490840884201D10120B2
:1012C00000E0002007460DB906B9D7B12068806854
:1012D000C0F3400520688068C0F34026206880681D
:1012E000C0F340470DB906B91FB12046FFF711FC06
:1012F00001E048F40068206880686249084321687A
:1013000088602068C06800F0030520684069C0F369
:10131000400625B11EB100212046FFF719FB2068C9
:10132000006900F0030520684069C0F3001625B18C
:101330001EB101212046FFF70BFB206C40EA08009C
:1013400020642068806900F0010520684069C0F3CE
:10135000002620684069C0F3C0372DB126B11FB107
:10136000206C40F00100206420688069C0F34005D3
:1013700020684069C0F3402620684069C0F3C03748
:101380002DB126B11FB1206C40F00200206420680E
:101390008069C0F3800520684069C0F3802620681A
:1013A0004069C0F3C0372DB126B11FB1206C40F0A9
:1013B000040020642068806900F0700008B90120F2
:1013C00000E00020054620684069C0F3C026206880
:1013D0004069C0F3C03795BB8EB387B3206880697E
:1013E00000F07005402D1BD006DC102D09D0202DFB
:1013F0000CD0302D24D10EE0502D16D0602D1FD1F1
:1014000018E0206C40F0080020641AE0206C40F0E6
:101410001000206415E0206C40F02000206410E0F3
:10142000206C40F0400020640BE0206C40F0800015
:10143000206406E0206C40F48070206401E007E046
:1014400000BF00BF2068806920F0700021688861BB
:10145000206C78B1042021684860012084F83C00A9
:101460002068406948F65B718843216848612046DE
:10147000FFF7D4FEBDE8F08103000004000300087C
:10148000000003101905010070B504460026002570
:101490000CB9012070BDB1492068884203D0B04921
:1014A0002068884200D103E0B921AEA006F0E8FE32
:1014B000A06910B1A069012800D103E0BA21A9A058
:1014C00006F0DEFEE06910B1E069012800D103E01A
:1014D000BB21A4A006F0D4FE206A10B1206A012826
:1014E00000D103E0BC219FA006F0CAFE606A10B1E3
:1014F000606A012800D103E0BD219AA006F0C0FE79
:10150000A06A10B1A06A012800D103E0BE2195A015
:1015100006F0B6FEE06A10B1E06A012800D103E0EF
:10152000BF2190A006F0ACFEA06858B1A068B0F151
:10153000804F07D0A068B0F1004F03D0A068B0F191
:10154000404F00D103E0C02186A006F099FEE0687C
:1015500058B1E068B0F1807F07D0E068B0F1007F5B
:1015600003D0E068B0F1407F00D103E0C1217DA04D
:1015700006F086FE2069B0F5702F00D803E0C22186
:1015800078A006F07DFE6069B0F5E00F00D803E0BA
:10159000C32174A006F074FE606820B16068B0F5E5
:1015A000806F00D803E0C4216EA006F069FE94F8B5
:1015B0003C0028B9002084F83D00204600F0EEF8F9
:1015C000022084F83C002068006820F002002168B6
:1015D00008602068006840F001002168086001F0A0
:1015E000B5F905460EE001F0B1F9401B0A2809D90A
:1015F000032084F83C0000BF002084F83D0000BFB9
:10160000032047E72068406800F001000028EAD086
:101610002068406800F00100002875D0A06901280A
:1016200006D12068006840F080002168086005E06D
:101630002068006820F0800021680860E0690128C7
:1016400006D12068006840F040002168086005E08D
:101650002068006820F0400021680860206A0128A6
:1016600006D12068006840F020002168086005E08D
:101670002068006820F0200021680860606A012866
:1016800006D12068006840F010002168086005E07D
:101690002068006820F0100021680860A06A012816
:1016A00006D12068006840F008002168086005E065
:1016B0002068006820F0080021680860E06A0128BE
:1016C00006D12068006840F004002168086005E049
:1016D0002068006820F0040021680860D4E9020155
:1016E000084321690843616908436168491E08434A
:1016F0002168C8612068006820F001002168086046
:1017000001F024F905460FE01AE001F01FF9401B33
:101710000A2809D9032084F83C0000BF002084F87F
:101720003D0000BF0320B5E62068406800F00100DE
:101730000028EAD12068406800F0010000B90126C5
:10174000012E06D100202064012084F83C000020F6
:10175000A0E6042084F83C0001209BE600640040E1
:10176000006800402E2E2F447269766572732F53E5
:10177000544D3332463478785F48414C5F44726947
:101780007665722F5372632F73746D3332663478BB
:10179000785F68616C5F63616E2E630010B586B020
:1017A0000446142101A8FEF7E4FD2349206888427D
:1017B00040D100BF002000902048006840F0007039
:1017C0001E4908600846006800F00070009000BFE5
:1017D00000BF00BF0020009018481038006840F09B
:1017E00001001649103908600846006800F0010041
:1017F000009000BF00BF4FF4C05001900220029043
:1018000000200390032004900920059001A90C48B2
:1018100000F040FE00220521132001F073FD13208B
:1018200001F03CFD00220521142001F06BFD142085
:1018300001F034FD06B010BD0064004040380240A5
:101840000000024070B504460D460DB1012D00D1D7
:1018500004E040F2F33144A006F012FD8DB994F893
:101860003C0022280BD094F83C00422807D094F882
:101870003C00622803D094F83C00722801D1022079
:1018800070BD012D11D194F83C0032280BD094F892
:101890003C00522807D094F83C00622803D094F80A
:1018A0003C00722801D10220EAE700BF94F83D0015
:1018B000012801D10220E3E7012084F83D0000BFA8
:1018C000CDB994F83C00122804D0322806D0522812
:1018D0000CD107E0422084F83C000BE0622084F841
:1018E0003C0007E0722084F83C0003E0222084F8EA
:1018F0003C0000BF19E094F83C00122804D02228D4
:1019000006D042280CD107E0522084F83C000BE0BE
:10191000622084F83C0007E0722084F83C0003E079
:10192000322084F83C0000BF00BF00202064206803
:10193000406948F6017108432168486100BF0020F2
:1019400084F83D0000BF35B92068406940F00A00C6
:101950002168486105E02068406940F05000216836
:10196000486100208CE700002E2E2F4472697665B6
:1019700072732F53544D3332463478785F48414C5C
:101980005F4472697665722F5372632F73746D337F
:1019900032663478785F68616C5F63616E2E6300D5
:1019A00010B5044631480068401C3049086000F01A
:1019B000CDFF2F490968401AB0F5FA7F03D900F02E
:1019C000C5FF2B490860606B0068A0F20120082861
:1019D00041D2DFE800F0040506074024321600BFBC
:1019E00000BF00BF606B0078401E22490870097874
:1019F00001EB8101204A02EBC1002146FFF78AFA80
:101A000029E01A480068322804D821461B48FFF70D
:101A1000EFF903E021461A48FFF7B0FA1BE013483C
:101A20000068322804D821461648FFF7E1F903E0A0
:101A300021461548FFF7A2FA0DE00C48006832284D
:101A400004D821461148FFF7D3F903E021460F4897
:101A5000FFF7F2F900BF00BF0D480068406940F091
:101A600002000B490968486110BD000044000020D5
:101A7000480000204C0000201002002048010020F7
:101A80009801002070010020C0010020E801002022
:101A9000C00800202DE9F04104460E460425002729
:101AA000206B806818B1206B8068042800D104E0A6
:101AB0004FF40E71BFA006F0E3FB206BC06818B1B5
:101AC000206BC068022800D104E040F23921B9A09F
:101AD00006F0D6FB206B0069082800D804E040F22D
:101AE0003A21B4A006F0CCFB2068806800F080604A
:101AF000B0F1806F0DD02068806800F00060B0F118
:101B0000006F06D02068806800F08050B0F1805FE0
:101B10007ED100BF94F83D00012802D10220BDE82B
:101B2000F081012084F83D0000BF94F83C00222899
:101B300004D0322806D062280CD107E0422084F875
:101B40003C000BE0522084F83C0007E0722084F84F
:101B50003C0003E0122084F83C0000BF00BF206876
:101B6000806800F08060B0F1806F01D1002509E04D
:101B70002068806800F00060B0F1006F01D101259D
:101B800000E00225206800F5C07000EB0510006839
:101B900000F00101206800F5C07000EB0510016045
:101BA000206B8068F0B9206B0068B0F5006F00D240
:101BB00004E040F266217FA006F062FB206800F599
:101BC000C07000EB05100068216BC968226B128899
:101BD00041EA42510843216801F5C07101EB05114A
:101BE000086022E0206B4068B0F1005F00D204E0A2
:101BF0004FF41B716FA006F043FB206800F5C07026
:101C000000EB05100168206B8068226B526800E0D1
:101C1000CBE040EAC200226BD26810430143206847
:101C200000F5C07000EB05100160206B007C00F037
:101C30000F00216B0861206800F5C07000EB0510F3
:101C4000406820F00F01206800F5C07000EB05101F
:101C50004160206800F5C07000EB05104068216B02
:101C600009690843216801F5C07101EB051148605D
:101C7000206BC07D0106206B807D41EA0041206B16
:101C8000407D41EA0020216B097D0843216801F570
:101C9000C07101EB05118860206BC07E0106206BCE
:101CA000807E41EA0041206B407E41EA0020216BAA
:101CB000097E0843216801F5C07101EB0511C86078
:101CC000206800F5C07000EB0510006840F00101CD
:101CD000206800F5C07000EB0510016000F036FED2
:101CE000074620E0701CF0B126B100F02FFEC01BAB
:101CF000B04218D9032084F83C001DB98020216827
:101D0000886009E0012D03D1E8032168886003E0C1
:101D10004FF400002168886000BF002084F83D0077
:101D200000BF0320FBE64DB9206880682F490840BA
:101D3000884201D1012016E0002014E0012D09D1D4
:101D4000206880682A490840884201D101200AE0C1
:101D5000002008E02068806826490840884201D1B8
:101D6000012000E000200028BCD094F83C0042286C
:101D700004D0522806D072280CD107E0222084F823
:101D80003C000BE0322084F83C0007E0622084F83D
:101D90003C0003E0012084F83C0000BF00BF00BF0E
:101DA000002084F83D0000BFB9E6042084F83C0020
:101DB0000120B4E62E2E2F447269766572732F537C
:101DC000544D3332463478785F48414C5F447269F1
:101DD0007665722F5372632F73746D333266347865
:101DE000785F68616C5F63616E2E630003000004BE
:101DF00000030008000003107047014691F8350009
:101E0000022803D08020486501207047052081F812
:101E100035000868006820F001000A6810600020A2
:101E2000F3E70000F8B50446002000908C480068F5
:101E30004FF41651B0FBF1F7A56D2E6894F85C10C5
:101E400008208840304098B12068006800F0040005
:101E500070B12068006820F004002168086094F8E0
:101E60005C1008208840A860606D40F0010060654B
:101E700094F85C1001208840304068B120684069C7
:101E800000F0800040B194F85C1001208840A86008
:101E9000606D40F00200606594F85C10042088409A
:101EA000304068B12068006800F0020040B194F84A
:101EB0005C1004208840A860606D40F004006065FC
:101EC00094F85C1010208840304078B32068006897
:101ED00000F0080050B394F85C1010208840A8600F
:101EE0002068006800F4802080B12068006800F459
:101EF000002028B9206CC8B12046216C884715E025
:101F0000A06C98B12046A16C88470FE0206800685B
:101F100000F4807028B92068006820F0080021686B
:101F20000860206C10B12046216C884794F85C1042
:101F3000202088403040002865D02068006800F0EC
:101F4000100000285FD094F85C1020208840A86022
:101F500094F83500052828D12068006820F0160084
:101F6000216808602068406920F08000216848618D
:101F7000206C08B9A06C28B12068006820F0080027
:101F80002168086094F85C103F208840A86000BF7A
:101F9000002084F8340000BF012084F83500206D53
:101FA00010B12046216D8847F8BD2068006800F414
:101FB000802080B12068006800F4002028B9606C9F
:101FC00010B12046616C88471DE0E06BD8B1204617
:101FD000E16B884717E02068006800F4807068B9FA
:101FE0002068006820F010002168086000BF002011
:101FF00084F8340000BF012084F83500E06B10B194
:102000002046E16B8847606D38B3606D00F00100D9
:10201000F0B1052084F835002068006820F0010048
:102020002168086000BF0098401C0090B84200D9A9
:1020300005E02068006800F001000028F3D100BF2F
:1020400000BF002084F8340000BF012084F8350070
:10205000E06C10B12046E16C884700BFA4E70000A7
:10206000BC0000202DE9F0410446002500F06EFC84
:10207000074614B90120BDE8F081C04920688842B4
:1020800049D0BE4918312068884244D0BB4930311C
:10209000206888423FD0B9494831206888423AD008
:1020A000B64960312068884235D0B449783120681B
:1020B000884230D0B1499031206888422BD0AF4956
:1020C000A8312068884226D0AD492068884222D0B5
:1020D000AB491831206888421DD0A94930312068A9
:1020E000884218D0A64948312068884213D0A449B4
:1020F0006031206888420ED0A1497831206888423A
:1021000009D09F4990312068884204D09C49A83169
:102110002068884200D103E0C8219AA006F0B0F8F8
:102120006068D8B16068B0F1007F17D06068B0F126
:10213000806F13D06068B0F1C06F0FD06068B0F1ED
:10214000006F0BD06068B0F1206F07D06068B0F10D
:10215000406F03D06068B0F1606F00D103E0C92127
:1021600088A006F08DF8A06828B1A068402802D0A9
:10217000A068802800D103E0CA2182A006F080F880
:10218000E068B0F5007F01D0E06800B903E0CB2142
:102190007CA006F075F82069B0F5806F01D0206949
:1021A00000B903E0CC2177A006F06AF8606938B185
:1021B0006069B0F5006F03D06069B0F5805F00D151
:1021C00003E0CD216FA006F05BF8A06938B1A069EB
:1021D000B0F5005F03D0A069B0F5804F00D103E0F7
:1021E000CE2168A006F04CF8E06930B1E069B0F5A6
:1021F000807F02D0E069202800D103E0CF2161A0D8
:1022000006F03EF8206A58B1206AB0F5803F07D04A
:10221000206AB0F5003F03D0206AB0F5403F00D1FE
:1022200003E0D02157A006F02BF8606A10B1606A75
:10223000042800D103E0D12152A006F021F8606A01
:10224000002835D0A06A40B1A06A012805D0A06A54
:10225000022802D0A06A032800D103E0D62149A0B9
:1022600006F00EF8E06A58B1E06AB0F5000F07D04A
:10227000E06AB0F1807F03D0E06AB0F1C07F00D1A6
:1022800003E0D7213FA005F0FBFF206B58B1206B86
:10229000B0F5001F07D0206BB0F5800F03D0206B86
:1022A000B0F5C00F00D103E0D82136A005F0E8FF5B
:1022B00000BF002084F8340000BF022084F83500FD
:1022C0002068006820F00100216808600AE000F042
:1022D0003DFBC01B052805D920206065032084F83C
:1022E0003500C8E62068006800F001000028EED143
:1022F0002068056831480540D4E901010843E168D8
:1023000008432169084361690843A1690843E169F9
:102310000843216A08430543606A042803D1D4E9CD
:102320000B0108430543206805602068456925F0D6
:102330000705606A0543606A04280DD1A06A054359
:10234000E06A48B12046FEF79BFC28B1402060655A
:10235000012084F835008EE6206845612046FEF7AE
:1023600075FC064694F85C103F208840B060002061
:102370006065012084F8350000207CE61060024092
:10238000106402402E2E2F447269766572732F53AB
:10239000544D3332463478785F48414C5F4472691B
:1023A0007665722F5372632F73746D33326634788F
:1023B000785F68616C5F646D612E63003F8010F030
:1023C0002DE9F04104460E4617461D464FF0000821
:1023D0001DB1B5F5803F00D204E040F2A51117A071
:1023E00005F04EFF00BF94F83400012802D102200E
:1023F000BDE8F081012084F8340000BF94F8350076
:10240000012811D1022084F83500002060652B4698
:102410003A4631462046FEF788FC2068006840F0C6
:1024200001002168086006E000BF002084F8340045
:1024300000BF4FF002084046DAE700002E2E2F447E
:102440007269766572732F53544D333246347878FF
:102450005F48414C5F4472697665722F5372632FF7
:1024600073746D3332663478785F68616C5F646D65
:10247000612E630031B500F069FA0546009C601CCE
:1024800000B1641C00BF00F061FA401BA042FAD307
:1024900038BD00002DE9F84306460C464FF0000910
:1024A000C8460025EA48864217D0EA48864214D03A
:1024B000E948864211D0E94886420ED0E848864273
:1024C0000BD0E848864208D0E748864205D0E74866
:1024D000864202D0E648864200D103E0C321E5A04F
:1024E00005F0CEFE208880B220B120686FF30F0087
:1024F00000B903E0C421DFA005F0C2FE606830B37C
:102500006068012823D06068112820D06068022804
:102510001DD0606812281AD0E5496068884216D03C
:10252000E4496068884212D0E349606888420ED06E
:10253000E249606888420AD0E1496068884206D072
:10254000E0496068884202D06068032800D103E057
:10255000C521C8A005F094FEA06828B1A068012894
:1025600002D0A068022800D103E0C621C1A005F076
:1025700087FE002766E1012000FA07F9206800EADB
:102580000908C84570D16068022802D06068122826
:102590006BD12069002866D02069092863D02069A2
:1025A000F0B32069E0B32069D0B32069C0B32069DB
:1025B000012858D02069012855D02069022852D01E
:1025C000206902284FD0206902284CD020690328B6
:1025D00049D02069042846D02069042843D02069C6
:1025E000042840D0206905283DD0206905283AD02C
:1025F0002069092837D02069062834D020690928A5
:1026000031D0206907282ED0206907282BD02069D7
:10261000072828D02069082825D02069082800E04C
:1026200021E020D0206908281DD0206909281AD06F
:102630002069092817D020690A2814D020690A289F
:1026400011D020690B280ED020690C280BD02069EE
:102650000C2808D020690D2805D020690C2802D04C
:1026600020690F2802D105E0E2E017E0D72181A020
:1026700005F006FEF90806F1200050F82150780711
:10268000C10E0F20884085437907C90E2069884014
:102690000543F90806F1200040F82150356879001B
:1026A000032088408543207900F0030079008840AA
:1026B000054335606068012808D06068022805D0AD
:1026C0006068112802D06068122823D1E06840B108
:1026D000E068012805D0E068022802D0E0680328FD
:1026E00000D103E0EA2163A005F0CAFDB5687900D6
:1026F0000320884085437900E06888400543B56041
:1027000075680120B84085432079C0F30010B840B7
:1027100005437560F568790003208840854379009A
:10272000A06888400543F560606800F08050B0F113
:10273000805F7DD100BF002000906348006840F4B6
:102740008040614908600846006800F480400090BD
:1027500000BF00BF5D48B90850F82150B807010F0D
:102760000F20884085433A48864201D1002023E06B
:102770003848864201D101201EE03748864201D107
:10278000022019E03548864201D1032014E0344884
:10279000864201D104200FE03248864201D1052053
:1027A0000AE03148864201D1062005E02F488642E2
:1027B00001D1072000E00820B907090F8840054330
:1027C0004248B90840F821504148056825EA080503
:1027D000606800F48030B0F5803F01D145EA08051B
:1027E0003B480560001D056825EA0805606800F49F
:1027F0000030B0F5003F01D145EA08053448001D1E
:102800000560001D056825EA0805606800F4801071
:10281000B0F5801F01D145EA08052D480830056054
:10282000001D056825EA0805606800F4001000E056
:1028300007E0B0F5001F01D145EA080524480C3037
:1028400005607F1C102FFFF496AEBDE8F8830000F2
:10285000000002400004024000080240000C024058
:10286000001002400014024000180240001C024008
:10287000002002402E2E2F447269766572732F530A
:10288000544D3332463478785F48414C5F44726926
:102890007665722F5372632F73746D33326634789A
:1028A000785F68616C5F6770696F2E63000000007D
:1028B0000000111000002110000031100000121063
:1028C0000000221000003210443802400838014055
:1028D000003C014070B506460C461546A0B218B142
:1028E000200C000400B904E040F2AF1108A005F08C
:1028F000C7FC0DB1012D00D104E04FF4D87104A044
:1029000005F0BEFC0DB1B46101E02004B06170BD02
:102910002E2E2F447269766572732F53544D3332C5
:10292000463478785F48414C5F4472697665722F0F
:102930005372632F73746D3332663478785F6861D5
:102940006C5F6770696F2E630000000001480068CB
:1029500070470000B800002070B50446002600252E
:102960000CB9012070BD7A492068884207D07949A6
:102970002068884203D078492068884200D104E06A
:102980004FF4B77175A005F07BFC606820B18149F8
:102990006068884200D804E040F26F116FA005F033
:1029A0006FFCA06818B1A068B0F5804F00D104E0BA
:1029B0004FF4B87169A005F063FCE0686FF309009B
:1029C00000B904E040F2711164A005F059FC2069DF
:1029D000B0F5804F03D02069B0F5404F00D104E03E
:1029E0004FF4B9715DA005F04BFC606910B16069EE
:1029F000012800D104E040F2731158A005F040FC1A
:102A0000A06920F0FE0000B904E04FF4BA7153A0B1
:102A100005F036FCE06910B1E069402800D104E01F
:102A200040F275114DA005F02BFC206A10B1206A10
:102A3000802800D104E04FF4BB7148A005F020FCD1
:102A400094F83D0028B9002084F83C00204600F0AE
:102A50004BFB242084F83D002068006820F0010032
:102A60002168086000F082FE05464B48B5FBF0F691
:102A70002068466049496068884201D8701C07E0B8
:102A80004FF4967070434FF47A71B0FBF1F0401C34
:102A9000216808624149606888420ED86068400039
:102AA000B5FBF0F0C0F30B00042801D204202DE0A8
:102AB00060684000B5FBF0F028E0A06828B96068C5
:102AC00000EB4000B5FBF0F008E0606800EBC001EF
:102AD00001EB0010B5FBF0F040F48040C0F30B00B8
:102AE00008B9012012E0A06828B9606800EB400036
:102AF000B5FBF0F008E0606800EBC00101EB0010EE
:102B0000B5FBF0F040F4804040F400402168C8611B
:102B1000D4E90701084321680860D4E90310084399
:102B200021688860D4E9050108432168C8602068ED
:102B3000006840F001002168086000202064202027
:102B400084F83D000020206384F83E0000BF09E7C0
:102B50000054004000580040005C00402E2E2F44DE
:102B60007269766572732F53544D333246347878D8
:102B70005F48414C5F4472697665722F5372632FD0
:102B800073746D3332663478785F68616C5F693274
:102B9000632E6300801A060040420F00A0860100E9
:102BA0002DE9FC5F0446884691461E46DDE90CABE4
:102BB0000E9F0025FFF7CAFE0546012E01D0102EFC
:102BC00000D104E04FF41F61C1A005F059FB94F857
:102BD0003D0020287ED119230122CB4920460095B3
:102BE00002F0B7FF10B10220BDE8FC9F00BF94F8CF
:102BF0003C00012801D10220F6E7012084F83C00C6
:102C000000BF2068006800F0010028B92068006853
:102C100040F00100216808602068006820F400602E
:102C200021680860222084F83D00402084F83E009E
:102C300000202064C4F824A0A4F82AB0B348E062BD
:102C4000608D208533464A4641462046CDE90075D1
:102C500002F038FE80B1206C042806D100BF0020AD
:102C600084F83C0000BF0120BEE700BF002084F8CC
:102C70003C0000BF0320B7E7208D88B900BF0020CB
:102C8000019020684069019020688069019000BF30
:102C900000BF2068006840F400702168086041E0CF
:102CA000208D012819D12068006820F480602168F7
:102CB000086000BF002001902068406901902068F2
:102CC0008069019000BF00BF2068006840F4007078
:102CD000216800E0FAE0086024E0208D022816D187
:102CE0002068006820F4806021680860206800681F
:102CF00040F400602168086000BF00200190206857
:102D00004069019020688069019000BF0AE000BF1F
:102D1000002001902068406901902068806901903E
:102D200000BF00BFC3E0208D032872D8208D01288A
:102D30001AD12A463946204602F09FFF30B1206C56
:102D4000202801D103204FE701204DE720680069CA
:102D5000C1B2626A501C60621170208D401E2085D5
:102D6000608D401E6085A2E0208D02282AD13B465E
:102D7000002267492046009502F0EBFE08B10320CF
:102D800032E72068006840F400702168086020681D
:102D90000069C1B2626A501C60621170208D401ED1
:102DA0002085608D401E608520680069C1B2626A1E
:102DB000501C60621170208D401E2085608D401E69
:102DC000608574E03B46002251492046009502F0A0
:102DD000C0FE08B1032007E72068006820F4806087
:102DE0002168086020680069C1B2626A501C606294
:102DF0001170208D401E2085608D401E60853B46F1
:102E0000002243492046009502F0A3FE10B10320A2
:102E1000EAE620E02068006840F40070216808605D
:102E200020680069C1B2626A501C60621170208D16
:102E3000401E2085608D401E608520680069C1B2FB
:102E4000626A501C60621170208D401E2085608D6A
:102E5000401E60852BE02A463946204602F00DFFD1
:102E600030B1206C202801D10320BDE60120BBE653
:102E700020680069C1B2626A501C60621170208DC6
:102E8000401E2085608D401E608520684069C0F32B
:102E9000800060B120680069C1B2626A501C606243
:102EA0001170208D401E2085608D401E6085208D14
:102EB00000287FF438AF202084F83D00002084F8FB
:102EC0003E0000BF84F83C0000BF8DE602208BE688
:102ED0002E2E2F447269766572732F53544D333200
:102EE000463478785F48414C5F4472697665722F4A
:102EF0005372632F73746D3332663478785F686110
:102F00006C5F6932632E6300020010000000FFFF57
:102F1000040001002DE9FC5F0446884691461D46E9
:102F2000DDE90CAB0E9F0026FFF710FD0646012DD4
:102F300001D0102D00D104E040F66B115AA005F02D
:102F40009FF994F83D0020287ED11923012264497D
:102F50002046009602F0FDFD10B10220BDE8FC9F66
:102F600000BF94F83C00012801D10220F6E70120BF
:102F700084F83C0000BF2068006800F0010028B918
:102F80002068006840F0010021680860206800683F
:102F900020F4006021680860212084F83D00402072
:102FA00084F83E0000202064C4F824A0A4F82AB0CD
:102FB0004C48E062608D20852B464A4641462046BB
:102FC000CDE9007602F02AFD80B1206C042806D1FC
:102FD00000BF002084F83C0000BF0120BEE700BF16
:102FE000002084F83C0000BF0320B7E733E03246FE
:102FF0003946204602F078FE60B1206C042807D1E3
:103000002068006840F40070216808600120A5E78E
:103010000320A3E7616A481C6062087821680861A0
:10302000208D401E2085608D401E6085206840698F
:10303000C0F3800078B1208D68B1616A481C60627D
:1030400008782168086100E02CE0208D401E208572
:10305000608D401E6085208D0028C8D132463946DB
:10306000204602F04BFD60B1206C042807D1206897
:10307000006840F400702168086001206EE70320BA
:103080006CE72068006840F4007021680860202028
:1030900084F83D00002084F83E0000BF84F83C0026
:1030A00000BF5BE7022059E72E2E2F447269766538
:1030B00072732F53544D3332463478785F48414C05
:1030C0005F4472697665722F5372632F73746D3328
:1030D00032663478785F68616C5F6932632E6300B2
:1030E000020010000000FFFF10B586B00446142156
:1030F00001A8FDF73EF91B49206888422FD100BF87
:10310000002000901848006840F00200164908604E
:103110000846006800F00200009000BF00BFC02019
:1031200001901220029001200390032004900420BB
:10313000059001A90D48FFF7ADF900BF00200090F0
:1031400009481030006840F4001007491031086049
:103150000846006800F40010009000BF00BF06B0F1
:1031600010BD00000054004030380240000402400E
:1031700002480068401C014908607047B800002000
:1031800010B50D48006840F400700B49086008460F
:10319000006840F4806008600846006840F4807071
:1031A0000860032000F018F9002000F007F800F094
:1031B0004BF8002010BD0000003C024070B588B004
:1031C00004460025002600222146362000F09AF809
:1031D000362000F063F800BF002001901648006818
:1031E00040F01000144908600846006800F0100024
:1031F000019000BF00BF02A903A800F08FFA00F001
:10320000B5FA45000D48B5FBF0F0461E0C480D49D7
:10321000086040F2E7310B48C1604660002101615F
:10322000816000F08BFE20B9064800F099FF08B0DD
:1032300070BD0120FBE700004038024040420F0013
:1032400000100040900B002008B500BF0020009047
:103250001148006840F480400F4908600846006843
:1032600000F48040009000BF00BF00BF002000902D
:10327000081F006840F08050091F08600846006879
:1032800000F08050009000BF00BF00220F21901E70
:1032900000F038F808BD00004438024010B504467C
:1032A000002C00DB03E0CE2107A004F0E9FF00BF03
:1032B00004F01F01012088406109890001F1E0212B
:1032C000C1F8000100BF10BD2E2E2F447269766533
:1032D00072732F53544D3332463478785F48414CE3
:1032E0005F4472697665722F5372632F73746D3306
:1032F00032663478785F68616C5F636F727465788A
:103300002E6300002DE9F05F80460C46154600272D
:10331000102D00D203E0BA2120A004F0B1FF102C40
:1033200000D203E0BB211DA004F0AAFF02F0DCFFE5
:103330000746394622462B4601F00700C0F1070A2E
:10334000BAF1040F02D94FF0040A01E0C0F1070AF4
:10335000D14600F1040ABAF1070F02D24FF0000A79
:1033600001E0A0F1030AD4464FF0010A0AFA09FA73
:10337000AAF1010A0AEA020A0AFA0CFA4FF0010B52
:103380000BFA0CFBABF1010B0BEA030B4AEA0B0641
:103390003146404602F0B0FFBDE8F09F2E2E2F448C
:1033A0007269766572732F53544D33324634787890
:1033B0005F48414C5F4472697665722F5372632F88
:1033C00073746D3332663478785F68616C5F636FF5
:1033D000727465782E63000010B50446072C07D080
:1033E000062C05D0052C03D0042C01D0032C00D1D1
:1033F00003E0A22109A004F043FF00BF04F007018D
:10340000154A10684FF6FF021040144A024342EA80
:103410000120114A106000BF10BD00002E2E2F4465
:103420007269766572732F53544D3332463478780F
:103430005F48414C5F4472697665722F5372632F07
:1034400073746D3332663478785F68616C5F636F74
:10345000727465782E6300000CED00E00000FA0540
:1034600070B504460D460CB9012070BD20680128D6
:1034700003D320680F2800D804E04FF4107195A002
:1034800004F0FEFE6DB1012D0BD0022D09D0032DED
:1034900007D0042D05D0052D03D0062D01D0072D12
:1034A00000D104E040F241218AA004F0E9FE9748EF
:1034B000006800F00F00A84209D294490D70084638
:1034C000006800F00F00A84201D00120CDE720786D
:1034D00000F0020002283DD1207800F0040004280A
:1034E00005D18B48006840F4E05089490860207895
:1034F00000F00800082805D18548006840F46040C5
:1035000083490860A068B8B1A068802814D0A0687A
:10351000902811D0A068A0280ED0A068B0280BD0A9
:10352000A068C02808D0A068D02805D0A068E028EE
:1035300002D0A068F02800D104E04FF4197165A012
:1035400004F09EFE7248006820F0F000A168084375
:103550006F490860207800F0010000284ED06068B4
:1035600040B16068012805D06068022802D0606818
:10357000032800D104E040F26B2156A004F080FE45
:103580006068012807D1624808380068C0F34040ED
:10359000B8B9012069E76068022802D06068032892
:1035A00007D15B4808380068C0F3406048B9012083
:1035B0005BE7574808380068C0F3400008B90120AD
:1035C00053E75348006820F00300616808435049FE
:1035D0000860FFF7BBF9064608E0FFF7B7F9801B64
:1035E00041F28831884201D903203EE7484800680B
:1035F00000F00C006168B0EB810FEED14348006829
:1036000000F00F00A84209D940490D700846006833
:1036100000F00F00A84201D0012026E7207800F03A
:10362000040004281FD1E06878B1E068B0F5805F3D
:103630000BD0E068B0F5A05F07D0E068B0F5C05FE0
:1036400003D0E068B0F5E05F00D104E040F2A921CA
:1036500020A004F015FE2E48006820F4E050E16838
:1036600008432B490860207800F00800082820D182
:10367000206978B12069B0F5805F0BD02069B0F582
:10368000A05F07D02069B0F5C05F03D02069B0F516
:10369000E05F00D104E04FF42C710EA004F0F0FDC7
:1036A0001B48006820F46040216940EAC1001849C5
:1036B000086000F07BF816490968C1F30311154A48
:1036C000515CC840144908600020FFF777FD0020D6
:1036D000CBE600002E2E2F447269766572732F534D
:1036E000544D3332463478785F48414C5F447269B8
:1036F0007665722F5372632F73746D33326634782C
:10370000785F68616C5F7263632E6300003C024007
:10371000083802403CEA0008BC0000200F2202608A
:103720000D4A126802F0030242600B4A126802F06E
:10373000F0028260084A126802F4E052C260064A4F
:10374000126802F46042D2080261044A126802F070
:103750000F020A607047000008380240003C024037
:103760000148006870470000BC00002000B5FFF76A
:10377000F7FF04490968C1F38221034A515CC8403C
:1037800000BD0000083802404CEA000800B5FFF711
:10379000E7FF04490968C1F34231034A515CC8405C
:1037A00000BD0000083802404CEA00082DE9F0474F
:1037B000002400250026A1462548006800F00C00E2
:1037C00020B1042805D008283AD105E0DFF884901C
:1037D00039E0DFF8849036E01D48001F006800F0F3
:1037E0003F041B48001F006800F4800078B11A48AD
:1037F0001749091F0968C1F38811A0FB0170014630
:10380000224600233846FCF739FD05460EE01148F4
:103810000F49091F0968C1F38811A0FB0170014617
:10382000224600233846FCF729FD05460848001FBC
:103830000068C0F30140401C4600B5FBF6F902E009
:10384000DFF8109000BF00BF4846BDE8F0870000D9
:10385000083802400024F40000127A0038B504460B
:103860000CB9012038BD20680F2800D803E0F821EA
:10387000FBA004F005FD207800F00100002870D0C6
:10388000606838B16068B0F5803F03D06068B0F51B
:10389000A02F00D103E0FD21F1A004F0F1FCFE48CF
:1038A000006800F00C0004280DD0FB48006800F010
:1038B0000C00082813D1F848001F006800F48000AD
:1038C000B0F5800F0BD1F44808380068C0F34040D1
:1038D000002859D06068002856D10120C2E700BFF7
:1038E0006068B0F5803F08D1EB480838006840F4C4
:1038F0008030E949083908601EE06068B0F5A02F03
:103900000DD1E5480838006840F48020E2490839C4
:1039100008600846006840F4803008600CE0DE482B
:103920000838006820F48030DB4908390860084610
:10393000006820F48020086000BF606890B1FFF745
:1039400005F8054606E0FFF701F8401B642801D999
:10395000032087E7D04808380068C0F340400028BB
:10396000F1D011E0FEF7F2FF054606E0FEF7EEFFAC
:10397000401B642801D9032074E7C7480838006851
:10398000C0F340400028F1D1207800F00200022866
:1039900073D1E06810B1E068012800D104E040F282
:1039A0002F11AFA004F06CFC20691F2800D804E0A0
:1039B0004FF49871AAA004F063FCB748006800F0C7
:1039C0000C0058B1B448006800F00C0008281CD165
:1039D000B148001F006800F48000B0B9AE48083854
:1039E0000068C0F3400020B1E068012801D0012048
:1039F00038E7A9480838006820F0F800216940EA53
:103A0000C100A5490839086037E0E06800B301202B
:103A1000A2490860FEF79AFF054606E0FEF796FF0A
:103A2000401B022801D903201CE79B480838006886
:103A3000C0F340000028F1D097480838006820F013
:103A4000F800216940EAC10093490839086014E090
:103A5000002092490860FEF779FF054606E0FEF770
:103A600075FF401B022801D90320FBE68A4808386D
:103A70000068C0F340000028F1D1207800F0080071
:103A8000082837D1606910B16069012800D104E0CD
:103A90004FF4B87172A004F0F3FB6069A8B1012083
:103AA0007F490860FEF752FF054606E0FEF74EFF2D
:103AB000401B022801D90320D4E677486C30006807
:103AC000C0F340000028F1D014E0002074490860E1
:103AD000FEF73CFF054606E0FEF738FF401B0228D4
:103AE00001D90320BEE66C486C300068C0F340008A
:103AF0000028F1D1207800F00400042871D1A068DA
:103B000028B1A068012802D0A068052800D104E0EF
:103B10004FF4CD7152A004F0B3FB00BF0020009021
:103B20005D483830006840F080505B4938310860AB
:103B30000846006800F08050009000BF00BF594860
:103B4000006840F4807057490860FEF7FFFE0546A4
:103B500006E0FEF7FBFE401B022801D9032081E6A8
:103B60005048006800F480700028F2D000BFA068C0
:103B7000012808D148486830006840F001004649F3
:103B8000683108601DE0A06805280DD14248683002
:103B9000006840F004004049683108600846006849
:103BA00040F0010008600CE03B486830006820F0FD
:103BB00001003949683108600846006820F00400B7
:103BC000086000BFA068A8B1FEF7C0FE054609E086
:103BD000FEF7BCFE401B41F28831884202D9032027
:103BE00040E61BE02C4868300068C0F34000002825
:103BF000EED013E0FEF7AAFE054608E0FEF7A6FEAB
:103C0000401B41F28831884201D903202AE622482C
:103C100068300068C0F340000028EFD1A06928B1E7
:103C2000A069012802D0A069022800D104E040F276
:103C3000CF110BA004F024FBA069002879D016480E
:103C4000006800F00C00082874D0A069022872D126
:103C5000E06918B1E069B0F5800F25D12AE00000D5
:103C60002E2E2F447269766572732F53544D333262
:103C7000463478785F48414C5F4472697665722FAC
:103C80005372632F73746D3332663478785F686172
:103C90006C5F7263632E6300083802400000474285
:103CA000800E4742007000404FF4EC71AFF25000BC
:103CB00004F0E6FA206A3F2800D805E040F2D91166
:103CC000AFF2640004F0DCFA606A322804D3606A60
:103CD000B0F5D87F00D805E04FF4ED71AFF2800069
:103CE00004F0CEFAA06A022808D0A06A042805D001
:103CF000A06A062802D0A06A082800D105E040F298
:103D0000DB11AFF2A40004F0BBFAE06A022803D38F
:103D1000E06A0F2800D805E04FF4EE71AFF2C00062
:103D200004F0AEFA00202B490866FEF70FFE0546A8
:103D300009E04DE04AE034E0FEF708FE401B0228AF
:103D400001D903208EE524480068C0F340600028B4
:103D5000F2D1D4E907010843616A40EA81110122E6
:103D6000A06AC2EB500041EA00412C20005D41EA0C
:103D700000601949091D0860012016490866FEF710
:103D8000E5FD054606E0FEF7E1FD401B022801D9EE
:103D9000032067E510480068C0F340600028F2D0B7
:103DA00016E000200B490866FEF7D0FD054606E048
:103DB000FEF7CCFD401B022801D9032052E506483E
:103DC0000068C0F340600028F2D101E0012049E51D
:103DD000002047E500004742003802407047704726
:103DE00070B504460D463F49206888421BD02068C4
:103DF000B0F1804F17D03C492068884213D03B492E
:103E0000206888420FD03A49206888420BD039494F
:103E10002068884207D038492068884203D0374953
:103E20002068884200D104E040F24A6134A004F0E6
:103E300027FA2868A0B12868102811D028682028FF
:103E40000ED0286830280BD02868402808D0286871
:103E5000502805D02868602802D02868702800D132
:103E600004E040F24B6126A004F00AFA686880285A
:103E700001D0686800B904E040F24C6120A004F071
:103E8000FFF900BF94F83800012801D1022070BD6D
:103E9000012084F8380000BF022084F8390020682F
:103EA000406820F0700021684860206840682968F8
:103EB0000843216848602068806820F080002168FD
:103EC00088602068806869680843216888600120EC
:103ED00084F8390000BF002084F8380000BF00BF1C
:103EE000D5E7000000000140000400400008004049
:103EF000000C00400010004000140040000401408D
:103F00002E2E2F447269766572732F53544D3332BF
:103F1000463478785F48414C5F4472697665722F09
:103F20005372632F73746D3332663478785F6861CF
:103F30006C5F74696D5F65782E63000010B5044690
:103F40000CB9012010BD3A492068884233D020685E
:103F5000B0F1804F2FD03749206888422BD03649A6
:103F60002068884227D035492068884223D03449C8
:103F7000206888421FD03349206888421BD03249CC
:103F80002068884217D031492068884213D03049D0
:103F9000206888420FD02F49206888420BD02E49D4
:103FA0002068884207D02D492068884203D02C49D8
:103FB0002068884200D103E0D7212AA004F060F9EC
:103FC000A06858B1A068102808D0A068202805D0A3
:103FD000A068402802D0A068602800D103E0D82162
:103FE00020A004F04DF9206938B12069B0F5807F38
:103FF00003D02069B0F5007F00D103E0D92119A0DA
:1040000004F03EF994F8390028B9002084F838000B
:10401000204600F043F8022084F83900211D206872
:1040200002F0C2FB012084F8390000208AE700007A
:10403000000001400004004000080040000C004067
:104040000010004000140040000401400040014006
:10405000004401400048014000180040001C00409E
:10406000002000402E2E2F447269766572732F5304
:10407000544D3332463478785F48414C5F4472691E
:104080007665722F5372632F73746D333266347892
:10409000785F68616C5F74696D2E630038B50446A3
:1040A0002B492068884218D100BF00200090294881
:1040B000006840F00200274908600846006800F0E8
:1040C0000200009000BF00BF002205211D20FFF765
:1040D00019F91D20FFF7E2F838E01F4920688842EF
:1040E00018D100BF002000901A48006840F004007A
:1040F000184908600846006800F00400009000BFFE
:1041000000BF002205211E20FFF7FCF81E20FFF74C
:10411000C5F81BE011492068884217D100BF002074
:1041200000900C48006840F008000A490860084602
:10413000006800F00800009000BF00BF00220521C9
:104140003220FFF7DFF83220FFF7A8F838BD000073
:10415000000400404038024000080040000C0040CD
:1041600010B5044625492068884233D02068B0F154
:10417000804F2FD02249206888422BD021492068C7
:10418000884227D020492068884223D01F492068D0
:1041900088421FD01E49206888421BD01D492068D4
:1041A000884217D01C492068884213D01B492068D8
:1041B00088420FD01A49206888420BD019492068DC
:1041C000884207D018492068884203D017492068E0
:1041D000884200D104E04FF4B17115A004F050F80A
:1041E0002068C06840F001002168C860206800684D
:1041F00040F0010021680860002010BD000001406F
:104200000004004000080040000C00400010004086
:1042100000140040000401400040014000440140FF
:104220000048014000180040001C004000200040F1
:104230002E2E2F447269766572732F53544D33328C
:10424000463478785F48414C5F4472697665722FD6
:104250005372632F73746D3332663478785F68619C
:104260006C5F74696D2E63002DE9F04104460D46C4
:10427000002600BF94F83800012802D10220BDE8D2
:10428000F081012084F8380000BF022084F8390052
:104290002868B0F5805F1AD02868B0F5005F16D0A6
:1042A0002868A0B12868102811D0286820280ED0CE
:1042B000286830280BD02868402808D02868502863
:1042C00005D02868602802D02868702800D104E052
:1042D00040F67771FEA003F0D3FF2068866826F0D1
:1042E000770626F47F46206886602868502876D0B6
:1042F0000CDC202874D004DC002872D0102871D186
:1043000081E230286FD04028F9D1B9E160286BD024
:1043100070284BD0B0F5805F03D0B0F5005FEED1D0
:10432000A8E0F9492068884233D02068B0F1804F76
:104330002FD0F649206888422BD0F5492068884262
:1043400027D0F4492068884223D0F3492068884266
:104350001FD0F249206888421BD0F149206888426A
:1043600017D0F0492068884213D0EF49206888426E
:104370000FD0EE49206888420BD0ED492068884272
:1043800007D0EC492068884203D0EB492068884276
:1043900000D104E040F68371CDA003F071FF2068E6
:1043A000806820F0070021688860B1E2D649206863
:1043B000884213D02068B0F1804F0FD0D3492068D5
:1043C00088420BD0D2492068884207D0D149206862
:1043D000884203D0D2492068884206D10AE0A5E08D
:1043E0003DE2E4E193E266E2FDE040F68C71B8A0C4
:1043F00003F046FF6868B0F5004F09D0686838B12F
:10440000686828B16868022802D068680A2800D164
:1044100004E040F68E71AEA003F032FFA86858B1F8
:10442000A868B0F5805F07D0A868B0F5005F03D03A
:10443000A868B0F5405F00D104E040F68F71A4A0F9
:1044400003F01EFFE8680F2800D804E04FF47961FC
:104450009FA003F015FFD5E902136A68206802F0F7
:1044600093FA2068866826F0770646F0770620687B
:1044700086604DE2A4492068884213D02068B0F1DC
:10448000804F0FD0A149206888420BD0A0492068F6
:10449000884207D09F492068884203D0A0492068FD
:1044A000884200D104E040F6A47189A003F0E8FE40
:1044B0006868B0F5004F09D0686838B1686828B1FD
:1044C0006868022802D068680A2800D104E040F633
:1044D000A6717FA003F0D4FEA86858B1A868B0F513
:1044E000805F07D0A868B0F5005F03D0A868B0F57A
:1044F000405F00D104E040F6A77175A003F0C0FE54
:10450000E8680F2800D804E040F6A87170A003F016
:10451000B7FED5E902136A68206802F035FA206810
:10452000806840F4804021688860F1E17649206825
:1045300088422BD02068B0F1804F27D07349206883
:10454000884223D07249206888421FD07149206870
:1045500088421BD072492068884217D07149206870
:10456000884213D07049206888420FD06F49206874
:1045700088420BD06E492068884207D06D49206878
:10458000884203D06C492068884200D104E040F69C
:10459000B6714FA003F074FE6868B0F5004F09D003
:1045A000686838B1686828B16868022802D068680D
:1045B0000A2800D104E040F6B97145A003F060FE7E
:1045C000E8680F2800D804E040F6BA7140A003F074
:1045D00057FEEA686968206802F072FB5021206883
:1045E00002F0DEF994E14849206888421BD0206837
:1045F000B0F1804F17D045492068884213D0444914
:10460000206888420FD04349206888420BD0444933
:104610002068884207D043492068884203D0444933
:104620002068884200D104E040F6C47128A003F05D
:1046300027FE6868B0F5004F09D0686838B168682F
:1046400028B16868022802D068680A2800D104E00E
:1046500040F6C7711EA003F013FEE8680F2800D8CB
:1046600004E040F6C8711AA003F00AFEEA6869681F
:10467000206802F03AFB6021206802F091F947E1DE
:1046800021492068884262D02068B0F1804F5ED016
:104690001E49206888425AD01D492068884256D059
:1046A0001C492068884252D01D49206888424ED05B
:1046B0001C49206888424AD01B492068884246D05D
:1046C0001A492068884242D019492068884235E05A
:1046D0002E2E2F447269766572732F53544D3332E8
:1046E000463478785F48414C5F4472697665722F32
:1046F0005372632F73746D3332663478785F6861F8
:104700006C5F74696D2E630000000140000400407E
:1047100000080040000C0040001000400014004061
:1047200000040140004001400044014000480140B5
:1047300000180040001C00400020004007D07A49CB
:104740002068884203D079492068884200D105E07A
:1047500040F6D271AFF2880003F092FD6868B0F5C0
:10476000004F09D0686838B1686828B168680228C5
:1047700002D068680A2800D105E040F6D571AFF292
:10478000B00003F07DFDE8680F2800D805E040F692
:10479000D671AFF2C40003F073FDEA68696820685F
:1047A00002F08EFA4021206802F0FAF8B0E0604989
:1047B000206888421BD02068B0F1804F17D05D4937
:1047C0002068884213D05C49206888420FD05B493A
:1047D000206888420BD05A492068884207D059493E
:1047E0002068884203D058492068884200D105E0FB
:1047F0004FF47E61AFF2281003F042FD00212068E3
:1048000002F0CEF884E04A49206888421BD0206834
:10481000B0F1804F17D047492068884213D04649ED
:10482000206888420FD04549206888420BD044490F
:104830002068884207D043492068884203D0424913
:104840002068884200D105E040F6E671AFF28010A2
:1048500003F016FD1021206802F0A2F858E0344958
:10486000206888421BD02068B0F1804F17D03149B2
:104870002068884213D03049206888420FD02F49E1
:10488000206888420BD02E492068884207D02D49E5
:104890002068884203D02C492068884200D105E076
:1048A00040F6EC71AFF2D81003F0EAFC202120684A
:1048B00002F076F82CE01E49206888421BD0206860
:1048C000B0F1804F17D01B492068884213D01A4995
:1048D000206888420FD01949206888420BD01849B7
:1048E0002068884207D017492068884203D01649BB
:1048F0002068884200D105E040F6F271AFF2302026
:1049000003F0BEFC3021206802F04AF800E000BF4E
:1049100000BF012084F8390000BF002084F838006F
:1049200000BF00BFABE40000001C004000200040BE
:10493000000001400004004000080040000C00405E
:10494000000401400040014000180040704710B5CD
:10495000044620680069C0F34000D8B12068C068F0
:10496000C0F34000B0B16FF002002168086101207F
:1049700020762068806900F0030018B12046FFF718
:10498000E5FF05E0204600F0DDF8204600F011FBD1
:104990000020207620680069C0F38000D8B120682C
:1049A000C068C0F38000B0B16FF0040021680861F6
:1049B000022020762068806900F4407018B12046FB
:1049C000FFF7C4FF05E0204600F0BCF8204600F0E9
:1049D000F0FA0020207620680069C0F3C000D8B14A
:1049E0002068C068C0F3C000B0B16FF00800216853
:1049F0000861042020762068C06900F0030018B127
:104A00002046FFF7A3FF05E0204600F09BF8204674
:104A100000F0CFFA0020207620680069C0F3001073
:104A2000D8B12068C068C0F30010B0B16FF01000BA
:104A300021680861082020762068C06900F4407071
:104A400018B12046FFF782FF05E0204600F07AF813
:104A5000204600F0AEFA002020762068006900F0C1
:104A6000010058B12068C06800F0010030B16FF05B
:104A7000010021680861204600F060FB20680069A1
:104A8000C0F3C01058B12068C068C0F3C01030B186
:104A90006FF08000216808612046FFF79FF92068C9
:104AA0000069C0F3801058B12068C068C0F380105E
:104AB00030B16FF0400021680861204600F052FBE1
:104AC00020680069C0F3401058B12068C068C0F386
:104AD000401030B16FF02000216808612046FFF7D8
:104AE0007EF910BD10B586B00446142101A8FBF76D
:104AF00040FC1149206888421CD100BF0020009072
:104B00000E48006840F008000C490860084600683C
:104B100000F00800009000BF00BF88140190022040
:104B200002900020039004900220059001A90448FF
:104B3000FDF7B0FC06B010BD000800403038024060
:104B4000000C02407047000070B504460D46164642
:104B500000BF94F83800012801D1022070BD012067
:104B600084F8380000BF3EB1042E05D0082E03D0D3
:104B70000C2E01D0182E00D104E040F648419AA036
:104B800003F07EFB2868602802D02868702800D1D6
:104B900004E040F6494194A003F072FBA86810B10C
:104BA000A868022800D104E040F64A418EA003F034
:104BB00067FB286910B12869042800D104E040F699
:104BC0004B4189A003F05CFB022084F8390036B128
:104BD000042E51D0082E70D00C2E6FD1C1E0904918
:104BE000206888422BD02068B0F1804F27D08D49B3
:104BF0002068884223D08C49206888421FD08B4986
:104C0000206888421BD08A492068884217D0894989
:104C10002068884213D08849206888420FD087498D
:104C2000206888420BD086492068884207D0854991
:104C30002068884203D084492068884200D104E07B
:104C400040F6534168A003F01BFB2946206801F0A1
:104C5000B1FE2068806940F0080021688861206802
:104C6000806920F0040021688861206880692969D2
:104C7000084321688861ABE06949206888421BD0FD
:104C80002068B0F1804F17D066492068884213D061
:104C90006549206888420FD06449206888420BD05B
:104CA00063492068884207D062492068884203D05F
:104CB00063492068884202D106E01DE087E040F6A3
:104CC000624149A003F0DCFA2946206801F0AAFEFF
:104CD0002068806940F400602168886120688069EC
:104CE00020F480602168886120688069296940EA31
:104CF0000120216888616BE049492068884213D00F
:104D00002068B0F1804F0FD04649206888420BD010
:104D100045492068884207D044492068884203D02A
:104D200043492068884200D104E040F671412EA03A
:104D300003F0A6FA2946206801F0E0FE2068C06969
:104D400040F008002168C8612068C06920F00400B4
:104D50002168C8612068C069296908432168C86161
:104D600036E02F492068884213D02068B0F1804F88
:104D70000FD02C49206888420BD02B4920688842EC
:104D800007D02A492068884203D0294920688842F0
:104D900000D104E04FF4486113A003F071FA2946F2
:104DA000206801F02FFF2068C06940F4006021688E
:104DB000C8612068C06920F480602168C8612068EB
:104DC000C069296940EA01202168C86100E000BF8C
:104DD00000BF012084F8390000BF002084F83800AB
:104DE00000BF00BFBAE600002E2E2F447269766520
:104DF00072732F53544D3332463478785F48414CA8
:104E00005F4472697665722F5372632F73746D33CA
:104E100032663478785F68616C5F74696D2E630008
:104E2000000001400004004000080040000C004069
:104E3000000401400040014000440140004801409E
:104E400000180040001C00400020004010B504463F
:104E50000CB9012010BD3B492068884233D020683E
:104E6000B0F1804F2FD03849206888422BD0374985
:104E70002068884227D036492068884223D03549A7
:104E8000206888421FD03449206888421BD03349AB
:104E90002068884217D032492068884213D03149AF
:104EA000206888420FD03049206888420BD02F49B3
:104EB0002068884207D02E492068884203D02D49B7
:104EC0002068884200D104E040F2F1312AA003F0CA
:104ED000D7F9A06858B1A068102808D0A068202889
:104EE00005D0A068402802D0A068602800D104E066
:104EF00040F2F23120A003F0C3F9206938B12069F3
:104F0000B0F5807F03D02069B0F5007F00D104E0C8
:104F100040F2F33118A003F0B3F994F8390028B93E
:104F2000002084F83800204600F042F8022084F87F
:104F30003900211D206801F037FC012084F8390078
:104F4000002087E700000140000400400008004006
:104F5000000C00400010004000140040000401401C
:104F6000004001400044014000480140001800405A
:104F7000001C0040002000402E2E2F4472697665F0
:104F800072732F53544D3332463478785F48414C16
:104F90005F4472697665722F5372632F73746D3339
:104FA00032663478785F68616C5F74696D2E630077
:104FB0007047704770B505460C46474928688842D7
:104FC00007D1002C62D0042C60D0082C5ED00C2CB1
:104FD0005CD02868B0F1804F07D1002C56D0042C4B
:104FE00054D0082C52D00C2C50D03C492868884210
:104FF00007D1002C4AD0042C48D0082C46D00C2CC9
:1050000044D037492868884206D1ECB3042C3DD0FF
:10501000082C3BD00C2C39D032492868884206D164
:1050200094B3042C32D0082C30D00C2C2ED02E4926
:105030002868884206D13CB3042C27D0082C25D000
:105040000C2C23D029492868884202D1E4B1042CD1
:105050001CD027492868884200D1ACB1254928686E
:10506000884200D184B124492868884202D15CB1C9
:10507000042C0BD021492868884200D124B1204952
:105080002868884203D100E000E004B904E040F25F
:1050900052411CA003F0F4F801222146286801F0D7
:1050A000F5FB0D492868884203D00F4928688842DB
:1050B00001D1012000E0002028B12868406C40F4B4
:1050C0000040296848642868006840F001002968A9
:1050D0000860002070BD0000000001400004004096
:1050E00000080040000C0040000401400040014066
:1050F000004401400048014000180040001C0040EE
:10510000002000402E2E2F447269766572732F5353
:10511000544D3332463478785F48414C5F4472696D
:105120007665722F5372632F73746D3332663478E1
:10513000785F68616C5F74696D2E630010B504461A
:1051400006492068884201D1FEF712F80449206818
:10515000884201D104F07EFE10BD00000010004026
:10516000000400407047704770B50446206800682E
:1051700000F0100010287BD120680668206846687F
:10518000761C606B00684F49884201D120205CE0AA
:10519000606B00684C49884201D1202055E0606B6B
:1051A000006848496031884201D120204DE0606BA1
:1051B000006845496031884201D1202045E0606B9C
:1051C000006840491831884201D1C0143DE0606B4D
:1051D00000683D491831884201D1C01435E0606B48
:1051E000006838497831884201D1C0142DE0606BE5
:1051F000006835497831884201D1C01425E0606BE0
:10520000006830493031884202D14FF400101CE070
:10521000606B00682C493031884202D14FF4001095
:1052200013E0606B006827499031884202D14FF447
:1052300000100AE0606B006823499031884202D177
:105240004FF4001001E04FF000600546606B00680D
:10525000006820F00100616B09680860606B0068FD
:1052600019494831884204D91748001F056017E0E2
:1052700022E0606B00681349A831884203D91248C4
:10528000083805600CE0606B00680E4948318842C0
:1052900003D90C481038C56002E00A481038856010
:1052A000A08D616B09684860606B0068006840F021
:1052B0000100616B096808600448A16AFBF75AFCA9
:1052C00070BD00001060024010640240AC08002075
:1052D0002DE9F0470446206805682068C668206804
:1052E00047694FF00008C14605F00F08B8F1000FFC
:1052F0000AD105F0200038B106F0200020B1204688
:1053000001F085FDBDE8F087B8F1000F6DD007F022
:10531000010018B906F49070002866D005F001006D
:1053200030B106F4807018B1E06B40F00100E0632A
:1053300005F0040030B107F0010018B1E06B40F057
:105340000200E06305F0020030B107F0010018B17F
:10535000E06B40F00400E06305F0080030B107F0B6
:10536000010018B1E06B40F00800E063E06B68B347
:1053700005F0200028B106F0200010B1204601F011
:1053800046FD20684069C0F38019E06B00F008001A
:1053900010B9B9F1000F22D0204601F0C6FC2068F8
:1053A000406900F04000B0B12068406920F0400042
:1053B00021684861606B50B11748616B0865606B8C
:1053C000FCF71BFD10B1606B016D88470CE02046B7
:1053D000FFF7C9FE08E02046FFF7C5FE04E02046BF
:1053E000FFF7C1FE0020E0638CE705F0800030B1DC
:1053F00006F0800018B1204601F05EFF82E705F05C
:10540000400030B106F0400018B1204601F09DFC8C
:1054100078E700BF76E70000176D000810B5044676
:105420000CB9012010BDA06900282AD04849206885
:1054300088420BD047492068884207D046492068F7
:10544000884203D045492068884200D104E04FF4E7
:10545000807143A002F014FFA06958B1A069B0F5B3
:10546000807F07D0A069B0F5007F03D0A069B0F5B8
:10547000407F00D123E040F2011139A002F000FF8B
:105480001DE033492068884213D0324920688842A1
:105490000FD03149206888420BD0404920688842AB
:1054A00007D03F492068884203D02C4920688842B1
:1054B00000D104E040F2051129A002F0E1FEA0684D
:1054C00018B1A068B0F5805F00D104E040F2071188
:1054D00023A002F0D5FEE06918B1E069B0F5004FF5
:1054E00000D104E04FF484711DA002F0C9FE94F8CD
:1054F000390028B9002084F83800204600F052F81E
:10550000242084F839002068C06820F40050216805
:10551000C860204601F0C8FC2068006920F4904073
:10552000216808612068406920F02A0021684861EC
:105530002068C06840F400502168C8600020E06323
:10554000202084F8390084F83A0000206AE700003F
:105550000010014000440040004800400014014099
:105560002E2E2F447269766572732F53544D333249
:10557000463478785F48414C5F4472697665722F93
:105580005372632F73746D3332663478785F686159
:105590006C5F756172742E6300000000004C004067
:1055A0000050004010B586B00446142101A8FAF757
:1055B000E0FE6F492068884239D100BF002000908A
:1055C0006C48006840F010006A49086008460068AE
:1055D00000F01000009000BF00BF00BF002000904E
:1055E00064481438006840F00100624914390860CA
:1055F0000846006800F00100009000BF00BF4FF4B3
:10560000C0600190022002900120039003200490CA
:105610000720059001A95848FCF73CFF002205210E
:105620002520FDF76FFE2520FDF738FE9DE053494C
:10563000206888425AD100BF002000904D48001FCA
:10564000006840F400304B49091F086008460068B4
:1056500000F40030009000BF00BF00BF00200090A9
:1056600044481438006840F0010042491439086089
:105670000846006800F00100009000BF00BF0C2049
:105680000190022002900120039003200490072043
:10569000059001A93848FCF7FDFE394839490860F2
:1056A0004FF000604860002136488160C1604FF4CF
:1056B00080610161002141618161C1614FF440312C
:1056C000016200214162FCF7CDFC08B1FBF744FB0D
:1056D00000BF2C486063846300BF002205212620A0
:1056E000FDF710FE2620FDF7D9FD3EE02649206893
:1056F00088423AD100BF002000901E48001F006879
:1057000040F480201B49091F08600846006800F427
:105710008020009000BF00BF00BF0020009015480F
:105720001438006840F00200124914390860084635
:10573000006800F00200009000BF00BF4FF440601E
:105740000190022002900120039003200490072082
:10575000059001A90D48FCF79DFE00220521272098
:10576000FDF7D0FD2720FDF799FD06B010BD000024
:105770000010014044380240000002400044004054
:1057800088600240300B00200048004000040240C6
:1057900070B504460D4616462068C06840F01000FB
:1057A0002168C86032462946204601F0DEFA70BD05
:1057B00070472DE9F84304460D4616461F464FF044
:1057C000000994F8390020285CD105B116B90120F0
:1057D000BDE8F88300BF94F83800012801D1022009
:1057E000F6E7012084F8380000BF0020E0632120A4
:1057F00084F83900FDF7AAF88146A684E6842BE0F8
:10580000E08C401EE084A068B0F5805F16D14B4666
:10581000002280212046009701F082FD08B103207C
:10582000D6E7A846B8F80000C0F308002168486031
:10583000206908B9AD1C0FE06D1C0DE04B4600223D
:1058400080212046009701F06BFD08B10320BFE7DF
:1058500015F8010B21684860E08C0028D0D14B4638
:10586000002240212046009701F05AFD08B1032094
:10587000AEE7202084F8390000BF002084F838000B
:1058800000BFA5E70220A3E7704700BFFEE701467F
:1058900008684069C0F3802088B16FF480600A68AE
:1058A00050610420086400200863202081F83D0036
:1058B00000BF002081F83C0000BF0120704700209D
:1058C000FCE700002DE9F84304460F4615469946CB
:1058D000DDE908862068006840F48060216808607F
:1058E0002068006840F48070216808604346002208
:1058F0004FF001112046009600F02BF910B1032063
:10590000BDE8F88307F0FE0021680861334642468F
:105910004149204600F05BF930B1206C042801D1E8
:105920000120EDE70320EBE700BF00200090206896
:105930004069009020688069009000BF00BF324637
:105940004146204600F0D0F960B1206C042807D110
:105950002068006840F40070216808600120CFE7EB
:105960000320CDE7B9F1010F03D1E8B22168086146
:1059700019E0C5F3072021680861324641462046F8
:1059800000F0B2F960B1206C042807D120680068EB
:1059900040F40070216808600120B1E70320AFE700
:1059A000E8B22168086132464146204600F09CF981
:1059B00060B1206C042807D12068006840F40070B2
:1059C0002168086001209BE7032099E720680068B0
:1059D00040F4807021680860434600224FF00111B6
:1059E0002046009600F0B5F808B1032088E7F8B229
:1059F00040F00100216808613346424606492046CE
:105A000000F0E5F830B1206C042801D1012077E7DF
:105A1000032075E7002073E7020001002DE9F84339
:105A20000446884615469946DDE9086720680068FF
:105A300040F4807021680860334600224FF0011165
:105A40002046009700F085F810B10320BDE8F883E8
:105A500008F0FE00216808613B4632462649204690
:105A600000F0B5F830B1206C042801D10120EDE739
:105A70000320EBE700BF0020009020684069009001
:105A800020688069009000BF00BF3A46314620463A
:105A900000F02AF960B1206C042807D12068006862
:105AA00040F40070216808600120CFE70320CDE7B3
:105AB000B9F1010F03D1E8B22168086119E0C5F31B
:105AC0000720216808613A463146204600F00CF96B
:105AD00060B1206C042807D12068006840F4007091
